{
  "abi": [
    {
      "inputs": [
        {
          "internalType": "address",
          "name": "token_",
          "type": "address"
        },
        {
          "internalType": "address",
          "name": "spender_",
          "type": "address"
        },
        {
          "internalType": "uint256",
          "name": "amount_",
          "type": "uint256"
        }
      ],
      "name": "erc20_approve",
      "outputs": [],
      "stateMutability": "nonpayable",
      "type": "function"
    },
    {
      "inputs": [
        {
          "internalType": "address",
          "name": "token_",
          "type": "address"
        },
        {
          "internalType": "address",
          "name": "owner_",
          "type": "address"
        },
        {
          "internalType": "address",
          "name": "spender_",
          "type": "address"
        },
        {
          "internalType": "uint256",
          "name": "amount_",
          "type": "uint256"
        },
        {
          "internalType": "uint256",
          "name": "deadline_",
          "type": "uint256"
        },
        {
          "internalType": "uint8",
          "name": "v_",
          "type": "uint8"
        },
        {
          "internalType": "bytes32",
          "name": "r_",
          "type": "bytes32"
        },
        {
          "internalType": "bytes32",
          "name": "s_",
          "type": "bytes32"
        }
      ],
      "name": "erc20_permit",
      "outputs": [],
      "stateMutability": "nonpayable",
      "type": "function"
    },
    {
      "inputs": [
        {
          "internalType": "address",
          "name": "token_",
          "type": "address"
        },
        {
          "internalType": "address",
          "name": "recipient_",
          "type": "address"
        },
        {
          "internalType": "uint256",
          "name": "amount_",
          "type": "uint256"
        }
      ],
      "name": "erc20_transfer",
      "outputs": [
        {
          "internalType": "bool",
          "name": "success_",
          "type": "bool"
        }
      ],
      "stateMutability": "nonpayable",
      "type": "function"
    },
    {
      "inputs": [
        {
          "internalType": "address",
          "name": "token_",
          "type": "address"
        },
        {
          "internalType": "address",
          "name": "owner_",
          "type": "address"
        },
        {
          "internalType": "address",
          "name": "recipient_",
          "type": "address"
        },
        {
          "internalType": "uint256",
          "name": "amount_",
          "type": "uint256"
        }
      ],
      "name": "erc20_transferFrom",
      "outputs": [
        {
          "internalType": "bool",
          "name": "success_",
          "type": "bool"
        }
      ],
      "stateMutability": "nonpayable",
      "type": "function"
    },
    {
      "inputs": [
        {
          "internalType": "address",
          "name": "loan_",
          "type": "address"
        }
      ],
      "name": "loan_acceptBorrower",
      "outputs": [],
      "stateMutability": "nonpayable",
      "type": "function"
    },
    {
      "inputs": [
        {
          "internalType": "address",
          "name": "loan_",
          "type": "address"
        },
        {
          "internalType": "uint256",
          "name": "amount_",
          "type": "uint256"
        }
      ],
      "name": "loan_closeLoan",
      "outputs": [
        {
          "internalType": "uint256",
          "name": "principal_",
          "type": "uint256"
        },
        {
          "internalType": "uint256",
          "name": "interest_",
          "type": "uint256"
        },
        {
          "internalType": "uint256",
          "name": "delegateFee_",
          "type": "uint256"
        },
        {
          "internalType": "uint256",
          "name": "treasuryFee_",
          "type": "uint256"
        }
      ],
      "stateMutability": "nonpayable",
      "type": "function"
    },
    {
      "inputs": [
        {
          "internalType": "address",
          "name": "loan_",
          "type": "address"
        },
        {
          "internalType": "uint256",
          "name": "amount_",
          "type": "uint256"
        },
        {
          "internalType": "address",
          "name": "destination_",
          "type": "address"
        }
      ],
      "name": "loan_drawdownFunds",
      "outputs": [
        {
          "internalType": "uint256",
          "name": "collateralPosted_",
          "type": "uint256"
        }
      ],
      "stateMutability": "nonpayable",
      "type": "function"
    },
    {
      "inputs": [
        {
          "internalType": "address",
          "name": "loan_",
          "type": "address"
        },
        {
          "internalType": "address",
          "name": "lender_",
          "type": "address"
        },
        {
          "internalType": "uint256",
          "name": "amount_",
          "type": "uint256"
        }
      ],
      "name": "loan_fundLoan",
      "outputs": [
        {
          "internalType": "uint256",
          "name": "fundsLent_",
          "type": "uint256"
        }
      ],
      "stateMutability": "nonpayable",
      "type": "function"
    },
    {
      "inputs": [
        {
          "internalType": "address",
          "name": "loan_",
          "type": "address"
        },
        {
          "internalType": "uint256",
          "name": "amount_",
          "type": "uint256"
        }
      ],
      "name": "loan_makePayment",
      "outputs": [
        {
          "internalType": "uint256",
          "name": "principal_",
          "type": "uint256"
        },
        {
          "internalType": "uint256",
          "name": "interest_",
          "type": "uint256"
        },
        {
          "internalType": "uint256",
          "name": "delegateFee_",
          "type": "uint256"
        },
        {
          "internalType": "uint256",
          "name": "treasuryFee_",
          "type": "uint256"
        }
      ],
      "stateMutability": "nonpayable",
      "type": "function"
    },
    {
      "inputs": [
        {
          "internalType": "address",
          "name": "loan_",
          "type": "address"
        },
        {
          "internalType": "uint256",
          "name": "amount_",
          "type": "uint256"
        }
      ],
      "name": "loan_postCollateral",
      "outputs": [
        {
          "internalType": "uint256",
          "name": "collateralPosted_",
          "type": "uint256"
        }
      ],
      "stateMutability": "nonpayable",
      "type": "function"
    },
    {
      "inputs": [
        {
          "internalType": "address",
          "name": "loan_",
          "type": "address"
        },
        {
          "internalType": "address",
          "name": "refinancer_",
          "type": "address"
        },
        {
          "internalType": "uint256",
          "name": "deadline_",
          "type": "uint256"
        },
        {
          "internalType": "bytes[]",
          "name": "calls_",
          "type": "bytes[]"
        }
      ],
      "name": "loan_proposeNewTerms",
      "outputs": [],
      "stateMutability": "nonpayable",
      "type": "function"
    },
    {
      "inputs": [
        {
          "internalType": "address",
          "name": "loan_",
          "type": "address"
        },
        {
          "internalType": "address",
          "name": "refinancer_",
          "type": "address"
        },
        {
          "internalType": "uint256",
          "name": "deadline_",
          "type": "uint256"
        },
        {
          "internalType": "bytes[]",
          "name": "calls_",
          "type": "bytes[]"
        }
      ],
      "name": "loan_rejectNewTerms",
      "outputs": [],
      "stateMutability": "nonpayable",
      "type": "function"
    },
    {
      "inputs": [
        {
          "internalType": "address",
          "name": "loan_",
          "type": "address"
        },
        {
          "internalType": "uint256",
          "name": "amount_",
          "type": "uint256"
        },
        {
          "internalType": "address",
          "name": "destination_",
          "type": "address"
        }
      ],
      "name": "loan_removeCollateral",
      "outputs": [],
      "stateMutability": "nonpayable",
      "type": "function"
    },
    {
      "inputs": [
        {
          "internalType": "address",
          "name": "loan_",
          "type": "address"
        },
        {
          "internalType": "uint256",
          "name": "amount_",
          "type": "uint256"
        }
      ],
      "name": "loan_returnFunds",
      "outputs": [
        {
          "internalType": "uint256",
          "name": "fundsReturned_",
          "type": "uint256"
        }
      ],
      "stateMutability": "nonpayable",
      "type": "function"
    },
    {
      "inputs": [
        {
          "internalType": "address",
          "name": "loan_",
          "type": "address"
        },
        {
          "internalType": "address",
          "name": "borrower_",
          "type": "address"
        }
      ],
      "name": "loan_setPendingBorrower",
      "outputs": [],
      "stateMutability": "nonpayable",
      "type": "function"
    },
    {
      "inputs": [
        {
          "internalType": "address",
          "name": "loan_",
          "type": "address"
        },
        {
          "internalType": "address",
          "name": "token_",
          "type": "address"
        },
        {
          "internalType": "address",
          "name": "destination_",
          "type": "address"
        }
      ],
      "name": "loan_skim",
      "outputs": [
        {
          "internalType": "uint256",
          "name": "fundsReturned_",
          "type": "uint256"
        }
      ],
      "stateMutability": "nonpayable",
      "type": "function"
    },
    {
      "inputs": [
        {
          "internalType": "address",
          "name": "loan_",
          "type": "address"
        },
        {
          "internalType": "uint256",
          "name": "toVersion_",
          "type": "uint256"
        },
        {
          "internalType": "bytes",
          "name": "arguments_",
          "type": "bytes"
        }
      ],
      "name": "loan_upgrade",
      "outputs": [],
      "stateMutability": "nonpayable",
      "type": "function"
    },
    {
      "inputs": [
        {
          "internalType": "address",
          "name": "instance_",
          "type": "address"
        },
        {
          "internalType": "uint256",
          "name": "toVersion_",
          "type": "uint256"
        },
        {
          "internalType": "bytes",
          "name": "arguments_",
          "type": "bytes"
        }
      ],
      "name": "mapleProxied_upgrade",
      "outputs": [],
      "stateMutability": "nonpayable",
      "type": "function"
    },
    {
      "inputs": [
        {
          "internalType": "address",
          "name": "factory_",
          "type": "address"
        },
        {
          "internalType": "bytes",
          "name": "arguments_",
          "type": "bytes"
        },
        {
          "internalType": "bytes32",
          "name": "salt_",
          "type": "bytes32"
        }
      ],
      "name": "mapleProxyFactory_createInstance",
      "outputs": [
        {
          "internalType": "address",
          "name": "instance_",
          "type": "address"
        }
      ],
      "stateMutability": "nonpayable",
      "type": "function"
    },
    {
      "inputs": [
        {
          "internalType": "address",
          "name": "loan_",
          "type": "address"
        }
      ],
      "name": "try_loan_acceptBorrower",
      "outputs": [
        {
          "internalType": "bool",
          "name": "ok_",
          "type": "bool"
        }
      ],
      "stateMutability": "nonpayable",
      "type": "function"
    },
    {
      "inputs": [
        {
          "internalType": "address",
          "name": "loan_",
          "type": "address"
        },
        {
          "internalType": "uint256",
          "name": "amount_",
          "type": "uint256"
        }
      ],
      "name": "try_loan_closeLoan",
      "outputs": [
        {
          "internalType": "bool",
          "name": "ok_",
          "type": "bool"
        }
      ],
      "stateMutability": "nonpayable",
      "type": "function"
    },
    {
      "inputs": [
        {
          "internalType": "address",
          "name": "loan_",
          "type": "address"
        },
        {
          "internalType": "uint256",
          "name": "amount_",
          "type": "uint256"
        },
        {
          "internalType": "address",
          "name": "destination_",
          "type": "address"
        }
      ],
      "name": "try_loan_drawdownFunds",
      "outputs": [
        {
          "internalType": "bool",
          "name": "ok_",
          "type": "bool"
        }
      ],
      "stateMutability": "nonpayable",
      "type": "function"
    },
    {
      "inputs": [
        {
          "internalType": "address",
          "name": "loan_",
          "type": "address"
        },
        {
          "internalType": "address",
          "name": "lender_",
          "type": "address"
        },
        {
          "internalType": "uint256",
          "name": "amount_",
          "type": "uint256"
        }
      ],
      "name": "try_loan_fundLoan",
      "outputs": [
        {
          "internalType": "bool",
          "name": "ok_",
          "type": "bool"
        }
      ],
      "stateMutability": "nonpayable",
      "type": "function"
    },
    {
      "inputs": [
        {
          "internalType": "address",
          "name": "loan_",
          "type": "address"
        },
        {
          "internalType": "uint256",
          "name": "amount_",
          "type": "uint256"
        }
      ],
      "name": "try_loan_makePayment",
      "outputs": [
        {
          "internalType": "bool",
          "name": "ok_",
          "type": "bool"
        }
      ],
      "stateMutability": "nonpayable",
      "type": "function"
    },
    {
      "inputs": [
        {
          "internalType": "address",
          "name": "loan_",
          "type": "address"
        },
        {
          "internalType": "uint256",
          "name": "amount_",
          "type": "uint256"
        }
      ],
      "name": "try_loan_postCollateral",
      "outputs": [
        {
          "internalType": "bool",
          "name": "ok_",
          "type": "bool"
        }
      ],
      "stateMutability": "nonpayable",
      "type": "function"
    },
    {
      "inputs": [
        {
          "internalType": "address",
          "name": "loan_",
          "type": "address"
        },
        {
          "internalType": "address",
          "name": "refinancer_",
          "type": "address"
        },
        {
          "internalType": "uint256",
          "name": "deadline_",
          "type": "uint256"
        },
        {
          "internalType": "bytes[]",
          "name": "calls_",
          "type": "bytes[]"
        }
      ],
      "name": "try_loan_proposeNewTerms",
      "outputs": [
        {
          "internalType": "bool",
          "name": "ok_",
          "type": "bool"
        }
      ],
      "stateMutability": "nonpayable",
      "type": "function"
    },
    {
      "inputs": [
        {
          "internalType": "address",
          "name": "loan_",
          "type": "address"
        },
        {
          "internalType": "uint256",
          "name": "amount_",
          "type": "uint256"
        },
        {
          "internalType": "address",
          "name": "destination_",
          "type": "address"
        }
      ],
      "name": "try_loan_removeCollateral",
      "outputs": [
        {
          "internalType": "bool",
          "name": "ok_",
          "type": "bool"
        }
      ],
      "stateMutability": "nonpayable",
      "type": "function"
    },
    {
      "inputs": [
        {
          "internalType": "address",
          "name": "loan_",
          "type": "address"
        },
        {
          "internalType": "uint256",
          "name": "amount_",
          "type": "uint256"
        }
      ],
      "name": "try_loan_returnFunds",
      "outputs": [
        {
          "internalType": "bool",
          "name": "ok_",
          "type": "bool"
        }
      ],
      "stateMutability": "nonpayable",
      "type": "function"
    },
    {
      "inputs": [
        {
          "internalType": "address",
          "name": "loan_",
          "type": "address"
        },
        {
          "internalType": "address",
          "name": "borrower_",
          "type": "address"
        }
      ],
      "name": "try_loan_setPendingBorrower",
      "outputs": [
        {
          "internalType": "bool",
          "name": "ok_",
          "type": "bool"
        }
      ],
      "stateMutability": "nonpayable",
      "type": "function"
    },
    {
      "inputs": [
        {
          "internalType": "address",
          "name": "loan_",
          "type": "address"
        },
        {
          "internalType": "address",
          "name": "token_",
          "type": "address"
        },
        {
          "internalType": "address",
          "name": "destination_",
          "type": "address"
        }
      ],
      "name": "try_loan_skim",
      "outputs": [
        {
          "internalType": "bool",
          "name": "ok_",
          "type": "bool"
        }
      ],
      "stateMutability": "nonpayable",
      "type": "function"
    },
    {
      "inputs": [
        {
          "internalType": "address",
          "name": "loan_",
          "type": "address"
        },
        {
          "internalType": "uint256",
          "name": "toVersion_",
          "type": "uint256"
        },
        {
          "internalType": "bytes",
          "name": "arguments_",
          "type": "bytes"
        }
      ],
      "name": "try_loan_upgrade",
      "outputs": [
        {
          "internalType": "bool",
          "name": "ok_",
          "type": "bool"
        }
      ],
      "stateMutability": "nonpayable",
      "type": "function"
    },
    {
      "inputs": [
        {
          "internalType": "address",
          "name": "instance_",
          "type": "address"
        },
        {
          "internalType": "uint256",
          "name": "toVersion_",
          "type": "uint256"
        },
        {
          "internalType": "bytes",
          "name": "arguments_",
          "type": "bytes"
        }
      ],
      "name": "try_mapleProxied_upgrade",
      "outputs": [
        {
          "internalType": "bool",
          "name": "ok_",
          "type": "bool"
        }
      ],
      "stateMutability": "nonpayable",
      "type": "function"
    },
    {
      "inputs": [
        {
          "internalType": "address",
          "name": "factory_",
          "type": "address"
        },
        {
          "internalType": "bytes",
          "name": "arguments_",
          "type": "bytes"
        },
        {
          "internalType": "bytes32",
          "name": "salt_",
          "type": "bytes32"
        }
      ],
      "name": "try_mapleProxyFactory_createInstance",
      "outputs": [
        {
          "internalType": "bool",
          "name": "ok_",
          "type": "bool"
        }
      ],
      "stateMutability": "nonpayable",
      "type": "function"
    }
  ],
  "bytecode": {
    "object": "0x608060405234801561001057600080fd5b506116bd806100206000396000f3fe608060405234801561001057600080fd5b50600436106101fb5760003560e01c80637327de971161011a578063b6a0f331116100ad578063d75edca41161007c578063d75edca41461045e578063e5743b4f1461031b578063eb54553414610471578063f29fa84114610484578063fc179d671461049757600080fd5b8063b6a0f33114610412578063bb6830a614610425578063c6340ccf14610438578063ca6380691461044b57600080fd5b806399c96d4c116100e957806399c96d4c146103d9578063a67beab3146103ec578063afb7a0f6146103ff578063b501482f146103ec57600080fd5b80637327de971461038d5780637c2e27d4146103a05780637fe25581146103b35780638b196cd5146103c657600080fd5b8063429bf6c811610192578063574c784411610161578063574c78441461034157806366c1434514610354578063687468d1146103675780636d03fbc31461037a57600080fd5b8063429bf6c8146102dd57806348b4e6bc146102f05780634ad11ba71461031b57806351cf23b11461032e57600080fd5b80632893a76e116101ce5780632893a76e14610283578063329ff38f146102a457806332e7772e146102b75780633d73ea8f146102ca57600080fd5b8063020578a214610200578063035e30b31461022857806305eee8e71461023b5780631649e2ef14610250575b600080fd5b61021361020e366004611414565b6104aa565b60405190151581526020015b60405180910390f35b6102136102363660046112a9565b610563565b61024e610249366004611220565b610595565b005b61026361025e3660046113e8565b610627565b60408051948552602085019390935291830152606082015260800161021f565b6102966102913660046113e8565b6106bd565b60405190815260200161021f565b6102136102b2366004611414565b610742565b61024e6102c5366004611414565b610774565b6102966102d83660046113e8565b6107db565b6102636102eb3660046113e8565b61080b565b6103036102fe36600461138c565b61083f565b6040516001600160a01b03909116815260200161021f565b61021361032936600461144b565b6108cd565b61024e61033c3660046112a9565b610982565b61024e61034f3660046112ea565b610a0a565b61021361036236600461114b565b610a75565b6102136103753660046113e8565b610b26565b61024e6103883660046112ea565b610b4d565b61021361039b366004611184565b610b7f565b6102136103ae3660046113e8565b610bb2565b6102136103c13660046112a9565b610bd9565b6102966103d43660046112a9565b610c67565b6102136103e736600461138c565b610cee565b61024e6103fa36600461144b565b610d17565b61029661040d366004611184565b610d7f565b6102136104203660046113e8565b610db9565b610213610433366004611111565b610de0565b610296610446366004611414565b610e6d565b6102136104593660046112ea565b610ea6565b61021361046c3660046113e8565b610f5e565b61024e61047f366004611111565b610f85565b61024e61049236600461114b565b610fdb565b6102136104a53660046111cf565b61103a565b604051602481018390526001600160a01b03828116604483015260009190851690636a0eee4b60e11b906064015b60408051601f198184030181529181526020820180516001600160e01b03166001600160e01b03199094169390931790925290516105169190611541565b6000604051808303816000865af19150503d8060008114610553576040519150601f19603f3d011682016040523d82523d6000602084013e610558565b606091505b509095945050505050565b6040516001600160a01b038381166024830152604482018390526000919085169063e920b1e160e01b906064016104d8565b60405163d505accf60e01b81526001600160a01b0388811660048301528781166024830152604482018790526064820186905260ff8516608483015260a4820184905260c4820183905289169063d505accf9060e401600060405180830381600087803b15801561060557600080fd5b505af1158015610619573d6000803e3d6000fd5b505050505050505050505050565b600080600080856001600160a01b031663d05951a0866040518263ffffffff1660e01b815260040161065b91815260200190565b608060405180830381600087803b15801561067557600080fd5b505af1158015610689573d6000803e3d6000fd5b505050506040513d601f19601f820116820180604052508101906106ad91906114e2565b9299919850965090945092505050565b6040516322baaeeb60e11b8152600481018290526000906001600160a01b038416906345755dd6906024015b602060405180830381600087803b15801561070357600080fd5b505af1158015610717573d6000803e3d6000fd5b505050506040513d601f19601f8201168201806040525081019061073b91906114c9565b9392505050565b604051602481018390526001600160a01b03828116604483015260009190851690633330112160e21b906064016104d8565b604051636a0eee4b60e11b8152600481018390526001600160a01b03828116602483015284169063d41ddc9690604401600060405180830381600087803b1580156107be57600080fd5b505af11580156107d2573d6000803e3d6000fd5b50505050505050565b6040516350f2012f60e01b8152600481018290526000906001600160a01b038416906350f2012f906024016106e9565b600080600080856001600160a01b0316635114cb52866040518263ffffffff1660e01b815260040161065b91815260200190565b60405163517b657f60e01b81526000906001600160a01b0386169063517b657f9061087290879087908790600401611631565b602060405180830381600087803b15801561088c57600080fd5b505af11580156108a0573d6000803e3d6000fd5b505050506040513d601f19601f820116820180604052508101906108c4919061112e565b95945050505050565b6000846001600160a01b0316633b99bcee60e01b8585856040516024016108f693929190611655565b60408051601f198184030181529181526020820180516001600160e01b03166001600160e01b03199094169390931790925290516109349190611541565b6000604051808303816000865af19150503d8060008114610971576040519150601f19603f3d011682016040523d82523d6000602084013e610976565b606091505b50909695505050505050565b60405163095ea7b360e01b81526001600160a01b0383811660048301526024820183905284169063095ea7b390604401602060405180830381600087803b1580156109cc57600080fd5b505af11580156109e0573d6000803e3d6000fd5b505050506040513d601f19601f82011682018060405250810190610a0491906114a7565b50505050565b604051632b2d48ad60e21b81526001600160a01b0386169063acb522b490610a3c90879087908790879060040161157c565b600060405180830381600087803b158015610a5657600080fd5b505af1158015610a6a573d6000803e3d6000fd5b505050505050505050565b6040516001600160a01b03828116602483015260009190841690631f3f19ab60e01b906044015b60408051601f198184030181529181526020820180516001600160e01b03166001600160e01b0319909416939093179092529051610ada9190611541565b6000604051808303816000865af19150503d8060008114610b17576040519150601f19603f3d011682016040523d82523d6000602084013e610b1c565b606091505b5090949350505050565b6000826001600160a01b03166350f2012f60e01b83604051602401610a9c91815260200190565b6040516387accaf160e01b81526001600160a01b038616906387accaf190610a3c90879087908790879060040161157c565b6040516001600160a01b03838116602483015282811660448301526000919085169063712b772f60e01b906064016104d8565b6000826001600160a01b03166345755dd660e01b83604051602401610a9c91815260200190565b60405163a9059cbb60e01b81526001600160a01b038381166004830152602482018390526000919085169063a9059cbb90604401602060405180830381600087803b158015610c2757600080fd5b505af1158015610c3b573d6000803e3d6000fd5b505050506040513d601f19601f82011682018060405250810190610c5f91906114a7565b949350505050565b60405163e920b1e160e01b81526001600160a01b038381166004830152602482018390526000919085169063e920b1e1906044015b602060405180830381600087803b158015610cb657600080fd5b505af1158015610cca573d6000803e3d6000fd5b505050506040513d601f19601f82011682018060405250810190610c5f91906114c9565b6000846001600160a01b031663517b657f60e01b8585856040516024016108f693929190611631565b604051631dccde7760e11b81526001600160a01b03851690633b99bcee90610d4790869086908690600401611655565b600060405180830381600087803b158015610d6157600080fd5b505af1158015610d75573d6000803e3d6000fd5b5050505050505050565b60405163712b772f60e01b81526001600160a01b03838116600483015282811660248301526000919085169063712b772f90604401610c9c565b6000826001600160a01b031663d05951a060e01b83604051602401610a9c91815260200190565b60408051600481526024810182526020810180516001600160e01b03166301daa38f60e01b17905290516000916001600160a01b03841691610e229190611541565b6000604051808303816000865af19150503d8060008114610e5f576040519150601f19603f3d011682016040523d82523d6000602084013e610e64565b606091505b50909392505050565b604051633330112160e21b8152600481018390526001600160a01b0382811660248301526000919085169063ccc0448490604401610c9c565b6000856001600160a01b03166387accaf160e01b86868686604051602401610ed1949392919061157c565b60408051601f198184030181529181526020820180516001600160e01b03166001600160e01b0319909416939093179092529051610f0f9190611541565b6000604051808303816000865af19150503d8060008114610f4c576040519150601f19603f3d011682016040523d82523d6000602084013e610f51565b606091505b5090979650505050505050565b6000826001600160a01b0316635114cb5260e01b83604051602401610a9c91815260200190565b806001600160a01b03166301daa38f6040518163ffffffff1660e01b8152600401600060405180830381600087803b158015610fc057600080fd5b505af1158015610fd4573d6000803e3d6000fd5b5050505050565b604051631f3f19ab60e01b81526001600160a01b038281166004830152831690631f3f19ab90602401600060405180830381600087803b15801561101e57600080fd5b505af1158015611032573d6000803e3d6000fd5b505050505050565b6040516323b872dd60e01b81526001600160a01b038481166004830152838116602483015260448201839052600091908616906323b872dd90606401602060405180830381600087803b15801561109057600080fd5b505af11580156110a4573d6000803e3d6000fd5b505050506040513d601f19601f820116820180604052508101906108c491906114a7565b60008083601f8401126110da57600080fd5b50813567ffffffffffffffff8111156110f257600080fd5b60208301915083602082850101111561110a57600080fd5b9250929050565b60006020828403121561112357600080fd5b813561073b8161166f565b60006020828403121561114057600080fd5b815161073b8161166f565b6000806040838503121561115e57600080fd5b82356111698161166f565b915060208301356111798161166f565b809150509250929050565b60008060006060848603121561119957600080fd5b83356111a48161166f565b925060208401356111b48161166f565b915060408401356111c48161166f565b809150509250925092565b600080600080608085870312156111e557600080fd5b84356111f08161166f565b935060208501356112008161166f565b925060408501356112108161166f565b9396929550929360600135925050565b600080600080600080600080610100898b03121561123d57600080fd5b88356112488161166f565b975060208901356112588161166f565b965060408901356112688161166f565b9550606089013594506080890135935060a089013560ff8116811461128c57600080fd5b979a969950949793969295929450505060c08201359160e0013590565b6000806000606084860312156112be57600080fd5b83356112c98161166f565b925060208401356112d98161166f565b929592945050506040919091013590565b60008060008060006080868803121561130257600080fd5b853561130d8161166f565b9450602086013561131d8161166f565b935060408601359250606086013567ffffffffffffffff8082111561134157600080fd5b818801915088601f83011261135557600080fd5b81358181111561136457600080fd5b8960208260051b850101111561137957600080fd5b9699959850939650602001949392505050565b600080600080606085870312156113a257600080fd5b84356113ad8161166f565b9350602085013567ffffffffffffffff8111156113c957600080fd5b6113d5878288016110c8565b9598909750949560400135949350505050565b600080604083850312156113fb57600080fd5b82356114068161166f565b946020939093013593505050565b60008060006060848603121561142957600080fd5b83356114348161166f565b92506020840135915060408401356111c48161166f565b6000806000806060858703121561146157600080fd5b843561146c8161166f565b935060208501359250604085013567ffffffffffffffff81111561148f57600080fd5b61149b878288016110c8565b95989497509550505050565b6000602082840312156114b957600080fd5b8151801515811461073b57600080fd5b6000602082840312156114db57600080fd5b5051919050565b600080600080608085870312156114f857600080fd5b505082516020840151604085015160609095015191969095509092509050565b81835281816020850137506000828201602090810191909152601f909101601f19169091010190565b6000825160005b818110156115625760208186018101518583015201611548565b81811115611571576000828501525b509190910192915050565b6001600160a01b0385168152602080820185905260606040830181905282018390526000906080600585901b840181019190840186845b8781101561162257868503607f190183528135368a9003601e190181126115d957600080fd5b8901803567ffffffffffffffff8111156115f257600080fd5b8036038b131561160157600080fd5b61160e8782888501611518565b9650505091830191908301906001016115b3565b50929998505050505050505050565b604081526000611645604083018587611518565b9050826020830152949350505050565b8381526040602082015260006108c4604083018486611518565b6001600160a01b038116811461168457600080fd5b5056fea2646970667358221220843571d3c054f015a97b5a8e4d8dad67c3467fb0a495d42f17e785930c8c105f64736f6c63430008070033",
    "linkReferences": {}
  }
}