{
  "abi": [
    {
      "anonymous": false,
      "inputs": [
        {
          "indexed": true,
          "internalType": "address",
          "name": "borrower_",
          "type": "address"
        }
      ],
      "name": "BorrowerAccepted",
      "type": "event"
    },
    {
      "anonymous": false,
      "inputs": [
        {
          "indexed": false,
          "internalType": "uint256",
          "name": "amount_",
          "type": "uint256"
        }
      ],
      "name": "CollateralPosted",
      "type": "event"
    },
    {
      "anonymous": false,
      "inputs": [
        {
          "indexed": false,
          "internalType": "uint256",
          "name": "amount_",
          "type": "uint256"
        },
        {
          "indexed": true,
          "internalType": "address",
          "name": "destination_",
          "type": "address"
        }
      ],
      "name": "CollateralRemoved",
      "type": "event"
    },
    {
      "anonymous": false,
      "inputs": [
        {
          "indexed": false,
          "internalType": "uint256",
          "name": "delegateFee_",
          "type": "uint256"
        },
        {
          "indexed": false,
          "internalType": "uint256",
          "name": "treasuryFee_",
          "type": "uint256"
        }
      ],
      "name": "EstablishmentFeesSet",
      "type": "event"
    },
    {
      "anonymous": false,
      "inputs": [
        {
          "indexed": true,
          "internalType": "address",
          "name": "lender_",
          "type": "address"
        },
        {
          "indexed": false,
          "internalType": "uint256",
          "name": "amount_",
          "type": "uint256"
        },
        {
          "indexed": false,
          "internalType": "uint256",
          "name": "nextPaymentDueDate_",
          "type": "uint256"
        }
      ],
      "name": "Funded",
      "type": "event"
    },
    {
      "anonymous": false,
      "inputs": [
        {
          "indexed": false,
          "internalType": "uint256",
          "name": "amount_",
          "type": "uint256"
        },
        {
          "indexed": true,
          "internalType": "address",
          "name": "destination_",
          "type": "address"
        }
      ],
      "name": "FundsClaimed",
      "type": "event"
    },
    {
      "anonymous": false,
      "inputs": [
        {
          "indexed": false,
          "internalType": "uint256",
          "name": "amount_",
          "type": "uint256"
        },
        {
          "indexed": true,
          "internalType": "address",
          "name": "destination_",
          "type": "address"
        }
      ],
      "name": "FundsDrawnDown",
      "type": "event"
    },
    {
      "anonymous": false,
      "inputs": [
        {
          "indexed": false,
          "internalType": "uint256",
          "name": "amount_",
          "type": "uint256"
        },
        {
          "indexed": true,
          "internalType": "address",
          "name": "destination_",
          "type": "address"
        }
      ],
      "name": "FundsRedirected",
      "type": "event"
    },
    {
      "anonymous": false,
      "inputs": [
        {
          "indexed": false,
          "internalType": "uint256",
          "name": "amount_",
          "type": "uint256"
        }
      ],
      "name": "FundsReturned",
      "type": "event"
    },
    {
      "anonymous": false,
      "inputs": [
        {
          "indexed": true,
          "internalType": "address",
          "name": "borrower_",
          "type": "address"
        },
        {
          "indexed": false,
          "internalType": "address[2]",
          "name": "assets_",
          "type": "address[2]"
        },
        {
          "indexed": false,
          "internalType": "uint256[3]",
          "name": "termDetails_",
          "type": "uint256[3]"
        },
        {
          "indexed": false,
          "internalType": "uint256[3]",
          "name": "amounts_",
          "type": "uint256[3]"
        },
        {
          "indexed": false,
          "internalType": "uint256[4]",
          "name": "rates_",
          "type": "uint256[4]"
        }
      ],
      "name": "Initialized",
      "type": "event"
    },
    {
      "anonymous": false,
      "inputs": [
        {
          "indexed": true,
          "internalType": "address",
          "name": "lender_",
          "type": "address"
        }
      ],
      "name": "LenderAccepted",
      "type": "event"
    },
    {
      "anonymous": false,
      "inputs": [
        {
          "indexed": false,
          "internalType": "uint256",
          "name": "principalPaid_",
          "type": "uint256"
        },
        {
          "indexed": false,
          "internalType": "uint256",
          "name": "interestPaid_",
          "type": "uint256"
        },
        {
          "indexed": false,
          "internalType": "uint256",
          "name": "delegateFeePaid_",
          "type": "uint256"
        },
        {
          "indexed": false,
          "internalType": "uint256",
          "name": "treasuryFeePaid_",
          "type": "uint256"
        }
      ],
      "name": "LoanClosed",
      "type": "event"
    },
    {
      "anonymous": false,
      "inputs": [
        {
          "indexed": false,
          "internalType": "bytes32",
          "name": "refinanceCommitment_",
          "type": "bytes32"
        },
        {
          "indexed": false,
          "internalType": "address",
          "name": "refinancer_",
          "type": "address"
        },
        {
          "indexed": false,
          "internalType": "uint256",
          "name": "deadline_",
          "type": "uint256"
        },
        {
          "indexed": false,
          "internalType": "bytes[]",
          "name": "calls_",
          "type": "bytes[]"
        }
      ],
      "name": "NewTermsAccepted",
      "type": "event"
    },
    {
      "anonymous": false,
      "inputs": [
        {
          "indexed": false,
          "internalType": "bytes32",
          "name": "refinanceCommitment_",
          "type": "bytes32"
        },
        {
          "indexed": false,
          "internalType": "address",
          "name": "refinancer_",
          "type": "address"
        },
        {
          "indexed": false,
          "internalType": "uint256",
          "name": "deadline_",
          "type": "uint256"
        },
        {
          "indexed": false,
          "internalType": "bytes[]",
          "name": "calls_",
          "type": "bytes[]"
        }
      ],
      "name": "NewTermsProposed",
      "type": "event"
    },
    {
      "anonymous": false,
      "inputs": [
        {
          "indexed": false,
          "internalType": "bytes32",
          "name": "refinanceCommitment_",
          "type": "bytes32"
        },
        {
          "indexed": false,
          "internalType": "address",
          "name": "refinancer_",
          "type": "address"
        },
        {
          "indexed": false,
          "internalType": "uint256",
          "name": "deadline_",
          "type": "uint256"
        },
        {
          "indexed": false,
          "internalType": "bytes[]",
          "name": "calls_",
          "type": "bytes[]"
        }
      ],
      "name": "NewTermsRejected",
      "type": "event"
    },
    {
      "anonymous": false,
      "inputs": [
        {
          "indexed": false,
          "internalType": "uint256",
          "name": "principalPaid_",
          "type": "uint256"
        },
        {
          "indexed": false,
          "internalType": "uint256",
          "name": "interestPaid_",
          "type": "uint256"
        },
        {
          "indexed": false,
          "internalType": "uint256",
          "name": "delegateFeePaid_",
          "type": "uint256"
        },
        {
          "indexed": false,
          "internalType": "uint256",
          "name": "treasuryFeePaid_",
          "type": "uint256"
        }
      ],
      "name": "PaymentMade",
      "type": "event"
    },
    {
      "anonymous": false,
      "inputs": [
        {
          "indexed": false,
          "internalType": "address",
          "name": "pendingBorrower_",
          "type": "address"
        }
      ],
      "name": "PendingBorrowerSet",
      "type": "event"
    },
    {
      "anonymous": false,
      "inputs": [
        {
          "indexed": false,
          "internalType": "address",
          "name": "pendingLender_",
          "type": "address"
        }
      ],
      "name": "PendingLenderSet",
      "type": "event"
    },
    {
      "anonymous": false,
      "inputs": [
        {
          "indexed": false,
          "internalType": "uint256",
          "name": "collateralRepossessed_",
          "type": "uint256"
        },
        {
          "indexed": false,
          "internalType": "uint256",
          "name": "fundsRepossessed_",
          "type": "uint256"
        },
        {
          "indexed": true,
          "internalType": "address",
          "name": "destination_",
          "type": "address"
        }
      ],
      "name": "Repossessed",
      "type": "event"
    },
    {
      "anonymous": false,
      "inputs": [
        {
          "indexed": true,
          "internalType": "address",
          "name": "token_",
          "type": "address"
        },
        {
          "indexed": false,
          "internalType": "uint256",
          "name": "amount_",
          "type": "uint256"
        },
        {
          "indexed": true,
          "internalType": "address",
          "name": "destination_",
          "type": "address"
        }
      ],
      "name": "Skimmed",
      "type": "event"
    },
    {
      "anonymous": false,
      "inputs": [
        {
          "indexed": false,
          "internalType": "uint256",
          "name": "toVersion_",
          "type": "uint256"
        },
        {
          "indexed": false,
          "internalType": "bytes",
          "name": "arguments_",
          "type": "bytes"
        }
      ],
      "name": "Upgraded",
      "type": "event"
    },
    {
      "inputs": [],
      "name": "acceptBorrower",
      "outputs": [],
      "stateMutability": "nonpayable",
      "type": "function"
    },
    {
      "inputs": [],
      "name": "acceptLender",
      "outputs": [],
      "stateMutability": "nonpayable",
      "type": "function"
    },
    {
      "inputs": [
        {
          "internalType": "address",
          "name": "refinancer_",
          "type": "address"
        },
        {
          "internalType": "uint256",
          "name": "deadline_",
          "type": "uint256"
        },
        {
          "internalType": "bytes[]",
          "name": "calls_",
          "type": "bytes[]"
        },
        {
          "internalType": "uint256",
          "name": "amount_",
          "type": "uint256"
        }
      ],
      "name": "acceptNewTerms",
      "outputs": [],
      "stateMutability": "nonpayable",
      "type": "function"
    },
    {
      "inputs": [],
      "name": "borrower",
      "outputs": [
        {
          "internalType": "address",
          "name": "borrower_",
          "type": "address"
        }
      ],
      "stateMutability": "view",
      "type": "function"
    },
    {
      "inputs": [
        {
          "internalType": "uint256",
          "name": "amount_",
          "type": "uint256"
        },
        {
          "internalType": "address",
          "name": "destination_",
          "type": "address"
        }
      ],
      "name": "claimFunds",
      "outputs": [],
      "stateMutability": "nonpayable",
      "type": "function"
    },
    {
      "inputs": [],
      "name": "claimableFunds",
      "outputs": [
        {
          "internalType": "uint256",
          "name": "claimableFunds_",
          "type": "uint256"
        }
      ],
      "stateMutability": "view",
      "type": "function"
    },
    {
      "inputs": [
        {
          "internalType": "uint256",
          "name": "amount_",
          "type": "uint256"
        }
      ],
      "name": "closeLoan",
      "outputs": [
        {
          "internalType": "uint256",
          "name": "principal_",
          "type": "uint256"
        },
        {
          "internalType": "uint256",
          "name": "interest_",
          "type": "uint256"
        },
        {
          "internalType": "uint256",
          "name": "delegateFee_",
          "type": "uint256"
        },
        {
          "internalType": "uint256",
          "name": "treasuryFee_",
          "type": "uint256"
        }
      ],
      "stateMutability": "nonpayable",
      "type": "function"
    },
    {
      "inputs": [],
      "name": "collateral",
      "outputs": [
        {
          "internalType": "uint256",
          "name": "collateral_",
          "type": "uint256"
        }
      ],
      "stateMutability": "view",
      "type": "function"
    },
    {
      "inputs": [],
      "name": "collateralAsset",
      "outputs": [
        {
          "internalType": "address",
          "name": "collateralAsset_",
          "type": "address"
        }
      ],
      "stateMutability": "view",
      "type": "function"
    },
    {
      "inputs": [],
      "name": "collateralRequired",
      "outputs": [
        {
          "internalType": "uint256",
          "name": "collateralRequired_",
          "type": "uint256"
        }
      ],
      "stateMutability": "view",
      "type": "function"
    },
    {
      "inputs": [],
      "name": "delegateFee",
      "outputs": [
        {
          "internalType": "uint256",
          "name": "delegateFee_",
          "type": "uint256"
        }
      ],
      "stateMutability": "view",
      "type": "function"
    },
    {
      "inputs": [],
      "name": "drawableFunds",
      "outputs": [
        {
          "internalType": "uint256",
          "name": "drawableFunds_",
          "type": "uint256"
        }
      ],
      "stateMutability": "view",
      "type": "function"
    },
    {
      "inputs": [
        {
          "internalType": "uint256",
          "name": "amount_",
          "type": "uint256"
        },
        {
          "internalType": "address",
          "name": "destination_",
          "type": "address"
        }
      ],
      "name": "drawdownFunds",
      "outputs": [
        {
          "internalType": "uint256",
          "name": "collateralPosted_",
          "type": "uint256"
        }
      ],
      "stateMutability": "nonpayable",
      "type": "function"
    },
    {
      "inputs": [],
      "name": "earlyFeeRate",
      "outputs": [
        {
          "internalType": "uint256",
          "name": "earlyFeeRate_",
          "type": "uint256"
        }
      ],
      "stateMutability": "view",
      "type": "function"
    },
    {
      "inputs": [],
      "name": "endingPrincipal",
      "outputs": [
        {
          "internalType": "uint256",
          "name": "endingPrincipal_",
          "type": "uint256"
        }
      ],
      "stateMutability": "view",
      "type": "function"
    },
    {
      "inputs": [],
      "name": "excessCollateral",
      "outputs": [
        {
          "internalType": "uint256",
          "name": "excessCollateral_",
          "type": "uint256"
        }
      ],
      "stateMutability": "view",
      "type": "function"
    },
    {
      "inputs": [],
      "name": "factory",
      "outputs": [
        {
          "internalType": "address",
          "name": "factory_",
          "type": "address"
        }
      ],
      "stateMutability": "view",
      "type": "function"
    },
    {
      "inputs": [
        {
          "internalType": "address",
          "name": "lender_",
          "type": "address"
        },
        {
          "internalType": "uint256",
          "name": "amount_",
          "type": "uint256"
        }
      ],
      "name": "fundLoan",
      "outputs": [
        {
          "internalType": "uint256",
          "name": "fundsLent_",
          "type": "uint256"
        }
      ],
      "stateMutability": "nonpayable",
      "type": "function"
    },
    {
      "inputs": [],
      "name": "fundsAsset",
      "outputs": [
        {
          "internalType": "address",
          "name": "fundsAsset_",
          "type": "address"
        }
      ],
      "stateMutability": "view",
      "type": "function"
    },
    {
      "inputs": [
        {
          "internalType": "uint256",
          "name": "drawdown_",
          "type": "uint256"
        }
      ],
      "name": "getAdditionalCollateralRequiredFor",
      "outputs": [
        {
          "internalType": "uint256",
          "name": "collateral_",
          "type": "uint256"
        }
      ],
      "stateMutability": "view",
      "type": "function"
    },
    {
      "inputs": [],
      "name": "getEarlyPaymentBreakdown",
      "outputs": [
        {
          "internalType": "uint256",
          "name": "principal_",
          "type": "uint256"
        },
        {
          "internalType": "uint256",
          "name": "interest_",
          "type": "uint256"
        },
        {
          "internalType": "uint256",
          "name": "delegateFee_",
          "type": "uint256"
        },
        {
          "internalType": "uint256",
          "name": "treasuryFee_",
          "type": "uint256"
        }
      ],
      "stateMutability": "view",
      "type": "function"
    },
    {
      "inputs": [],
      "name": "getNextPaymentBreakdown",
      "outputs": [
        {
          "internalType": "uint256",
          "name": "principal_",
          "type": "uint256"
        },
        {
          "internalType": "uint256",
          "name": "interest_",
          "type": "uint256"
        },
        {
          "internalType": "uint256",
          "name": "delegateFee_",
          "type": "uint256"
        },
        {
          "internalType": "uint256",
          "name": "treasuryFee_",
          "type": "uint256"
        }
      ],
      "stateMutability": "view",
      "type": "function"
    },
    {
      "inputs": [
        {
          "internalType": "uint256",
          "name": "timestamp_",
          "type": "uint256"
        }
      ],
      "name": "getRefinanceInterest",
      "outputs": [
        {
          "internalType": "uint256",
          "name": "proRataInterest_",
          "type": "uint256"
        }
      ],
      "stateMutability": "view",
      "type": "function"
    },
    {
      "inputs": [],
      "name": "gracePeriod",
      "outputs": [
        {
          "internalType": "uint256",
          "name": "gracePeriod_",
          "type": "uint256"
        }
      ],
      "stateMutability": "view",
      "type": "function"
    },
    {
      "inputs": [],
      "name": "implementation",
      "outputs": [
        {
          "internalType": "address",
          "name": "implementation_",
          "type": "address"
        }
      ],
      "stateMutability": "view",
      "type": "function"
    },
    {
      "inputs": [],
      "name": "interestRate",
      "outputs": [
        {
          "internalType": "uint256",
          "name": "interestRate_",
          "type": "uint256"
        }
      ],
      "stateMutability": "view",
      "type": "function"
    },
    {
      "inputs": [],
      "name": "isProtocolPaused",
      "outputs": [
        {
          "internalType": "bool",
          "name": "paused_",
          "type": "bool"
        }
      ],
      "stateMutability": "view",
      "type": "function"
    },
    {
      "inputs": [],
      "name": "lateFeeRate",
      "outputs": [
        {
          "internalType": "uint256",
          "name": "lateFeeRate_",
          "type": "uint256"
        }
      ],
      "stateMutability": "view",
      "type": "function"
    },
    {
      "inputs": [],
      "name": "lateInterestPremium",
      "outputs": [
        {
          "internalType": "uint256",
          "name": "lateInterestPremium_",
          "type": "uint256"
        }
      ],
      "stateMutability": "view",
      "type": "function"
    },
    {
      "inputs": [],
      "name": "lender",
      "outputs": [
        {
          "internalType": "address",
          "name": "lender_",
          "type": "address"
        }
      ],
      "stateMutability": "view",
      "type": "function"
    },
    {
      "inputs": [
        {
          "internalType": "uint256",
          "name": "amount_",
          "type": "uint256"
        }
      ],
      "name": "makePayment",
      "outputs": [
        {
          "internalType": "uint256",
          "name": "principal_",
          "type": "uint256"
        },
        {
          "internalType": "uint256",
          "name": "interest_",
          "type": "uint256"
        },
        {
          "internalType": "uint256",
          "name": "delegateFee_",
          "type": "uint256"
        },
        {
          "internalType": "uint256",
          "name": "treasuryFee_",
          "type": "uint256"
        }
      ],
      "stateMutability": "nonpayable",
      "type": "function"
    },
    {
      "inputs": [
        {
          "internalType": "address",
          "name": "migrator_",
          "type": "address"
        },
        {
          "internalType": "bytes",
          "name": "arguments_",
          "type": "bytes"
        }
      ],
      "name": "migrate",
      "outputs": [],
      "stateMutability": "nonpayable",
      "type": "function"
    },
    {
      "inputs": [],
      "name": "nextPaymentDueDate",
      "outputs": [
        {
          "internalType": "uint256",
          "name": "nextPaymentDueDate_",
          "type": "uint256"
        }
      ],
      "stateMutability": "view",
      "type": "function"
    },
    {
      "inputs": [],
      "name": "paymentInterval",
      "outputs": [
        {
          "internalType": "uint256",
          "name": "paymentInterval_",
          "type": "uint256"
        }
      ],
      "stateMutability": "view",
      "type": "function"
    },
    {
      "inputs": [],
      "name": "paymentsRemaining",
      "outputs": [
        {
          "internalType": "uint256",
          "name": "paymentsRemaining_",
          "type": "uint256"
        }
      ],
      "stateMutability": "view",
      "type": "function"
    },
    {
      "inputs": [],
      "name": "pendingBorrower",
      "outputs": [
        {
          "internalType": "address",
          "name": "pendingBorrower_",
          "type": "address"
        }
      ],
      "stateMutability": "view",
      "type": "function"
    },
    {
      "inputs": [],
      "name": "pendingLender",
      "outputs": [
        {
          "internalType": "address",
          "name": "pendingLender_",
          "type": "address"
        }
      ],
      "stateMutability": "view",
      "type": "function"
    },
    {
      "inputs": [
        {
          "internalType": "uint256",
          "name": "amount_",
          "type": "uint256"
        }
      ],
      "name": "postCollateral",
      "outputs": [
        {
          "internalType": "uint256",
          "name": "collateralPosted_",
          "type": "uint256"
        }
      ],
      "stateMutability": "nonpayable",
      "type": "function"
    },
    {
      "inputs": [],
      "name": "principal",
      "outputs": [
        {
          "internalType": "uint256",
          "name": "principal_",
          "type": "uint256"
        }
      ],
      "stateMutability": "view",
      "type": "function"
    },
    {
      "inputs": [],
      "name": "principalRequested",
      "outputs": [
        {
          "internalType": "uint256",
          "name": "principalRequested_",
          "type": "uint256"
        }
      ],
      "stateMutability": "view",
      "type": "function"
    },
    {
      "inputs": [
        {
          "internalType": "address",
          "name": "refinancer_",
          "type": "address"
        },
        {
          "internalType": "uint256",
          "name": "deadline_",
          "type": "uint256"
        },
        {
          "internalType": "bytes[]",
          "name": "calls_",
          "type": "bytes[]"
        }
      ],
      "name": "proposeNewTerms",
      "outputs": [],
      "stateMutability": "nonpayable",
      "type": "function"
    },
    {
      "inputs": [],
      "name": "refinanceCommitment",
      "outputs": [
        {
          "internalType": "bytes32",
          "name": "refinanceCommitment_",
          "type": "bytes32"
        }
      ],
      "stateMutability": "view",
      "type": "function"
    },
    {
      "inputs": [],
      "name": "refinanceInterest",
      "outputs": [
        {
          "internalType": "uint256",
          "name": "refinanceInterest_",
          "type": "uint256"
        }
      ],
      "stateMutability": "view",
      "type": "function"
    },
    {
      "inputs": [
        {
          "internalType": "address",
          "name": "refinancer_",
          "type": "address"
        },
        {
          "internalType": "uint256",
          "name": "deadline_",
          "type": "uint256"
        },
        {
          "internalType": "bytes[]",
          "name": "calls_",
          "type": "bytes[]"
        }
      ],
      "name": "rejectNewTerms",
      "outputs": [],
      "stateMutability": "nonpayable",
      "type": "function"
    },
    {
      "inputs": [
        {
          "internalType": "uint256",
          "name": "amount_",
          "type": "uint256"
        },
        {
          "internalType": "address",
          "name": "destination_",
          "type": "address"
        }
      ],
      "name": "removeCollateral",
      "outputs": [],
      "stateMutability": "nonpayable",
      "type": "function"
    },
    {
      "inputs": [
        {
          "internalType": "address",
          "name": "destination_",
          "type": "address"
        }
      ],
      "name": "repossess",
      "outputs": [
        {
          "internalType": "uint256",
          "name": "collateralRepossessed_",
          "type": "uint256"
        },
        {
          "internalType": "uint256",
          "name": "fundsRepossessed_",
          "type": "uint256"
        }
      ],
      "stateMutability": "nonpayable",
      "type": "function"
    },
    {
      "inputs": [
        {
          "internalType": "uint256",
          "name": "amount_",
          "type": "uint256"
        }
      ],
      "name": "returnFunds",
      "outputs": [
        {
          "internalType": "uint256",
          "name": "fundsReturned_",
          "type": "uint256"
        }
      ],
      "stateMutability": "nonpayable",
      "type": "function"
    },
    {
      "inputs": [
        {
          "internalType": "address",
          "name": "newImplementation_",
          "type": "address"
        }
      ],
      "name": "setImplementation",
      "outputs": [],
      "stateMutability": "nonpayable",
      "type": "function"
    },
    {
      "inputs": [
        {
          "internalType": "address",
          "name": "pendingBorrower_",
          "type": "address"
        }
      ],
      "name": "setPendingBorrower",
      "outputs": [],
      "stateMutability": "nonpayable",
      "type": "function"
    },
    {
      "inputs": [
        {
          "internalType": "address",
          "name": "pendingLender_",
          "type": "address"
        }
      ],
      "name": "setPendingLender",
      "outputs": [],
      "stateMutability": "nonpayable",
      "type": "function"
    },
    {
      "inputs": [
        {
          "internalType": "address",
          "name": "token_",
          "type": "address"
        },
        {
          "internalType": "address",
          "name": "destination_",
          "type": "address"
        }
      ],
      "name": "skim",
      "outputs": [
        {
          "internalType": "uint256",
          "name": "skimmed_",
          "type": "uint256"
        }
      ],
      "stateMutability": "nonpayable",
      "type": "function"
    },
    {
      "inputs": [],
      "name": "superFactory",
      "outputs": [
        {
          "internalType": "address",
          "name": "superFactory_",
          "type": "address"
        }
      ],
      "stateMutability": "view",
      "type": "function"
    },
    {
      "inputs": [],
      "name": "treasuryFee",
      "outputs": [
        {
          "internalType": "uint256",
          "name": "treasuryFee_",
          "type": "uint256"
        }
      ],
      "stateMutability": "view",
      "type": "function"
    },
    {
      "inputs": [
        {
          "internalType": "uint256",
          "name": "toVersion_",
          "type": "uint256"
        },
        {
          "internalType": "bytes",
          "name": "arguments_",
          "type": "bytes"
        }
      ],
      "name": "upgrade",
      "outputs": [],
      "stateMutability": "nonpayable",
      "type": "function"
    }
  ],
  "bytecode": {
    "object": "0x608060405234801561001057600080fd5b50613720806100206000396000f3fe608060405234801561001057600080fd5b50600436106103425760003560e01c80637c3a00fd116101b8578063ba5d307811610104578063d05951a0116100a2578063d8dfeb451161007c578063d8dfeb4514610634578063dac885611461063c578063e44b387514610654578063e920b1e11461065c57600080fd5b8063d05951a0146105fb578063d41ddc961461060e578063d784d4261461062157600080fd5b8063c3fbb6fd116100de578063c3fbb6fd146105cd578063c45a015514610368578063cc32d176146105e0578063ccc04484146105e857600080fd5b8063ba5d3078146105ac578063ba83276b146105b4578063bcead63e146105bc57600080fd5b8063a97d116111610171578063b69410de1161014b578063b69410de1461058c578063b86a513e14610594578063b96b5c991461059c578063b9b1f4e3146105a457600080fd5b8063a97d116114610560578063aabaecd614610568578063acb522b41461057957600080fd5b80637c3a00fd146105115780637df1f1b91461051957806387accaf11461052a5780638ffc92151461053d5780639e10320b14610545578063a06db7dc1461055857600080fd5b806345755dd6116102925780635eeb53b411610230578063712b772f1161020a578063712b772f146104e657806375a20676146104f957806377b3c55c146105015780637a0e6fa11461050957600080fd5b80635eeb53b4146104bc57806369458ba7146104cd578063700f5006146104d557600080fd5b806350acb4ee1161026c57806350acb4ee1461045b57806350f2012f1461046e5780635114cb52146104815780635c60da1b146104b457600080fd5b806345755dd61461040d57806347350e9f146104205780634eac42351461044857600080fd5b8063267f4ac3116102ff578063390d6855116102d9578063390d6855146103ce57806339ba9f86146103e15780633b99bcee146103f25780634003f34d1461040557600080fd5b8063267f4ac3146103ab5780632ead1098146103be57806330fea1ce146103c657600080fd5b806301daa38f146103475780630895326f146103515780630d49b38c146103685780630fe3d9b7146103885780631cc1cf46146103905780631f3f19ab14610398575b600080fd5b61034f61066f565b005b6013545b6040519081526020015b60405180910390f35b610370610715565b6040516001600160a01b03909116815260200161035f565b61034f610724565b600754610355565b61034f6103a63660046131f1565b6107c7565b61034f6103b93660046131f1565b61086c565b600b54610355565b600954610355565b61034f6103dc3660046133f9565b610908565b6005546001600160a01b0316610370565b61034f61040036600461341e565b6109cb565b601254610355565b61035561041b3660046133c7565b610ac2565b61043361042e3660046131f1565b610b97565b6040805192835260208301919091520161035f565b6103556104563660046133c7565b610c63565b61034f610469366004613341565b610cab565b61035561047c3660046133c7565b610ecb565b61049461048f3660046133c7565b610f87565b60408051948552602085019390935291830152606082015260800161035f565b6103706110cc565b6003546001600160a01b0316610370565b6104946110d6565b6002546001600160a01b0316610370565b6103556104f436600461322b565b6110f2565b600c54610355565b600a54610355565b6103556112e9565b600854610355565b6000546001600160a01b0316610370565b61034f6105383660046132e5565b611325565b600d54610355565b6103556105533660046133c7565b61143a565b600654610355565b601654610355565b6004546001600160a01b0316610370565b61034f6105873660046132e5565b611464565b601754610355565b600e54610355565b610494611515565b600f54610355565b601454610355565b601554610355565b6001546001600160a01b0316610370565b61034f6105db366004613264565b611523565b601854610355565b6103556105f63660046133f9565b6115c8565b6104946106093660046133c7565b6116d7565b61034f61061c3660046133f9565b611810565b61034f61062f3660046131f1565b6118d1565b601154610355565b61064461195d565b604051901515815260200161035f565b601054610355565b61035561066a3660046132b9565b611a47565b6002546001600160a01b031633146106ce5760405162461bcd60e51b815260206004820152601a60248201527f4d4c3a41423a4e4f545f50454e44494e475f424f52524f57455200000000000060448201526064015b60405180910390fd5b600280546001600160a01b031990811690915560008054339216821781556040517f29bac0ac2b15405bfcc160bb74b6ae7a559b7674ce33db80785ada73e38204d29190a2565b600061071f611bef565b905090565b6003546001600160a01b0316331461077e5760405162461bcd60e51b815260206004820152601860248201527f4d4c3a414c3a4e4f545f50454e44494e475f4c454e444552000000000000000060448201526064016106c5565b600380546001600160a01b031990811690915560018054339216821790556040517fd6165838d2e3db87aa1002b548048673fc6427eefbd1b914e100f3a0deae23e390600090a2565b6000546001600160a01b031633146108175760405162461bcd60e51b815260206004820152601360248201527226a61d29a8211d2727aa2fa127a92927aba2a960691b60448201526064016106c5565b600280546001600160a01b0319166001600160a01b0383169081179091556040519081527f10f06072822ef73860fedb88933f968d20bb4aadce8a8d360d1124cb6ce1e0b2906020015b60405180910390a150565b6001546001600160a01b031633146108ba5760405162461bcd60e51b815260206004820152601160248201527026a61d29a8261d2727aa2fa622a72222a960791b60448201526064016106c5565b600380546001600160a01b0319166001600160a01b0383169081179091556040519081527fa3ab02442c80a4102475683f16513c9139a89142be9db9804edfcfbb379fc49290602001610861565b61091061195d565b1561092d5760405162461bcd60e51b81526004016106c5906135ac565b6001546001600160a01b0316331461097a5760405162461bcd60e51b815260206004820152601060248201526f26a61d21a31d2727aa2fa622a72222a960811b60448201526064016106c5565b806001600160a01b03167f6bd56533ce1c8ea03f7b858ac441b5a86d140a793a7c9e3faecbbe517c2c8791836040516109b591815260200190565b60405180910390a26109c78282611c1e565b5050565b6000546001600160a01b03163314610a195760405162461bcd60e51b815260206004820152601160248201527026a61d2a9d2727aa2fa127a92927aba2a960791b60448201526064016106c5565b7faaaa7ee6b0c2f4ee1fa7312c7d5b3623a434da5a1a9ce3cb6e629caa23454ab6838383604051610a4c939291906135d8565b60405180910390a1610a5c611bef565b6001600160a01b031663fe69f7088484846040518463ffffffff1660e01b8152600401610a8b939291906135d8565b600060405180830381600087803b158015610aa557600080fd5b505af1158015610ab9573d6000803e3d6000fd5b50505050505050565b6000610acc61195d565b15610ae95760405162461bcd60e51b81526004016106c5906135ac565b811580610b095750600554610b09906001600160a01b0316333085611c91565b610b555760405162461bcd60e51b815260206004820152601a60248201527f4d4c3a52463a5452414e534645525f46524f4d5f4641494c454400000000000060448201526064016106c5565b7f278e51d3323fbf18b9fb8df3f8b97e31b145bc1146c52e764cf4aa1bfc4ba17d610b7e611d08565b60405181815290925060200160405180910390a1919050565b600080610ba261195d565b15610bbf5760405162461bcd60e51b81526004016106c5906135ac565b6001546001600160a01b03163314610c0b5760405162461bcd60e51b815260206004820152600f60248201526e26a61d291d2727aa2fa622a72222a960891b60448201526064016106c5565b610c1483611d3e565b60408051838152602081018390529294509092506001600160a01b038516917f027e623aab0b174da270ff529cad1c54f09182651e07437d2ac557929b9e5b49910160405180910390a2915091565b600080610c8560145484600f54610c7a9190613692565b600d54600c54611eb3565b601154909150808211610c99576000610ca3565b610ca38183613692565b949350505050565b610cb361195d565b15610cd05760405162461bcd60e51b81526004016106c5906135ac565b6001546001600160a01b0316338114610d1f5760405162461bcd60e51b815260206004820152601160248201527026a61d20a72a1d2727aa2fa622a72222a960791b60448201526064016106c5565b6005546001600160a01b0316821580610d3f5750610d3f81333086611c91565b610d8b5760405162461bcd60e51b815260206004820152601b60248201527f4d4c3a414e543a5452414e534645525f46524f4d5f4641494c4544000000000060448201526064016106c5565b7f7150c332bd889236b6ab42cc34f0853631ceb58827f58a8697b682f13e390a8c610db888888888611eec565b88888888604051610dcd95949392919061357e565b60405180910390a17ffe9a32948c4b8ec5c8a8eddeacd3f3621458e8bde95b725b625e5c8f4f2cb54d601754601854604051610e13929190918252602082015260400190565b60405180910390a16000610e26826121eb565b90508015610ec157826001600160a01b03167ff505854d1244de20a434e0eca67ec8de6d69504f7f85594c61102ab4d9a278f382604051610e6991815260200190565b60405180910390a2610e7c8284836122c5565b610ec15760405162461bcd60e51b815260206004820152601660248201527513530e9053950e9514905394d1915497d1905253115160521b60448201526064016106c5565b5050505050505050565b6000610ed561195d565b15610ef25760405162461bcd60e51b81526004016106c5906135ac565b811580610f125750600454610f12906001600160a01b0316333085611c91565b610f5e5760405162461bcd60e51b815260206004820152601a60248201527f4d4c3a50433a5452414e534645525f46524f4d5f4641494c454400000000000060448201526064016106c5565b7f437d44b2c697fb69e2b2f25f57fd844e376c25ed28ed5a9c4be88aa1e5c87d12610b7e612302565b6000806000806000600f5490506000861480610fb65750600554610fb6906001600160a01b0316333089611c91565b6110025760405162461bcd60e51b815260206004820152601a60248201527f4d4c3a4d503a5452414e534645525f46524f4d5f4641494c454400000000000060448201526064016106c5565b61100a61232e565b600054939850919650945092506001600160a01b031633148061102f575080600f5410155b61107b5760405162461bcd60e51b815260206004820152601960248201527f4d4c3a4d503a43414e4e4f545f5553455f4452415741424c450000000000000060448201526064016106c5565b6040805186815260208101869052908101849052606081018390527f95c4acf903eb698cf367efaaf79a8a58fb4554fcd8503b62af9f9c1b68b59e1e906080015b60405180910390a1509193509193565b600061071f612425565b6000806000806110e461244f565b929791965094509092509050565b60006110fc61195d565b156111195760405162461bcd60e51b81526004016106c5906135ac565b6000546001600160a01b031633148061113c57506001546001600160a01b031633145b6111765760405162461bcd60e51b815260206004820152600b60248201526a09874a6749c9ebe82aaa8960ab1b60448201526064016106c5565b6005546001600160a01b038481169116148015906111a257506004546001600160a01b03848116911614155b6111e25760405162461bcd60e51b8152602060048201526011602482015270261d299d24a72b20a624a22faa27a5a2a760791b60448201526064016106c5565b6040516370a0823160e01b81523060048201526001600160a01b0380841691908516907ff1f6a55e7ad487ac8dd8e1d4517348d3b410a7a0bc405ef87b09078dc51b23b69082906370a082319060240160206040518083038186803b15801561124a57600080fd5b505afa15801561125e573d6000803e3d6000fd5b505050506040513d601f19601f8201168201806040525081019061128291906133e0565b60405181815290945060200160405180910390a36112a18383836122c5565b6112e35760405162461bcd60e51b8152602060048201526013602482015272130e94ce9514905394d1915497d19052531151606a1b60448201526064016106c5565b92915050565b600080611300601454600f54600d54600c54611eb3565b60115490915081811161131457600061131e565b61131e8282613692565b9250505090565b61132d61195d565b1561134a5760405162461bcd60e51b81526004016106c5906135ac565b6000546001600160a01b0316331461139a5760405162461bcd60e51b815260206004820152601360248201527226a61d28272a1d2727aa2fa127a92927aba2a960691b60448201526064016106c5565b428310156113ea5760405162461bcd60e51b815260206004820152601760248201527f4d4c3a504e543a494e56414c49445f444541444c494e4500000000000000000060448201526064016106c5565b7ff94d2f0322894aaf1bce14561461a8b8b6c9b11a77bbe80f20b804da8a95e4b7611417858585856124b6565b8585858560405161142c95949392919061357e565b60405180910390a150505050565b600061145d82600754601454600e54600854601354601254600a54600b546124de565b5092915050565b61146c61195d565b156114895760405162461bcd60e51b81526004016106c5906135ac565b6000546001600160a01b03163314806114ac57506001546001600160a01b031633145b6114e85760405162461bcd60e51b815260206004820152600d60248201526c09874a49ca8749c9ebe82aaa89609b1b60448201526064016106c5565b7f47244a449377da5fd10e98d86d118dee442e842fc34f05179c973cfcff6acba76114178585858561254d565b6000806000806110e46125bb565b61152b611bef565b6001600160a01b0316336001600160a01b03161461157e5760405162461bcd60e51b815260206004820152601060248201526f4d4c3a4d3a4e4f545f464143544f525960801b60448201526064016106c5565b611589838383612606565b6115c35760405162461bcd60e51b815260206004820152600b60248201526a13530e934e91905253115160aa1b60448201526064016106c5565b505050565b60006115d261195d565b156115ef5760405162461bcd60e51b81526004016106c5906135ac565b6000546001600160a01b0316331461163e5760405162461bcd60e51b815260206004820152601260248201527126a61d22231d2727aa2fa127a92927aba2a960711b60448201526064016106c5565b816001600160a01b03167f7578fe8c4d9f6fc38fdad20d219b0ce47d38bbf8a72bdb26867809f24119363d8460405161167991815260200190565b60405180910390a2600061168c84610c63565b905080156116cd576004546000906116ac906001600160a01b03166121eb565b90506116c98183116116bf576000610ecb565b61047c8284613692565b9250505b61145d848461267f565b6000806000806000600f54905060008614806117065750600554611706906001600160a01b0316333089611c91565b6117525760405162461bcd60e51b815260206004820152601a60248201527f4d4c3a434c3a5452414e534645525f46524f4d5f4641494c454400000000000060448201526064016106c5565b61175a612746565b600054939850919650945092506001600160a01b031633148061177f575080600f5410155b6117cb5760405162461bcd60e51b815260206004820152601960248201527f4d4c3a434c3a43414e4e4f545f5553455f4452415741424c450000000000000060448201526064016106c5565b6040805186815260208101869052908101849052606081018390527f6d5b31efac20a15ed5b9e27e38cf9ebcc3ffb6d64feb827a35ef84a607e8dfaf906080016110bc565b61181861195d565b156118355760405162461bcd60e51b81526004016106c5906135ac565b6000546001600160a01b031633146118845760405162461bcd60e51b815260206004820152601260248201527126a61d29219d2727aa2fa127a92927aba2a960711b60448201526064016106c5565b806001600160a01b03167f97b446ee2df422b7273fe6d658674835f9de3319d131c229f9a2f8ed62a76193836040516118bf91815260200190565b60405180910390a26109c78282612834565b6118d9611bef565b6001600160a01b0316336001600160a01b03161461192d5760405162461bcd60e51b81526020600482015260116024820152704d4c3a53493a4e4f545f464143544f525960781b60448201526064016106c5565b6001600160a01b03167f360894a13ba1a3210667c828492db98dca3e2076cc3735a920a3ca505d382bbc55565b50565b6000611967611bef565b6001600160a01b0316633a60339a6040518163ffffffff1660e01b815260040160206040518083038186803b15801561199f57600080fd5b505afa1580156119b3573d6000803e3d6000fd5b505050506040513d601f19601f820116820180604052508101906119d7919061320e565b6001600160a01b031663425fad586040518163ffffffff1660e01b815260040160206040518083038186803b158015611a0f57600080fd5b505afa158015611a23573d6000803e3d6000fd5b505050506040513d601f19601f8201168201806040525081019061071f91906133a5565b6000611a5161195d565b15611a6e5760405162461bcd60e51b81526004016106c5906135ac565b6005546001600160a01b0316821580611a8e5750611a8e81333086611c91565b611ada5760405162461bcd60e51b815260206004820152601a60248201527f4d4c3a464c3a5452414e534645525f46524f4d5f4641494c454400000000000060448201526064016106c5565b601254611b3457836001600160a01b03167fcd909ec339185c4598a4096e174308fbdf136d117f230960f873a2f2e81f63af611b15866128fb565b6012546040805183815260208101929092529195500160405180910390a25b6000611b3f826121eb565b6001549091506001600160a01b03168115611be657806001600160a01b03167ff505854d1244de20a434e0eca67ec8de6d69504f7f85594c61102ab4d9a278f383604051611b8f91815260200190565b60405180910390a2611ba28382846122c5565b611be65760405162461bcd60e51b815260206004820152601560248201527413530e91930e9514905394d1915497d19052531151605a1b60448201526064016106c5565b50505092915050565b6000611c197f7a45a402e4cb6e08ebc196f20f66d5d30e67285a2a8aa80503fa409e727a4af15490565b919050565b8160106000828254611c309190613692565b9091555050600554611c4c906001600160a01b031682846122c5565b6109c75760405162461bcd60e51b81526020600482015260166024820152751353124e90d18e9514905394d1915497d1905253115160521b60448201526064016106c5565b6040516001600160a01b0380851660248301528316604482015260648101829052600090611cff9086906323b872dd60e01b906084015b60408051601f198184030181529190526020810180516001600160e01b03166001600160e01b031990931692909217909152612a45565b95945050505050565b600554600090611d20906001600160a01b03166121eb565b905080600f6000828254611d349190613639565b9250508190555090565b60125460009081908015801590611d605750600654611d5d9082613639565b42115b611da35760405162461bcd60e51b81526020600482015260146024820152731353124e948e9393d517d25397d111519055531560621b60448201526064016106c5565b611dab612ae5565b600060118190556010819055600f8190556004546001600160a01b031690611dd2826121eb565b9450841480611de75750611de78186866122c5565b611e335760405162461bcd60e51b815260206004820152601760248201527f4d4c493a523a435f5452414e534645525f4641494c454400000000000000000060448201526064016106c5565b6005546001600160a01b03166000611e4a826121eb565b9450841480611e5f5750611e5f8187866122c5565b611eab5760405162461bcd60e51b815260206004820152601760248201527f4d4c493a523a465f5452414e534645525f4641494c454400000000000000000060448201526064016106c5565b505050915091565b600083851115611ee15782611ec88587613692565b611ed29084613673565b611edc9190613651565b611cff565b506000949350505050565b6000611efa85858585612b23565b90508060155414611f4d5760405162461bcd60e51b815260206004820152601b60248201527f4d4c493a414e543a434f4d4d49544d454e545f4d49534d41544348000000000060448201526064016106c5565b6001600160a01b0385163b611fa45760405162461bcd60e51b815260206004820152601a60248201527f4d4c493a414e543a494e56414c49445f524546494e414e43455200000000000060448201526064016106c5565b83421115611ff45760405162461bcd60e51b815260206004820152601a60248201527f4d4c493a414e543a455850495245445f434f4d4d49544d454e5400000000000060448201526064016106c5565b6000600754905060008061201d4284601454600e54600854601354601254600a54600b546124de565b9150915081601660008282546120339190613639565b90915550506000601581905585905b818110156121135760008a6001600160a01b0316898984818110612068576120686136bf565b905060200281019061207a91906135f2565b60405161208892919061350b565b600060405180830381855af49150503d80600081146120c3576040519150601f19603f3d011682016040523d82523d6000602084013e6120c8565b606091505b505090508061210a5760405162461bcd60e51b815260206004820152600e60248201526d1353124e9053950e91905253115160921b60448201526064016106c5565b50600101612042565b506000601354856121249190613673565b836017546121329190613673565b61213c9190613651565b905060006013548661214e9190613673565b8460185461215c9190613673565b6121669190613651565b6007549091506121768142613639565b60125560145461218890828585612b5c565b612190612cba565b6121dc5760405162461bcd60e51b815260206004820152601f60248201527f4d4c493a414e543a494e53554646494349454e545f434f4c4c41544552414c0060448201526064016106c5565b50505050505050949350505050565b6005546000906001600160a01b0383811691161461220a57600061221a565b600f5460105461221a9190613639565b6004546001600160a01b0384811691161461223657600061223a565b6011545b6040516370a0823160e01b81523060048201526001600160a01b038516906370a082319060240160206040518083038186803b15801561227957600080fd5b505afa15801561228d573d6000803e3d6000fd5b505050506040513d601f19601f820116820180604052508101906122b191906133e0565b6122bb9190613692565b6112e39190613692565b6040516001600160a01b0383166024820152604481018290526000906122f890859063a9059cbb60e01b90606401611cc8565b90505b9392505050565b60045460009061231a906001600160a01b03166121eb565b90508060116000828254611d349190613639565b60008060008061233c6125bb565b60006016819055939750919550935091506123578486613639565b9050816123648483613639565b61236e9190613639565b600554612383906001600160a01b03166121eb565b600f546123909190613639565b61239a9190613692565b600f8190555080601060008282546123b29190613639565b909155506123c290508383612cda565b60135460018114156123db576123d6612ae5565b61241d565b600754601260008282546123ef9190613639565b9250508190555085601460008282546124089190613692565b909155506124199050600182613692565b6013555b505090919293565b6000611c197f360894a13ba1a3210667c828492db98dca3e2076cc3735a920a3ca505d382bbc5490565b600080600080601654670de0b6b3a76400006009546014549650866124749190613673565b61247e9190613651565b6124889190613639565b6013546017549194509061249d908290613673565b9250806018546124ad9190613673565b91505090919293565b6000816124c45760006124d0565b6124d085858585612b23565b601581905595945050505050565b600080846124ec8b8d613639565b10156124fd5750600090508061253f565b6125078a86613692565b612511908c613692565b9050612520898989848a612d4c565b925061253290508b8a89888888612e3f565b61253c9083613639565b91505b995099975050505050505050565b600061255b85858585612b23565b905080601554146125ae5760405162461bcd60e51b815260206004820152601b60248201527f4d4c493a524e543a434f4d4d49544d454e545f4d49534d41544348000000000060448201526064016106c5565b6000601555949350505050565b6000806000806125e242601254600754601454600e54601354600854600a54600b54612ee5565b60165491955093506125f49084613639565b92506017549150601854905090919293565b6000833b806126195760009150506122fb565b846001600160a01b0316848460405161263392919061350b565b600060405180830381855af49150503d806000811461266e576040519150601f19603f3d011682016040523d82523d6000602084013e612673565b606091505b50909695505050505050565b81600f60008282546126919190613692565b90915550506005546126ad906001600160a01b031682846122c5565b6126f25760405162461bcd60e51b81526020600482015260166024820152751353124e91118e9514905394d1915497d1905253115160521b60448201526064016106c5565b6126fa612cba565b6109c75760405162461bcd60e51b815260206004820152601e60248201527f4d4c493a44463a494e53554646494349454e545f434f4c4c41544552414c000060448201526064016106c5565b6000806000806012544211156127975760405162461bcd60e51b81526020600482015260166024820152754d4c493a434c3a5041594d454e545f49535f4c41544560501b60448201526064016106c5565b61279f61244f565b60006016819055939750919550935091506127ba8486613639565b9050816127c78483613639565b6127d19190613639565b6005546127e6906001600160a01b03166121eb565b600f546127f39190613639565b6127fd9190613692565b600f8190555080601060008282546128159190613639565b9091555061282590508383612cda565b61282d612ae5565b5090919293565b81601160008282546128469190613692565b9091555050600454612862906001600160a01b031682846122c5565b6128a75760405162461bcd60e51b81526020600482015260166024820152751353124e9490ce9514905394d1915497d1905253115160521b60448201526064016106c5565b6128af612cba565b6109c75760405162461bcd60e51b815260206004820152601e60248201527f4d4c493a52433a494e53554646494349454e545f434f4c4c41544552414c000060448201526064016106c5565b60006001600160a01b03821661294b5760405162461bcd60e51b815260206004820152601560248201527426a6249d23261d24a72b20a624a22fa622a72222a960591b60448201526064016106c5565b60135460125415801561295d57508015155b61299e5760405162461bcd60e51b81526020600482015260126024820152714d4c493a464c3a4c4f414e5f41435449564560701b60448201526064016106c5565b600754600180546001600160a01b0319166001600160a01b0386161790556129c68142613639565b601255600d5460148190556005549093506001600160a01b0316836129ea826121eb565b1015612a385760405162461bcd60e51b815260206004820152601860248201527f4d4c493a464c3a57524f4e475f46554e445f414d4f554e54000000000000000060448201526064016106c5565b505050600f819055919050565b60006001600160a01b0383163b612a5e575060006112e3565b6060836001600160a01b031683604051612a78919061351b565b6000604051808303816000865af19150503d8060008114612ab5576040519150601f19603f3d011682016040523d82523d6000602084013e612aba565b606091505b509092509050818015610ca3575080511580610ca3575080806020019051810190610ca391906133a5565b60006006819055600781905560088190556009819055600a819055600b819055600e8190556012819055601381905560148190556017819055601855565b600084848484604051602001612b3c9493929190613556565b604051602081830303815290604052805190602001209050949350505050565b6000612b66612f34565b90508264496cebb80085836001600160a01b03166316a12d7a6040518163ffffffff1660e01b815260040160206040518083038186803b158015612ba957600080fd5b505afa158015612bbd573d6000803e3d6000fd5b505050506040513d601f19601f82011682018060405250810190612be191906133e0565b612beb9089613673565b612bf59190613673565b612bff9190613651565b612c099190613639565b6017819055508164496cebb80085836001600160a01b031663cc32d1766040518163ffffffff1660e01b815260040160206040518083038186803b158015612c5057600080fd5b505afa158015612c64573d6000803e3d6000fd5b505050506040513d601f19601f82011682018060405250810190612c8891906133e0565b612c929089613673565b612c9c9190613673565b612ca69190613651565b612cb09190613639565b6018555050505050565b6000612cd0601454600f54600d54600c54611eb3565b6011541015905090565b600154612cf8906001600160a01b0316634046af2b60e01b84612fae565b612d14578160106000828254612d0e9190613639565b90915550505b612d2d612d1f612f34565b63a5a2760560e01b83612fae565b6109c7578060106000828254612d439190613639565b90915550505050565b6000806000612d5b86866130bd565b90506000612d83612d7483670de0b6b3a7640000613639565b86670de0b6b3a76400006130d8565b9050670de0b6b3a76400008111612db65784612d9f898b613692565b612da99190613651565b6000935093505050612e35565b6000612dca670de0b6b3a764000083613692565b838a670de0b6b3a7640000612ddf868f613673565b612de99190613651565b612df39190613692565b612dfd9190613673565b612e079190613651565b9050612e148a898961313a565b935083811015612e25576000612e2f565b612e2f8482613692565b94505050505b9550959350505050565b6000838711612e5057506000612edb565b6000620151806001612e62878b613692565b612e6c9190613692565b612e769190613651565b612e81906001613639565b612e8e9062015180613673565b9050612ea487612e9e8589613639565b8361313a565b612eae9083613639565b9150670de0b6b3a7640000612ec38886613673565b612ecd9190613651565b612ed79083613639565b9150505b9695505050505050565b600080612ef58888878c8a612d4c565b909250905060018614612f085781612f0a565b875b9150612f1a8b89878d8888612e3f565b612f249082613639565b9050995099975050505050505050565b6000612f3e611bef565b6001600160a01b0316633a60339a6040518163ffffffff1660e01b815260040160206040518083038186803b158015612f7657600080fd5b505afa158015612f8a573d6000803e3d6000fd5b505050506040513d601f19601f8201168201806040525081019061071f919061320e565b600081612fbd575060016122fb565b60408051600481526024810182526020810180516001600160e01b03166001600160e01b03198716179052905160009182916001600160a01b038816916130039161351b565b6000604051808303816000865af19150503d8060008114613040576040519150601f19603f3d011682016040523d82523d6000602084013e613045565b606091505b509150915081158061305957506020815114155b15613069576000925050506122fb565b60008180602001905181019061307f919061320e565b90506001600160a01b03811661309b57600093505050506122fb565b6005546130b2906001600160a01b031682876122c5565b979650505050505050565b60006301e133806130ce8385613673565b6122fb9190613651565b6000600183166130e857816130ea565b835b90505b60019290921c9182156122fb57816131058580613673565b61310f9190613651565b93506001831661311e576130ed565b816131298583613673565b6131339190613651565b90506130ed565b6000670de0b6b3a764000061314f84846130bd565b6131599086613673565b6122f89190613651565b60008083601f84011261317557600080fd5b50813567ffffffffffffffff81111561318d57600080fd5b6020830191508360208260051b85010111156131a857600080fd5b9250929050565b60008083601f8401126131c157600080fd5b50813567ffffffffffffffff8111156131d957600080fd5b6020830191508360208285010111156131a857600080fd5b60006020828403121561320357600080fd5b81356122fb816136d5565b60006020828403121561322057600080fd5b81516122fb816136d5565b6000806040838503121561323e57600080fd5b8235613249816136d5565b91506020830135613259816136d5565b809150509250929050565b60008060006040848603121561327957600080fd5b8335613284816136d5565b9250602084013567ffffffffffffffff8111156132a057600080fd5b6132ac868287016131af565b9497909650939450505050565b600080604083850312156132cc57600080fd5b82356132d7816136d5565b946020939093013593505050565b600080600080606085870312156132fb57600080fd5b8435613306816136d5565b935060208501359250604085013567ffffffffffffffff81111561332957600080fd5b61333587828801613163565b95989497509550505050565b60008060008060006080868803121561335957600080fd5b8535613364816136d5565b945060208601359350604086013567ffffffffffffffff81111561338757600080fd5b61339388828901613163565b96999598509660600135949350505050565b6000602082840312156133b757600080fd5b815180151581146122fb57600080fd5b6000602082840312156133d957600080fd5b5035919050565b6000602082840312156133f257600080fd5b5051919050565b6000806040838503121561340c57600080fd5b823591506020830135613259816136d5565b60008060006040848603121561343357600080fd5b83359250602084013567ffffffffffffffff8111156132a057600080fd5b81835260006020808501808196508560051b810191508460005b878110156134d55782840389528135601e1988360301811261348c57600080fd5b8701803567ffffffffffffffff8111156134a557600080fd5b8036038913156134b457600080fd5b6134c186828985016134e2565b9a87019a955050509084019060010161346b565b5091979650505050505050565b81835281816020850137506000828201602090810191909152601f909101601f19169091010190565b8183823760009101908152919050565b6000825160005b8181101561353c5760208186018101518583015201613522565b8181111561354b576000828501525b509190910192915050565b60018060a01b0385168152836020820152606060408201526000612edb606083018486613451565b85815260018060a01b03851660208201528360408201526080606082015260006130b2608083018486613451565b60208082526012908201527113530e941493d513d0d3d317d4105554d15160721b604082015260600190565b838152604060208201526000611cff6040830184866134e2565b6000808335601e1984360301811261360957600080fd5b83018035915067ffffffffffffffff82111561362457600080fd5b6020019150368190038213156131a857600080fd5b6000821982111561364c5761364c6136a9565b500190565b60008261366e57634e487b7160e01b600052601260045260246000fd5b500490565b600081600019048311821515161561368d5761368d6136a9565b500290565b6000828210156136a4576136a46136a9565b500390565b634e487b7160e01b600052601160045260246000fd5b634e487b7160e01b600052603260045260246000fd5b6001600160a01b038116811461195a57600080fdfea26469706673582212204c4014e9c973b4d4656bc1c3f69a5ae6fcd7f9219aae24dc2fbb4d460f28135b64736f6c63430008070033",
    "linkReferences": {}
  }
}