{
  "abi": [
    {
      "inputs": [
        {
          "internalType": "address",
          "name": "token_",
          "type": "address"
        },
        {
          "internalType": "address",
          "name": "spender_",
          "type": "address"
        },
        {
          "internalType": "uint256",
          "name": "amount_",
          "type": "uint256"
        }
      ],
      "name": "erc20_approve",
      "outputs": [],
      "stateMutability": "nonpayable",
      "type": "function"
    },
    {
      "inputs": [
        {
          "internalType": "address",
          "name": "token_",
          "type": "address"
        },
        {
          "internalType": "address",
          "name": "owner_",
          "type": "address"
        },
        {
          "internalType": "address",
          "name": "spender_",
          "type": "address"
        },
        {
          "internalType": "uint256",
          "name": "amount_",
          "type": "uint256"
        },
        {
          "internalType": "uint256",
          "name": "deadline_",
          "type": "uint256"
        },
        {
          "internalType": "uint8",
          "name": "v_",
          "type": "uint8"
        },
        {
          "internalType": "bytes32",
          "name": "r_",
          "type": "bytes32"
        },
        {
          "internalType": "bytes32",
          "name": "s_",
          "type": "bytes32"
        }
      ],
      "name": "erc20_permit",
      "outputs": [],
      "stateMutability": "nonpayable",
      "type": "function"
    },
    {
      "inputs": [
        {
          "internalType": "address",
          "name": "token_",
          "type": "address"
        },
        {
          "internalType": "address",
          "name": "recipient_",
          "type": "address"
        },
        {
          "internalType": "uint256",
          "name": "amount_",
          "type": "uint256"
        }
      ],
      "name": "erc20_transfer",
      "outputs": [
        {
          "internalType": "bool",
          "name": "success_",
          "type": "bool"
        }
      ],
      "stateMutability": "nonpayable",
      "type": "function"
    },
    {
      "inputs": [
        {
          "internalType": "address",
          "name": "token_",
          "type": "address"
        },
        {
          "internalType": "address",
          "name": "owner_",
          "type": "address"
        },
        {
          "internalType": "address",
          "name": "recipient_",
          "type": "address"
        },
        {
          "internalType": "uint256",
          "name": "amount_",
          "type": "uint256"
        }
      ],
      "name": "erc20_transferFrom",
      "outputs": [
        {
          "internalType": "bool",
          "name": "success_",
          "type": "bool"
        }
      ],
      "stateMutability": "nonpayable",
      "type": "function"
    }
  ],
  "bytecode": {
    "object": "0x608060405234801561001057600080fd5b50610477806100206000396000f3fe608060405234801561001057600080fd5b506004361061004c5760003560e01c806305eee8e71461005157806351cf23b1146100665780637fe2558114610079578063fc179d67146100a0575b600080fd5b61006461005f366004610359565b6100b3565b005b6100646100743660046103dc565b610145565b61008c6100873660046103dc565b6101cd565b604051901515815260200160405180910390f35b61008c6100ae36600461030e565b61025b565b60405163d505accf60e01b81526001600160a01b0388811660048301528781166024830152604482018790526064820186905260ff8516608483015260a4820184905260c4820183905289169063d505accf9060e401600060405180830381600087803b15801561012357600080fd5b505af1158015610137573d6000803e3d6000fd5b505050505050505050505050565b60405163095ea7b360e01b81526001600160a01b0383811660048301526024820183905284169063095ea7b390604401602060405180830381600087803b15801561018f57600080fd5b505af11580156101a3573d6000803e3d6000fd5b505050506040513d601f19601f820116820180604052508101906101c79190610418565b50505050565b60405163a9059cbb60e01b81526001600160a01b038381166004830152602482018390526000919085169063a9059cbb90604401602060405180830381600087803b15801561021b57600080fd5b505af115801561022f573d6000803e3d6000fd5b505050506040513d601f19601f820116820180604052508101906102539190610418565b949350505050565b6040516323b872dd60e01b81526001600160a01b038481166004830152838116602483015260448201839052600091908616906323b872dd90606401602060405180830381600087803b1580156102b157600080fd5b505af11580156102c5573d6000803e3d6000fd5b505050506040513d601f19601f820116820180604052508101906102e99190610418565b95945050505050565b80356001600160a01b038116811461030957600080fd5b919050565b6000806000806080858703121561032457600080fd5b61032d856102f2565b935061033b602086016102f2565b9250610349604086016102f2565b9396929550929360600135925050565b600080600080600080600080610100898b03121561037657600080fd5b61037f896102f2565b975061038d60208a016102f2565b965061039b60408a016102f2565b9550606089013594506080890135935060a089013560ff811681146103bf57600080fd5b979a969950949793969295929450505060c08201359160e0013590565b6000806000606084860312156103f157600080fd5b6103fa846102f2565b9250610408602085016102f2565b9150604084013590509250925092565b60006020828403121561042a57600080fd5b8151801515811461043a57600080fd5b939250505056fea2646970667358221220a5c412b2f35a19a42e744c99b1827100df63715d4215954150ab68d27e36c79964736f6c63430008070033",
    "linkReferences": {}
  }
}