{
  "abi": [
    {
      "inputs": [
        {
          "internalType": "address",
          "name": "instance_",
          "type": "address"
        },
        {
          "internalType": "uint256",
          "name": "toVersion_",
          "type": "uint256"
        },
        {
          "internalType": "bytes",
          "name": "arguments_",
          "type": "bytes"
        }
      ],
      "name": "mapleProxied_upgrade",
      "outputs": [],
      "stateMutability": "nonpayable",
      "type": "function"
    },
    {
      "inputs": [
        {
          "internalType": "address",
          "name": "factory_",
          "type": "address"
        },
        {
          "internalType": "bytes",
          "name": "arguments_",
          "type": "bytes"
        },
        {
          "internalType": "bytes32",
          "name": "salt_",
          "type": "bytes32"
        }
      ],
      "name": "mapleProxyFactory_createInstance",
      "outputs": [
        {
          "internalType": "address",
          "name": "instance_",
          "type": "address"
        }
      ],
      "stateMutability": "nonpayable",
      "type": "function"
    },
    {
      "inputs": [
        {
          "internalType": "address",
          "name": "instance_",
          "type": "address"
        },
        {
          "internalType": "uint256",
          "name": "toVersion_",
          "type": "uint256"
        },
        {
          "internalType": "bytes",
          "name": "arguments_",
          "type": "bytes"
        }
      ],
      "name": "try_mapleProxied_upgrade",
      "outputs": [
        {
          "internalType": "bool",
          "name": "ok_",
          "type": "bool"
        }
      ],
      "stateMutability": "nonpayable",
      "type": "function"
    },
    {
      "inputs": [
        {
          "internalType": "address",
          "name": "factory_",
          "type": "address"
        },
        {
          "internalType": "bytes",
          "name": "arguments_",
          "type": "bytes"
        },
        {
          "internalType": "bytes32",
          "name": "salt_",
          "type": "bytes32"
        }
      ],
      "name": "try_mapleProxyFactory_createInstance",
      "outputs": [
        {
          "internalType": "bool",
          "name": "ok_",
          "type": "bool"
        }
      ],
      "stateMutability": "nonpayable",
      "type": "function"
    }
  ],
  "bytecode": {
    "object": "0x608060405234801561001057600080fd5b506104b5806100206000396000f3fe608060405234801561001057600080fd5b506004361061004c5760003560e01c806348b4e6bc1461005157806399c96d4c14610081578063b501482f146100a4578063e5743b4f146100b9575b600080fd5b61006461005f36600461030d565b6100cc565b6040516001600160a01b0390911681526020015b60405180910390f35b61009461008f36600461030d565b61015a565b6040519015158152602001610078565b6100b76100b2366004610369565b61020f565b005b6100946100c7366004610369565b610277565b60405163517b657f60e01b81526000906001600160a01b0386169063517b657f906100ff90879087908790600401610429565b602060405180830381600087803b15801561011957600080fd5b505af115801561012d573d6000803e3d6000fd5b505050506040513d601f19601f8201168201806040525081019061015191906102e9565b95945050505050565b6000846001600160a01b031663517b657f60e01b85858560405160240161018393929190610429565b60408051601f198184030181529181526020820180516001600160e01b03166001600160e01b03199094169390931790925290516101c191906103ee565b6000604051808303816000865af19150503d80600081146101fe576040519150601f19603f3d011682016040523d82523d6000602084013e610203565b606091505b50909695505050505050565b604051631dccde7760e11b81526001600160a01b03851690633b99bcee9061023f9086908690869060040161044d565b600060405180830381600087803b15801561025957600080fd5b505af115801561026d573d6000803e3d6000fd5b5050505050505050565b6000846001600160a01b0316633b99bcee60e01b8585856040516024016101839392919061044d565b60008083601f8401126102b257600080fd5b50813567ffffffffffffffff8111156102ca57600080fd5b6020830191508360208285010111156102e257600080fd5b9250929050565b6000602082840312156102fb57600080fd5b815161030681610467565b9392505050565b6000806000806060858703121561032357600080fd5b843561032e81610467565b9350602085013567ffffffffffffffff81111561034a57600080fd5b610356878288016102a0565b9598909750949560400135949350505050565b6000806000806060858703121561037f57600080fd5b843561038a81610467565b935060208501359250604085013567ffffffffffffffff8111156103ad57600080fd5b6103b9878288016102a0565b95989497509550505050565b81835281816020850137506000828201602090810191909152601f909101601f19169091010190565b6000825160005b8181101561040f57602081860181015185830152016103f5565b8181111561041e576000828501525b509190910192915050565b60408152600061043d6040830185876103c5565b9050826020830152949350505050565b8381526040602082015260006101516040830184866103c5565b6001600160a01b038116811461047c57600080fd5b5056fea2646970667358221220c9c940a645630b888fd4845c51b71798534e88a720ae296f2f6f36db6cb2931f64736f6c63430008070033",
    "linkReferences": {}
  }
}