{
  "abi": [
    {
      "inputs": [
        {
          "internalType": "address",
          "name": "factory_",
          "type": "address"
        },
        {
          "internalType": "uint256",
          "name": "fromVersion_",
          "type": "uint256"
        },
        {
          "internalType": "uint256",
          "name": "toVersion_",
          "type": "uint256"
        }
      ],
      "name": "mapleProxyFactory_disableUpgradePath",
      "outputs": [],
      "stateMutability": "nonpayable",
      "type": "function"
    },
    {
      "inputs": [
        {
          "internalType": "address",
          "name": "factory_",
          "type": "address"
        },
        {
          "internalType": "uint256",
          "name": "fromVersion_",
          "type": "uint256"
        },
        {
          "internalType": "uint256",
          "name": "toVersion_",
          "type": "uint256"
        },
        {
          "internalType": "address",
          "name": "migrator_",
          "type": "address"
        }
      ],
      "name": "mapleProxyFactory_enableUpgradePath",
      "outputs": [],
      "stateMutability": "nonpayable",
      "type": "function"
    },
    {
      "inputs": [
        {
          "internalType": "address",
          "name": "factory_",
          "type": "address"
        },
        {
          "internalType": "uint256",
          "name": "version_",
          "type": "uint256"
        },
        {
          "internalType": "address",
          "name": "implementationAddress_",
          "type": "address"
        },
        {
          "internalType": "address",
          "name": "initializer_",
          "type": "address"
        }
      ],
      "name": "mapleProxyFactory_registerImplementation",
      "outputs": [],
      "stateMutability": "nonpayable",
      "type": "function"
    },
    {
      "inputs": [
        {
          "internalType": "address",
          "name": "factory_",
          "type": "address"
        },
        {
          "internalType": "uint256",
          "name": "version_",
          "type": "uint256"
        }
      ],
      "name": "mapleProxyFactory_setDefaultVersion",
      "outputs": [],
      "stateMutability": "nonpayable",
      "type": "function"
    },
    {
      "inputs": [
        {
          "internalType": "address",
          "name": "factory_",
          "type": "address"
        },
        {
          "internalType": "address",
          "name": "mapleGlobals_",
          "type": "address"
        }
      ],
      "name": "mapleProxyFactory_setGlobals",
      "outputs": [],
      "stateMutability": "nonpayable",
      "type": "function"
    },
    {
      "inputs": [
        {
          "internalType": "address",
          "name": "factory_",
          "type": "address"
        },
        {
          "internalType": "uint256",
          "name": "fromVersion_",
          "type": "uint256"
        },
        {
          "internalType": "uint256",
          "name": "toVersion_",
          "type": "uint256"
        }
      ],
      "name": "try_mapleProxyFactory_disableUpgradePath",
      "outputs": [
        {
          "internalType": "bool",
          "name": "ok_",
          "type": "bool"
        }
      ],
      "stateMutability": "nonpayable",
      "type": "function"
    },
    {
      "inputs": [
        {
          "internalType": "address",
          "name": "factory_",
          "type": "address"
        },
        {
          "internalType": "uint256",
          "name": "fromVersion_",
          "type": "uint256"
        },
        {
          "internalType": "uint256",
          "name": "toVersion_",
          "type": "uint256"
        },
        {
          "internalType": "address",
          "name": "migrator_",
          "type": "address"
        }
      ],
      "name": "try_mapleProxyFactory_enableUpgradePath",
      "outputs": [
        {
          "internalType": "bool",
          "name": "ok_",
          "type": "bool"
        }
      ],
      "stateMutability": "nonpayable",
      "type": "function"
    },
    {
      "inputs": [
        {
          "internalType": "address",
          "name": "factory_",
          "type": "address"
        },
        {
          "internalType": "uint256",
          "name": "version_",
          "type": "uint256"
        },
        {
          "internalType": "address",
          "name": "implementationAddress_",
          "type": "address"
        },
        {
          "internalType": "address",
          "name": "initializer_",
          "type": "address"
        }
      ],
      "name": "try_mapleProxyFactory_registerImplementation",
      "outputs": [
        {
          "internalType": "bool",
          "name": "ok_",
          "type": "bool"
        }
      ],
      "stateMutability": "nonpayable",
      "type": "function"
    },
    {
      "inputs": [
        {
          "internalType": "address",
          "name": "factory_",
          "type": "address"
        },
        {
          "internalType": "uint256",
          "name": "version_",
          "type": "uint256"
        }
      ],
      "name": "try_mapleProxyFactory_setDefaultVersion",
      "outputs": [
        {
          "internalType": "bool",
          "name": "ok_",
          "type": "bool"
        }
      ],
      "stateMutability": "nonpayable",
      "type": "function"
    },
    {
      "inputs": [
        {
          "internalType": "address",
          "name": "factory_",
          "type": "address"
        },
        {
          "internalType": "address",
          "name": "mapleGlobals_",
          "type": "address"
        }
      ],
      "name": "try_mapleProxyFactory_setGlobals",
      "outputs": [
        {
          "internalType": "bool",
          "name": "ok_",
          "type": "bool"
        }
      ],
      "stateMutability": "nonpayable",
      "type": "function"
    }
  ],
  "bytecode": {
    "object": "0x608060405234801561001057600080fd5b50610738806100206000396000f3fe608060405234801561001057600080fd5b506004361061009e5760003560e01c8063b59f2fc711610066578063b59f2fc714610118578063b8b2944f1461012b578063da2a0ce81461013e578063e3013dfe14610151578063eb10b6d51461016457600080fd5b806319cbc582146100a35780632f44fb30146100b857806336e71309146100cb57806342a78438146100f257806356d8d40e14610105575b600080fd5b6100b66100b136600461060c565b610177565b005b6100b66100c6366004610659565b6101e8565b6100de6100d93660046105e2565b61024e565b604051901515815260200160405180910390f35b6100de6101003660046105af565b6102ff565b6100de61011336600461068c565b61032a565b6100de61012636600461060c565b6103eb565b6100b66101393660046105e2565b610425565b6100b661014c3660046105af565b610484565b6100b661015f36600461068c565b6104b2565b6100de610172366004610659565b6104ee565b60405163093805d760e11b8152600481018490526001600160a01b03838116602483015282811660448301528516906312700bae906064015b600060405180830381600087803b1580156101ca57600080fd5b505af11580156101de573d6000803e3d6000fd5b5050505050505050565b60405163440c148960e11b815260048101839052602481018290526001600160a01b03841690638818291290604401600060405180830381600087803b15801561023157600080fd5b505af1158015610245573d6000803e3d6000fd5b50505050505050565b6000826001600160a01b031663b4e6747f60e01b8360405160240161027591815260200190565b60408051601f198184030181529181526020820180516001600160e01b03166001600160e01b03199094169390931790925290516102b391906106c7565b6000604051808303816000865af19150503d80600081146102f0576040519150601f19603f3d011682016040523d82523d6000602084013e6102f5565b606091505b5090949350505050565b6040516001600160a01b03828116602483015260009190841690636617051360e11b90604401610275565b60405160248101849052604481018390526001600160a01b0382811660648301526000919086169063b28317bf60e01b906084015b60408051601f198184030181529181526020820180516001600160e01b03166001600160e01b031990941693909317909252905161039d91906106c7565b6000604051808303816000865af19150503d80600081146103da576040519150601f19603f3d011682016040523d82523d6000602084013e6103df565b606091505b50909695505050505050565b604051602481018490526001600160a01b03838116604483015282811660648301526000919086169063093805d760e11b9060840161035f565b60405163b4e6747f60e01b8152600481018290526001600160a01b0383169063b4e6747f906024015b600060405180830381600087803b15801561046857600080fd5b505af115801561047c573d6000803e3d6000fd5b505050505050565b604051636617051360e11b81526001600160a01b03828116600483015283169063cc2e0a269060240161044e565b60405163b28317bf60e01b815260048101849052602481018390526001600160a01b03828116604483015285169063b28317bf906064016101b0565b6040805160248101849052604480820184905282518083039091018152606490910182526020810180516001600160e01b031663440c148960e11b17905290516000916001600160a01b0386169161054691906106c7565b6000604051808303816000865af19150503d8060008114610583576040519150601f19603f3d011682016040523d82523d6000602084013e610588565b606091505b509095945050505050565b80356001600160a01b03811681146105aa57600080fd5b919050565b600080604083850312156105c257600080fd5b6105cb83610593565b91506105d960208401610593565b90509250929050565b600080604083850312156105f557600080fd5b6105fe83610593565b946020939093013593505050565b6000806000806080858703121561062257600080fd5b61062b85610593565b93506020850135925061064060408601610593565b915061064e60608601610593565b905092959194509250565b60008060006060848603121561066e57600080fd5b61067784610593565b95602085013595506040909401359392505050565b600080600080608085870312156106a257600080fd5b6106ab85610593565b9350602085013592506040850135915061064e60608601610593565b6000825160005b818110156106e857602081860181015185830152016106ce565b818111156106f7576000828501525b50919091019291505056fea2646970667358221220d5d77ff5bbbf576b66f39f0d61c3c717e625cf77c65cffcf309b5d219a037f8864736f6c63430008070033",
    "linkReferences": {}
  }
}