{
  "abi": [
    {
      "inputs": [
        {
          "internalType": "address",
          "name": "refinancer_",
          "type": "address"
        },
        {
          "internalType": "uint256",
          "name": "deadline_",
          "type": "uint256"
        },
        {
          "internalType": "bytes[]",
          "name": "calls_",
          "type": "bytes[]"
        }
      ],
      "name": "acceptNewTerms",
      "outputs": [
        {
          "internalType": "bytes32",
          "name": "refinanceCommitment_",
          "type": "bytes32"
        }
      ],
      "stateMutability": "nonpayable",
      "type": "function"
    },
    {
      "inputs": [],
      "name": "borrower",
      "outputs": [
        {
          "internalType": "address",
          "name": "borrower_",
          "type": "address"
        }
      ],
      "stateMutability": "view",
      "type": "function"
    },
    {
      "inputs": [
        {
          "internalType": "uint256",
          "name": "amount_",
          "type": "uint256"
        },
        {
          "internalType": "address",
          "name": "destination_",
          "type": "address"
        }
      ],
      "name": "claimFunds",
      "outputs": [],
      "stateMutability": "nonpayable",
      "type": "function"
    },
    {
      "inputs": [],
      "name": "claimableFunds",
      "outputs": [
        {
          "internalType": "uint256",
          "name": "claimableFunds_",
          "type": "uint256"
        }
      ],
      "stateMutability": "view",
      "type": "function"
    },
    {
      "inputs": [],
      "name": "clearLoanAccounting",
      "outputs": [],
      "stateMutability": "nonpayable",
      "type": "function"
    },
    {
      "inputs": [],
      "name": "closeLoan",
      "outputs": [
        {
          "internalType": "uint256",
          "name": "principal_",
          "type": "uint256"
        },
        {
          "internalType": "uint256",
          "name": "interest_",
          "type": "uint256"
        },
        {
          "internalType": "uint256",
          "name": "delegateFee_",
          "type": "uint256"
        },
        {
          "internalType": "uint256",
          "name": "treasuryFee_",
          "type": "uint256"
        }
      ],
      "stateMutability": "nonpayable",
      "type": "function"
    },
    {
      "inputs": [],
      "name": "collateral",
      "outputs": [
        {
          "internalType": "uint256",
          "name": "collateral_",
          "type": "uint256"
        }
      ],
      "stateMutability": "view",
      "type": "function"
    },
    {
      "inputs": [],
      "name": "collateralAsset",
      "outputs": [
        {
          "internalType": "address",
          "name": "collateralAsset_",
          "type": "address"
        }
      ],
      "stateMutability": "view",
      "type": "function"
    },
    {
      "inputs": [],
      "name": "collateralRequired",
      "outputs": [
        {
          "internalType": "uint256",
          "name": "collateralRequired_",
          "type": "uint256"
        }
      ],
      "stateMutability": "view",
      "type": "function"
    },
    {
      "inputs": [],
      "name": "delegateFee",
      "outputs": [
        {
          "internalType": "uint256",
          "name": "delegateFee_",
          "type": "uint256"
        }
      ],
      "stateMutability": "view",
      "type": "function"
    },
    {
      "inputs": [],
      "name": "drawableFunds",
      "outputs": [
        {
          "internalType": "uint256",
          "name": "drawableFunds_",
          "type": "uint256"
        }
      ],
      "stateMutability": "view",
      "type": "function"
    },
    {
      "inputs": [
        {
          "internalType": "uint256",
          "name": "amount_",
          "type": "uint256"
        },
        {
          "internalType": "address",
          "name": "destination_",
          "type": "address"
        }
      ],
      "name": "drawdownFunds",
      "outputs": [],
      "stateMutability": "nonpayable",
      "type": "function"
    },
    {
      "inputs": [],
      "name": "earlyFeeRate",
      "outputs": [
        {
          "internalType": "uint256",
          "name": "earlyFeeRate_",
          "type": "uint256"
        }
      ],
      "stateMutability": "view",
      "type": "function"
    },
    {
      "inputs": [],
      "name": "endingPrincipal",
      "outputs": [
        {
          "internalType": "uint256",
          "name": "endingPrincipal_",
          "type": "uint256"
        }
      ],
      "stateMutability": "view",
      "type": "function"
    },
    {
      "inputs": [
        {
          "internalType": "address",
          "name": "lender_",
          "type": "address"
        }
      ],
      "name": "fundLoan",
      "outputs": [
        {
          "internalType": "uint256",
          "name": "fundsLent_",
          "type": "uint256"
        }
      ],
      "stateMutability": "nonpayable",
      "type": "function"
    },
    {
      "inputs": [],
      "name": "fundsAsset",
      "outputs": [
        {
          "internalType": "address",
          "name": "fundsAsset_",
          "type": "address"
        }
      ],
      "stateMutability": "view",
      "type": "function"
    },
    {
      "inputs": [
        {
          "internalType": "uint256",
          "name": "principal_",
          "type": "uint256"
        },
        {
          "internalType": "uint256",
          "name": "drawableFunds_",
          "type": "uint256"
        },
        {
          "internalType": "uint256",
          "name": "principalRequested_",
          "type": "uint256"
        },
        {
          "internalType": "uint256",
          "name": "collateralRequired_",
          "type": "uint256"
        }
      ],
      "name": "getCollateralRequiredFor",
      "outputs": [
        {
          "internalType": "uint256",
          "name": "collateral_",
          "type": "uint256"
        }
      ],
      "stateMutability": "pure",
      "type": "function"
    },
    {
      "inputs": [],
      "name": "getEarlyPaymentBreakdown",
      "outputs": [
        {
          "internalType": "uint256",
          "name": "principal_",
          "type": "uint256"
        },
        {
          "internalType": "uint256",
          "name": "interest_",
          "type": "uint256"
        },
        {
          "internalType": "uint256",
          "name": "delegateFee_",
          "type": "uint256"
        },
        {
          "internalType": "uint256",
          "name": "treasuryFee_",
          "type": "uint256"
        }
      ],
      "stateMutability": "view",
      "type": "function"
    },
    {
      "inputs": [
        {
          "internalType": "uint256",
          "name": "principal_",
          "type": "uint256"
        },
        {
          "internalType": "uint256",
          "name": "endingPrincipal_",
          "type": "uint256"
        },
        {
          "internalType": "uint256",
          "name": "interestRate_",
          "type": "uint256"
        },
        {
          "internalType": "uint256",
          "name": "paymentInterval_",
          "type": "uint256"
        },
        {
          "internalType": "uint256",
          "name": "totalPayments_",
          "type": "uint256"
        }
      ],
      "name": "getInstallment",
      "outputs": [
        {
          "internalType": "uint256",
          "name": "principalAmount_",
          "type": "uint256"
        },
        {
          "internalType": "uint256",
          "name": "interestAmount_",
          "type": "uint256"
        }
      ],
      "stateMutability": "pure",
      "type": "function"
    },
    {
      "inputs": [
        {
          "internalType": "uint256",
          "name": "principal_",
          "type": "uint256"
        },
        {
          "internalType": "uint256",
          "name": "interestRate_",
          "type": "uint256"
        },
        {
          "internalType": "uint256",
          "name": "interval_",
          "type": "uint256"
        }
      ],
      "name": "getInterest",
      "outputs": [
        {
          "internalType": "uint256",
          "name": "interest_",
          "type": "uint256"
        }
      ],
      "stateMutability": "pure",
      "type": "function"
    },
    {
      "inputs": [],
      "name": "getNextPaymentBreakdown",
      "outputs": [
        {
          "internalType": "uint256",
          "name": "principal_",
          "type": "uint256"
        },
        {
          "internalType": "uint256",
          "name": "interest_",
          "type": "uint256"
        },
        {
          "internalType": "uint256",
          "name": "delegateFee_",
          "type": "uint256"
        },
        {
          "internalType": "uint256",
          "name": "treasuryFee_",
          "type": "uint256"
        }
      ],
      "stateMutability": "view",
      "type": "function"
    },
    {
      "inputs": [
        {
          "internalType": "uint256",
          "name": "currentTime_",
          "type": "uint256"
        },
        {
          "internalType": "uint256",
          "name": "nextPaymentDueDate_",
          "type": "uint256"
        },
        {
          "internalType": "uint256",
          "name": "paymentInterval_",
          "type": "uint256"
        },
        {
          "internalType": "uint256",
          "name": "principal_",
          "type": "uint256"
        },
        {
          "internalType": "uint256",
          "name": "endingPrincipal_",
          "type": "uint256"
        },
        {
          "internalType": "uint256",
          "name": "paymentsRemaining_",
          "type": "uint256"
        },
        {
          "internalType": "uint256",
          "name": "interestRate_",
          "type": "uint256"
        },
        {
          "internalType": "uint256",
          "name": "lateFeeRate_",
          "type": "uint256"
        },
        {
          "internalType": "uint256",
          "name": "lateInterestPremium_",
          "type": "uint256"
        }
      ],
      "name": "getPaymentBreakdown",
      "outputs": [
        {
          "internalType": "uint256",
          "name": "principalAmount_",
          "type": "uint256"
        },
        {
          "internalType": "uint256",
          "name": "interestAmount_",
          "type": "uint256"
        }
      ],
      "stateMutability": "pure",
      "type": "function"
    },
    {
      "inputs": [
        {
          "internalType": "uint256",
          "name": "interestRate_",
          "type": "uint256"
        },
        {
          "internalType": "uint256",
          "name": "interval_",
          "type": "uint256"
        }
      ],
      "name": "getPeriodicInterestRate",
      "outputs": [
        {
          "internalType": "uint256",
          "name": "periodicInterestRate_",
          "type": "uint256"
        }
      ],
      "stateMutability": "pure",
      "type": "function"
    },
    {
      "inputs": [
        {
          "internalType": "address",
          "name": "refinancer_",
          "type": "address"
        },
        {
          "internalType": "uint256",
          "name": "deadline_",
          "type": "uint256"
        },
        {
          "internalType": "bytes[]",
          "name": "calls_",
          "type": "bytes[]"
        }
      ],
      "name": "getRefinanceCommitment",
      "outputs": [
        {
          "internalType": "bytes32",
          "name": "refinanceCommitment_",
          "type": "bytes32"
        }
      ],
      "stateMutability": "pure",
      "type": "function"
    },
    {
      "inputs": [
        {
          "internalType": "address",
          "name": "asset_",
          "type": "address"
        }
      ],
      "name": "getUnaccountedAmount",
      "outputs": [
        {
          "internalType": "uint256",
          "name": "unaccountedAmount_",
          "type": "uint256"
        }
      ],
      "stateMutability": "view",
      "type": "function"
    },
    {
      "inputs": [],
      "name": "gracePeriod",
      "outputs": [
        {
          "internalType": "uint256",
          "name": "gracePeriod_",
          "type": "uint256"
        }
      ],
      "stateMutability": "view",
      "type": "function"
    },
    {
      "inputs": [
        {
          "internalType": "address",
          "name": "borrower_",
          "type": "address"
        },
        {
          "internalType": "address[2]",
          "name": "assets_",
          "type": "address[2]"
        },
        {
          "internalType": "uint256[3]",
          "name": "termDetails_",
          "type": "uint256[3]"
        },
        {
          "internalType": "uint256[3]",
          "name": "amounts_",
          "type": "uint256[3]"
        },
        {
          "internalType": "uint256[4]",
          "name": "rates_",
          "type": "uint256[4]"
        }
      ],
      "name": "initialize",
      "outputs": [],
      "stateMutability": "nonpayable",
      "type": "function"
    },
    {
      "inputs": [],
      "name": "interestRate",
      "outputs": [
        {
          "internalType": "uint256",
          "name": "interestRate_",
          "type": "uint256"
        }
      ],
      "stateMutability": "view",
      "type": "function"
    },
    {
      "inputs": [],
      "name": "isCollateralMaintained",
      "outputs": [
        {
          "internalType": "bool",
          "name": "isMaintained_",
          "type": "bool"
        }
      ],
      "stateMutability": "view",
      "type": "function"
    },
    {
      "inputs": [],
      "name": "lateFeeRate",
      "outputs": [
        {
          "internalType": "uint256",
          "name": "lateFeeRate_",
          "type": "uint256"
        }
      ],
      "stateMutability": "view",
      "type": "function"
    },
    {
      "inputs": [],
      "name": "lateInterestPremium",
      "outputs": [
        {
          "internalType": "uint256",
          "name": "lateInterestPremium_",
          "type": "uint256"
        }
      ],
      "stateMutability": "view",
      "type": "function"
    },
    {
      "inputs": [],
      "name": "lender",
      "outputs": [
        {
          "internalType": "address",
          "name": "lender_",
          "type": "address"
        }
      ],
      "stateMutability": "view",
      "type": "function"
    },
    {
      "inputs": [],
      "name": "makePayment",
      "outputs": [
        {
          "internalType": "uint256",
          "name": "principal_",
          "type": "uint256"
        },
        {
          "internalType": "uint256",
          "name": "interest_",
          "type": "uint256"
        },
        {
          "internalType": "uint256",
          "name": "delegateFee_",
          "type": "uint256"
        },
        {
          "internalType": "uint256",
          "name": "treasuryFee_",
          "type": "uint256"
        }
      ],
      "stateMutability": "nonpayable",
      "type": "function"
    },
    {
      "inputs": [],
      "name": "nextPaymentDueDate",
      "outputs": [
        {
          "internalType": "uint256",
          "name": "nextPaymentDueDate_",
          "type": "uint256"
        }
      ],
      "stateMutability": "view",
      "type": "function"
    },
    {
      "inputs": [],
      "name": "paymentInterval",
      "outputs": [
        {
          "internalType": "uint256",
          "name": "paymentInterval_",
          "type": "uint256"
        }
      ],
      "stateMutability": "view",
      "type": "function"
    },
    {
      "inputs": [],
      "name": "paymentsRemaining",
      "outputs": [
        {
          "internalType": "uint256",
          "name": "paymentsRemaining_",
          "type": "uint256"
        }
      ],
      "stateMutability": "view",
      "type": "function"
    },
    {
      "inputs": [],
      "name": "postCollateral",
      "outputs": [
        {
          "internalType": "uint256",
          "name": "collateralPosted_",
          "type": "uint256"
        }
      ],
      "stateMutability": "nonpayable",
      "type": "function"
    },
    {
      "inputs": [],
      "name": "principal",
      "outputs": [
        {
          "internalType": "uint256",
          "name": "principal_",
          "type": "uint256"
        }
      ],
      "stateMutability": "view",
      "type": "function"
    },
    {
      "inputs": [],
      "name": "principalRequested",
      "outputs": [
        {
          "internalType": "uint256",
          "name": "principalRequested_",
          "type": "uint256"
        }
      ],
      "stateMutability": "view",
      "type": "function"
    },
    {
      "inputs": [
        {
          "internalType": "address",
          "name": "refinancer_",
          "type": "address"
        },
        {
          "internalType": "uint256",
          "name": "deadline_",
          "type": "uint256"
        },
        {
          "internalType": "bytes[]",
          "name": "calls_",
          "type": "bytes[]"
        }
      ],
      "name": "proposeNewTerms",
      "outputs": [
        {
          "internalType": "bytes32",
          "name": "refinanceCommitment_",
          "type": "bytes32"
        }
      ],
      "stateMutability": "nonpayable",
      "type": "function"
    },
    {
      "inputs": [],
      "name": "refinanceCommitment",
      "outputs": [
        {
          "internalType": "bytes32",
          "name": "refinanceCommitment_",
          "type": "bytes32"
        }
      ],
      "stateMutability": "view",
      "type": "function"
    },
    {
      "inputs": [],
      "name": "refinanceInterest",
      "outputs": [
        {
          "internalType": "uint256",
          "name": "refinanceInterest_",
          "type": "uint256"
        }
      ],
      "stateMutability": "view",
      "type": "function"
    },
    {
      "inputs": [
        {
          "internalType": "address",
          "name": "refinancer_",
          "type": "address"
        },
        {
          "internalType": "uint256",
          "name": "deadline_",
          "type": "uint256"
        },
        {
          "internalType": "bytes[]",
          "name": "calls_",
          "type": "bytes[]"
        }
      ],
      "name": "rejectNewTerms",
      "outputs": [],
      "stateMutability": "nonpayable",
      "type": "function"
    },
    {
      "inputs": [
        {
          "internalType": "uint256",
          "name": "amount_",
          "type": "uint256"
        },
        {
          "internalType": "address",
          "name": "destination_",
          "type": "address"
        }
      ],
      "name": "removeCollateral",
      "outputs": [],
      "stateMutability": "nonpayable",
      "type": "function"
    },
    {
      "inputs": [
        {
          "internalType": "address",
          "name": "destination_",
          "type": "address"
        }
      ],
      "name": "repossess",
      "outputs": [
        {
          "internalType": "uint256",
          "name": "collateralRepossessed_",
          "type": "uint256"
        },
        {
          "internalType": "uint256",
          "name": "fundsRepossessed_",
          "type": "uint256"
        }
      ],
      "stateMutability": "nonpayable",
      "type": "function"
    },
    {
      "inputs": [],
      "name": "returnFunds",
      "outputs": [
        {
          "internalType": "uint256",
          "name": "fundsReturned_",
          "type": "uint256"
        }
      ],
      "stateMutability": "nonpayable",
      "type": "function"
    },
    {
      "inputs": [
        {
          "internalType": "uint256",
          "name": "base_",
          "type": "uint256"
        },
        {
          "internalType": "uint256",
          "name": "exponent_",
          "type": "uint256"
        },
        {
          "internalType": "uint256",
          "name": "one_",
          "type": "uint256"
        }
      ],
      "name": "scaledExponent",
      "outputs": [
        {
          "internalType": "uint256",
          "name": "result_",
          "type": "uint256"
        }
      ],
      "stateMutability": "pure",
      "type": "function"
    },
    {
      "inputs": [
        {
          "internalType": "address",
          "name": "borrower_",
          "type": "address"
        }
      ],
      "name": "setBorrower",
      "outputs": [],
      "stateMutability": "nonpayable",
      "type": "function"
    },
    {
      "inputs": [
        {
          "internalType": "uint256",
          "name": "claimableFunds_",
          "type": "uint256"
        }
      ],
      "name": "setClaimableFunds",
      "outputs": [],
      "stateMutability": "nonpayable",
      "type": "function"
    },
    {
      "inputs": [
        {
          "internalType": "uint256",
          "name": "collateral_",
          "type": "uint256"
        }
      ],
      "name": "setCollateral",
      "outputs": [],
      "stateMutability": "nonpayable",
      "type": "function"
    },
    {
      "inputs": [
        {
          "internalType": "address",
          "name": "collateralAsset_",
          "type": "address"
        }
      ],
      "name": "setCollateralAsset",
      "outputs": [],
      "stateMutability": "nonpayable",
      "type": "function"
    },
    {
      "inputs": [
        {
          "internalType": "uint256",
          "name": "collateralRequired_",
          "type": "uint256"
        }
      ],
      "name": "setCollateralRequired",
      "outputs": [],
      "stateMutability": "nonpayable",
      "type": "function"
    },
    {
      "inputs": [
        {
          "internalType": "uint256",
          "name": "delegateFee_",
          "type": "uint256"
        }
      ],
      "name": "setDelegateFee",
      "outputs": [],
      "stateMutability": "nonpayable",
      "type": "function"
    },
    {
      "inputs": [
        {
          "internalType": "uint256",
          "name": "drawableFunds_",
          "type": "uint256"
        }
      ],
      "name": "setDrawableFunds",
      "outputs": [],
      "stateMutability": "nonpayable",
      "type": "function"
    },
    {
      "inputs": [
        {
          "internalType": "uint256",
          "name": "earlyFeeRate_",
          "type": "uint256"
        }
      ],
      "name": "setEarlyFeeRate",
      "outputs": [],
      "stateMutability": "nonpayable",
      "type": "function"
    },
    {
      "inputs": [
        {
          "internalType": "uint256",
          "name": "endingPrincipal_",
          "type": "uint256"
        }
      ],
      "name": "setEndingPrincipal",
      "outputs": [],
      "stateMutability": "nonpayable",
      "type": "function"
    },
    {
      "inputs": [
        {
          "internalType": "address",
          "name": "factory_",
          "type": "address"
        }
      ],
      "name": "setFactory",
      "outputs": [],
      "stateMutability": "nonpayable",
      "type": "function"
    },
    {
      "inputs": [
        {
          "internalType": "address",
          "name": "fundsAsset_",
          "type": "address"
        }
      ],
      "name": "setFundsAsset",
      "outputs": [],
      "stateMutability": "nonpayable",
      "type": "function"
    },
    {
      "inputs": [
        {
          "internalType": "uint256",
          "name": "gracePeriod_",
          "type": "uint256"
        }
      ],
      "name": "setGracePeriod",
      "outputs": [],
      "stateMutability": "nonpayable",
      "type": "function"
    },
    {
      "inputs": [
        {
          "internalType": "uint256",
          "name": "interestRate_",
          "type": "uint256"
        }
      ],
      "name": "setInterestRate",
      "outputs": [],
      "stateMutability": "nonpayable",
      "type": "function"
    },
    {
      "inputs": [
        {
          "internalType": "uint256",
          "name": "lateFeeRate_",
          "type": "uint256"
        }
      ],
      "name": "setLateFeeRate",
      "outputs": [],
      "stateMutability": "nonpayable",
      "type": "function"
    },
    {
      "inputs": [
        {
          "internalType": "uint256",
          "name": "lateInterestPremium_",
          "type": "uint256"
        }
      ],
      "name": "setLateInterestPremium",
      "outputs": [],
      "stateMutability": "nonpayable",
      "type": "function"
    },
    {
      "inputs": [
        {
          "internalType": "address",
          "name": "lender_",
          "type": "address"
        }
      ],
      "name": "setLender",
      "outputs": [],
      "stateMutability": "nonpayable",
      "type": "function"
    },
    {
      "inputs": [
        {
          "internalType": "uint256",
          "name": "nextPaymentDueDate_",
          "type": "uint256"
        }
      ],
      "name": "setNextPaymentDueDate",
      "outputs": [],
      "stateMutability": "nonpayable",
      "type": "function"
    },
    {
      "inputs": [
        {
          "internalType": "uint256",
          "name": "paymentInterval_",
          "type": "uint256"
        }
      ],
      "name": "setPaymentInterval",
      "outputs": [],
      "stateMutability": "nonpayable",
      "type": "function"
    },
    {
      "inputs": [
        {
          "internalType": "uint256",
          "name": "paymentsRemaining_",
          "type": "uint256"
        }
      ],
      "name": "setPaymentsRemaining",
      "outputs": [],
      "stateMutability": "nonpayable",
      "type": "function"
    },
    {
      "inputs": [
        {
          "internalType": "uint256",
          "name": "principal_",
          "type": "uint256"
        }
      ],
      "name": "setPrincipal",
      "outputs": [],
      "stateMutability": "nonpayable",
      "type": "function"
    },
    {
      "inputs": [
        {
          "internalType": "uint256",
          "name": "principalRequested_",
          "type": "uint256"
        }
      ],
      "name": "setPrincipalRequested",
      "outputs": [],
      "stateMutability": "nonpayable",
      "type": "function"
    },
    {
      "inputs": [
        {
          "internalType": "bytes32",
          "name": "refinanceCommitment_",
          "type": "bytes32"
        }
      ],
      "name": "setRefinanceCommitment",
      "outputs": [],
      "stateMutability": "nonpayable",
      "type": "function"
    },
    {
      "inputs": [
        {
          "internalType": "uint256",
          "name": "refinanceInterest_",
          "type": "uint256"
        }
      ],
      "name": "setRefinanceInterest",
      "outputs": [],
      "stateMutability": "nonpayable",
      "type": "function"
    },
    {
      "inputs": [
        {
          "internalType": "uint256",
          "name": "treasuryFee_",
          "type": "uint256"
        }
      ],
      "name": "setTreasuryFee",
      "outputs": [],
      "stateMutability": "nonpayable",
      "type": "function"
    },
    {
      "inputs": [],
      "name": "treasuryFee",
      "outputs": [
        {
          "internalType": "uint256",
          "name": "treasuryFee_",
          "type": "uint256"
        }
      ],
      "stateMutability": "view",
      "type": "function"
    }
  ],
  "bytecode": {
    "object": "0x608060405234801561001057600080fd5b506127bd806100206000396000f3fe608060405234801561001057600080fd5b50600436106104285760003560e01c80639931c34c1161022b578063c762d5f711610130578063e268255d116100b8578063eb7462c711610087578063eb7462c7146108f6578063f2f659601461090e578063f68dee9014610921578063fe12afe914610934578063ffb23a561461094757600080fd5b8063e268255d146108b5578063e44b3875146108c8578063e48f6faf146108d0578063e94134d9146108e357600080fd5b8063d157f645116100ff578063d157f6451461084f578063d41ddc9614610862578063d82d842114610875578063d8d79700146108a5578063d8dfeb45146108ad57600080fd5b8063c762d5f7146107f1578063c8b8c43e14610821578063cc32d17614610834578063ccc044841461083c57600080fd5b8063b86a513e116101b3578063ba5d307811610182578063ba5d3078146107aa578063ba83276b146107b2578063bcead63e146107ba578063bdef476b146107cb578063c58d45a9146107de57600080fd5b8063b86a513e1461077f578063b96b5c9914610787578063b9b1f4e31461078f578063b9d842d11461079757600080fd5b8063aabaecd6116101fa578063aabaecd61461072d578063ab8355d41461073e578063acb522b414610751578063b69410de14610764578063b75941921461076c57600080fd5b80639931c34c146106f75780639c3c2ab11461070a578063a06db7dc1461071d578063a97d11611461072557600080fd5b80634b65a86d1161033157806375a20676116102b95780637df1f1b9116102885780637df1f1b9146106b05780637febd92b146106c157806387accaf1146106d45780638c6862bd146106e75780638ffc9215146106ef57600080fd5b806375a206761461068557806377b3c55c1461068d57806377e741c7146106955780637c3a00fd146106a857600080fd5b80635de1858c116103005780635de1858c146106315780635f84f302146106445780636174b2721461065757806369458ba71461066a57806370a10c891461067257600080fd5b80634b65a86d146105a057806350b903a9146105b35780635260781c146105e35780635bb47808146105f657600080fd5b8063390d6855116103b457806341fc71061161038357806341fc71061461050f57806342af07501461052257806346e368d41461053557806347350e9f146105655780634764757e1461058d57600080fd5b8063390d6855146104bc57806339ba9f86146104cf5780633fabc6b7146104f45780634003f34d1461050757600080fd5b806321c3cbc2116103fb57806321c3cbc214610467578063232fa7331461046f578063258d0e8a146104975780632ead1098146104ac57806330fea1ce146104b457600080fd5b80630895326f1461042d5780631cc1cf46146104445780631df5b4d21461044c5780631eb5ea2e1461045f575b600080fd5b6013545b6040519081526020015b60405180910390f35b600754610431565b61043161045a36600461242d565b61095a565b610431610971565b610431610980565b61047761098a565b60408051948552602085019390935291830152606082015260800161043b565b6104aa6104a53660046123a9565b601255565b005b600b54610431565b600954610431565b6104aa6104ca3660046123db565b6109a6565b6005546001600160a01b03165b6040516001600160a01b03909116815260200161043b565b6104aa6105023660046123a9565b601155565b601254610431565b6104aa61051d3660046123a9565b601555565b6104316105303660046122fb565b6109b4565b6104aa610543366004612206565b600180546001600160a01b0319166001600160a01b0392909216919091179055565b610578610573366004612206565b6109cb565b6040805192835260208301919091520161043b565b6104aa61059b3660046123a9565b601355565b6104aa6105ae366004612240565b6109e0565b6104aa6105c1366004612206565b600580546001600160a01b0319166001600160a01b0392909216919091179055565b6105786105f13660046124c6565b6109f4565b6104aa610604366004612206565b6001600160a01b03167f7a45a402e4cb6e08ebc196f20f66d5d30e67285a2a8aa80503fa409e727a4af155565b6104aa61063f3660046123a9565b600c55565b6104aa6106523660046123a9565b600855565b610431610665366004612206565b610a1b565b610477610a2c565b6104316106803660046122fb565b610a3a565b600c54610431565b600a54610431565b6104aa6106a33660046123a9565b601855565b600854610431565b6000546001600160a01b03166104dc565b6104aa6106cf3660046123a9565b600a55565b6104316106e23660046122fb565b610a48565b6104aa610a56565b600d54610431565b6104aa6107053660046123a9565b601755565b6104aa6107183660046123a9565b600b55565b600654610431565b601654610431565b6004546001600160a01b03166104dc565b6104aa61074c3660046123a9565b601655565b6104aa61075f3660046122fb565b610a60565b601754610431565b6104aa61077a3660046123a9565b600f55565b600e54610431565b610477610a6c565b600f54610431565b6104316107a536600461240b565b610a7a565b601454610431565b601554610431565b6001546001600160a01b03166104dc565b6104aa6107d93660046123a9565b601455565b6104316107ec36600461242d565b610a86565b6104aa6107ff366004612206565b600080546001600160a01b0319166001600160a01b0392909216919091179055565b61057861082f36600461248b565b610a93565b601854610431565b6104aa61084a3660046123db565b610ab2565b6104aa61085d3660046123a9565b600755565b6104aa6108703660046123db565b610abc565b6104aa610883366004612206565b600480546001600160a01b0319166001600160a01b0392909216919091179055565b610477610ac6565b601154610431565b6104316108c3366004612459565b610ad4565b601054610431565b6104316108de366004612206565b610ae2565b6104aa6108f13660046123a9565b600e55565b6108fe610aed565b604051901515815260200161043b565b6104aa61091c3660046123a9565b600655565b6104aa61092f3660046123a9565b601055565b6104aa6109423660046123a9565b600955565b6104aa6109553660046123a9565b600d55565b6000610967848484610af7565b90505b9392505050565b600061097b610b20565b905090565b600061097b610b56565b600080600080610998610b82565b935093509350935090919293565b6109b08282610c75565b5050565b60006109c285858585610ce8565b95945050505050565b6000806109d783610d21565b91509150915091565b6109ed8585858585610e96565b5050505050565b600080610a088b8b8b8b8b8b8b8b8b61102b565b915091505b995099975050505050505050565b6000610a268261107a565b92915050565b600080600080610998611154565b60006109c2858585856111bb565b60006109c2858585856114ba565b610a5e6114e2565b565b6109ed84848484611520565b60008060008061099861158e565b600061096a83836115d9565b60006109678484846115f4565b600080610aa38787878787611656565b915091505b9550959350505050565b6109b08282611748565b6109b0828261180f565b6000806000806109986118d6565b60006109c2858585856119cd565b6000610a2682611a06565b600061097b611b50565b6000670de0b6b3a7640000610b0c84846115d9565b610b16908661270d565b61096791906126eb565b600554600090610b38906001600160a01b031661107a565b905080600f6000828254610b4c91906126d3565b9250508190555090565b600454600090610b6e906001600160a01b031661107a565b90508060116000828254610b4c91906126d3565b600080600080601254421115610bd85760405162461bcd60e51b81526020600482015260166024820152754d4c493a434c3a5041594d454e545f49535f4c41544560501b60448201526064015b60405180910390fd5b610be0611154565b6000601681905593975091955093509150610bfb84866126d3565b905081610c0884836126d3565b610c1291906126d3565b600554610c27906001600160a01b031661107a565b600f54610c3491906126d3565b610c3e919061272c565b600f819055508060106000828254610c5691906126d3565b90915550610c6690508383611b70565b610c6e6114e2565b5090919293565b8160106000828254610c87919061272c565b9091555050600554610ca3906001600160a01b03168284611be2565b6109b05760405162461bcd60e51b81526020600482015260166024820152751353124e90d18e9514905394d1915497d1905253115160521b6044820152606401610bcf565b600084848484604051602001610d019493929190612599565b604051602081830303815290604052805190602001209050949350505050565b60125460009081908015801590610d435750600654610d4090826126d3565b42115b610d865760405162461bcd60e51b81526020600482015260146024820152731353124e948e9393d517d25397d111519055531560621b6044820152606401610bcf565b610d8e6114e2565b600060118190556010819055600f8190556004546001600160a01b031690610db58261107a565b9450841480610dca5750610dca818686611be2565b610e165760405162461bcd60e51b815260206004820152601760248201527f4d4c493a523a435f5452414e534645525f4641494c45440000000000000000006044820152606401610bcf565b6005546001600160a01b03166000610e2d8261107a565b9450841480610e425750610e42818786611be2565b610e8e5760405162461bcd60e51b815260206004820152601760248201527f4d4c493a523a465f5452414e534645525f4641494c45440000000000000000006044820152606401610bcf565b505050915091565b6020820151610ee75760405162461bcd60e51b815260206004820152601760248201527f4d4c493a493a494e56414c49445f5052494e434950414c0000000000000000006044820152606401610bcf565b602082015160408301511115610f3f5760405162461bcd60e51b815260206004820152601e60248201527f4d4c493a493a494e56414c49445f454e44494e475f5052494e434950414c00006044820152606401610bcf565b600080546001600160a01b0319166001600160a01b038716908117909155610fa25760405162461bcd60e51b815260206004820152601660248201527526a6249d249d24a72b20a624a22fa127a92927aba2a960511b6044820152606401610bcf565b8351600480546001600160a01b03199081166001600160a01b039384161790915560208087015160058054909316931692909217905583516006558381015160078190556040808601516013558451600c5584830151600d81905585820151600e55845160085592840151600955830151600a556060830151600b556109ed9190600080611c37565b60008061103b8888878c8a611656565b90925090506001861461104e5781611050565b875b91506110608b89878d8888611d95565b61106a90826126d3565b9050995099975050505050505050565b6005546000906001600160a01b038381169116146110995760006110a9565b600f546010546110a991906126d3565b6004546001600160a01b038481169116146110c55760006110c9565b6011545b6040516370a0823160e01b81523060048201526001600160a01b038516906370a082319060240160206040518083038186803b15801561110857600080fd5b505afa15801561111c573d6000803e3d6000fd5b505050506040513d601f19601f8201168201806040525081019061114091906123c2565b61114a919061272c565b610a26919061272c565b600080600080601654670de0b6b3a7640000600954601454965086611179919061270d565b61118391906126eb565b61118d91906126d3565b601354601754919450906111a290829061270d565b9250806018546111b2919061270d565b91505090919293565b60006111c985858585610ce8565b9050806015541461121c5760405162461bcd60e51b815260206004820152601b60248201527f4d4c493a414e543a434f4d4d49544d454e545f4d49534d4154434800000000006044820152606401610bcf565b6001600160a01b0385163b6112735760405162461bcd60e51b815260206004820152601a60248201527f4d4c493a414e543a494e56414c49445f524546494e414e4345520000000000006044820152606401610bcf565b834211156112c35760405162461bcd60e51b815260206004820152601a60248201527f4d4c493a414e543a455850495245445f434f4d4d49544d454e540000000000006044820152606401610bcf565b600060075490506000806112ec4284601454600e54600854601354601254600a54600b54611e3b565b91509150816016600082825461130291906126d3565b90915550506000601581905585905b818110156113e25760008a6001600160a01b031689898481811061133757611337612759565b9050602002810190611349919061264e565b60405161135792919061254e565b600060405180830381855af49150503d8060008114611392576040519150601f19603f3d011682016040523d82523d6000602084013e611397565b606091505b50509050806113d95760405162461bcd60e51b815260206004820152600e60248201526d1353124e9053950e91905253115160921b6044820152606401610bcf565b50600101611311565b506000601354856113f3919061270d565b83601754611401919061270d565b61140b91906126eb565b905060006013548661141d919061270d565b8460185461142b919061270d565b61143591906126eb565b60075490915061144581426126d3565b60125560145461145790828585611c37565b61145f611b50565b6114ab5760405162461bcd60e51b815260206004820152601f60248201527f4d4c493a414e543a494e53554646494349454e545f434f4c4c41544552414c006044820152606401610bcf565b50505050505050949350505050565b6000816114c85760006114d4565b6114d485858585610ce8565b601581905595945050505050565b60006006819055600781905560088190556009819055600a819055600b819055600e8190556012819055601381905560148190556017819055601855565b600061152e85858585610ce8565b905080601554146115815760405162461bcd60e51b815260206004820152601b60248201527f4d4c493a524e543a434f4d4d49544d454e545f4d49534d4154434800000000006044820152606401610bcf565b6000601555949350505050565b6000806000806115b542601254600754601454600e54601354600854600a54600b5461102b565b60165491955093506115c790846126d3565b92506017549150601854905090919293565b60006301e133806115ea838561270d565b61096a91906126eb565b6000600183166116045781611606565b835b90505b60019290921c91821561096a5781611621858061270d565b61162b91906126eb565b93506001831661163a57611609565b81611645858361270d565b61164f91906126eb565b9050611609565b600080600061166586866115d9565b9050600061168d61167e83670de0b6b3a76400006126d3565b86670de0b6b3a76400006115f4565b9050670de0b6b3a764000081116116c057846116a9898b61272c565b6116b391906126eb565b6000935093505050610aa8565b60006116d4670de0b6b3a76400008361272c565b838a670de0b6b3a76400006116e9868f61270d565b6116f391906126eb565b6116fd919061272c565b611707919061270d565b61171191906126eb565b905061171e8a8989610af7565b93508381101561172f576000611739565b611739848261272c565b94505050509550959350505050565b81600f600082825461175a919061272c565b9091555050600554611776906001600160a01b03168284611be2565b6117bb5760405162461bcd60e51b81526020600482015260166024820152751353124e91118e9514905394d1915497d1905253115160521b6044820152606401610bcf565b6117c3611b50565b6109b05760405162461bcd60e51b815260206004820152601e60248201527f4d4c493a44463a494e53554646494349454e545f434f4c4c41544552414c00006044820152606401610bcf565b8160116000828254611821919061272c565b909155505060045461183d906001600160a01b03168284611be2565b6118825760405162461bcd60e51b81526020600482015260166024820152751353124e9490ce9514905394d1915497d1905253115160521b6044820152606401610bcf565b61188a611b50565b6109b05760405162461bcd60e51b815260206004820152601e60248201527f4d4c493a52433a494e53554646494349454e545f434f4c4c41544552414c00006044820152606401610bcf565b6000806000806118e461158e565b60006016819055939750919550935091506118ff84866126d3565b90508161190c84836126d3565b61191691906126d3565b60055461192b906001600160a01b031661107a565b600f5461193891906126d3565b611942919061272c565b600f81905550806010600082825461195a91906126d3565b9091555061196a90508383611b70565b60135460018114156119835761197e6114e2565b6119c5565b6007546012600082825461199791906126d3565b9250508190555085601460008282546119b0919061272c565b909155506119c1905060018261272c565b6013555b505090919293565b6000838511156119fb57826119e2858761272c565b6119ec908461270d565b6119f691906126eb565b6109c2565b506000949350505050565b60006001600160a01b038216611a565760405162461bcd60e51b815260206004820152601560248201527426a6249d23261d24a72b20a624a22fa622a72222a960591b6044820152606401610bcf565b601354601254158015611a6857508015155b611aa95760405162461bcd60e51b81526020600482015260126024820152714d4c493a464c3a4c4f414e5f41435449564560701b6044820152606401610bcf565b600754600180546001600160a01b0319166001600160a01b038616179055611ad181426126d3565b601255600d5460148190556005549093506001600160a01b031683611af58261107a565b1015611b435760405162461bcd60e51b815260206004820152601860248201527f4d4c493a464c3a57524f4e475f46554e445f414d4f554e5400000000000000006044820152606401610bcf565b505050600f819055919050565b6000611b66601454600f54600d54600c546119cd565b6011541015905090565b600154611b8e906001600160a01b0316634046af2b60e01b84611ea9565b611baa578160106000828254611ba491906126d3565b90915550505b611bc3611bb5611fb8565b63a5a2760560e01b83611ea9565b6109b0578060106000828254611bd991906126d3565b90915550505050565b604080516001600160a01b038416602482015260448082018490528251808303909101815260649091019091526020810180516001600160e01b031663a9059cbb60e01b179052600090610967908590612032565b6000611c41611fb8565b90508264496cebb80085836001600160a01b03166316a12d7a6040518163ffffffff1660e01b815260040160206040518083038186803b158015611c8457600080fd5b505afa158015611c98573d6000803e3d6000fd5b505050506040513d601f19601f82011682018060405250810190611cbc91906123c2565b611cc6908961270d565b611cd0919061270d565b611cda91906126eb565b611ce491906126d3565b6017819055508164496cebb80085836001600160a01b031663cc32d1766040518163ffffffff1660e01b815260040160206040518083038186803b158015611d2b57600080fd5b505afa158015611d3f573d6000803e3d6000fd5b505050506040513d601f19601f82011682018060405250810190611d6391906123c2565b611d6d908961270d565b611d77919061270d565b611d8191906126eb565b611d8b91906126d3565b6018555050505050565b6000838711611da657506000611e31565b6000620151806001611db8878b61272c565b611dc2919061272c565b611dcc91906126eb565b611dd79060016126d3565b611de4906201518061270d565b9050611dfa87611df485896126d3565b83610af7565b611e0490836126d3565b9150670de0b6b3a7640000611e19888661270d565b611e2391906126eb565b611e2d90836126d3565b9150505b9695505050505050565b60008084611e498b8d6126d3565b1015611e5a57506000905080610a0d565b611e648a8661272c565b611e6e908c61272c565b9050611e7d898989848a611656565b9250611e8f90508b8a89888888611d95565b611e9990836126d3565b9150995099975050505050505050565b600081611eb85750600161096a565b60408051600481526024810182526020810180516001600160e01b03166001600160e01b03198716179052905160009182916001600160a01b03881691611efe9161255e565b6000604051808303816000865af19150503d8060008114611f3b576040519150601f19603f3d011682016040523d82523d6000602084013e611f40565b606091505b5091509150811580611f5457506020815114155b15611f645760009250505061096a565b600081806020019051810190611f7a9190612223565b90506001600160a01b038116611f96576000935050505061096a565b600554611fad906001600160a01b03168287611be2565b979650505050505050565b6000611fc26120da565b6001600160a01b0316633a60339a6040518163ffffffff1660e01b815260040160206040518083038186803b158015611ffa57600080fd5b505afa15801561200e573d6000803e3d6000fd5b505050506040513d601f19601f8201168201806040525081019061097b9190612223565b60006001600160a01b0383163b61204b57506000610a26565b6060836001600160a01b031683604051612065919061255e565b6000604051808303816000865af19150503d80600081146120a2576040519150601f19603f3d011682016040523d82523d6000602084013e6120a7565b606091505b5090925090508180156120d25750805115806120d25750808060200190518101906120d29190612387565b949350505050565b60006121047f7a45a402e4cb6e08ebc196f20f66d5d30e67285a2a8aa80503fa409e727a4af15490565b919050565b600082601f83011261211a57600080fd5b6040516060810181811067ffffffffffffffff8211171561214b57634e487b7160e01b600052604160045260246000fd5b60405280836060810186101561216057600080fd5b60005b6003811015612182578135835260209283019290910190600101612163565b509195945050505050565b600082601f83011261219e57600080fd5b6040516080810181811067ffffffffffffffff821117156121cf57634e487b7160e01b600052604160045260246000fd5b6040528083608081018610156121e457600080fd5b60005b60048110156121825781358352602092830192909101906001016121e7565b60006020828403121561221857600080fd5b813561096a8161276f565b60006020828403121561223557600080fd5b815161096a8161276f565b60008060008060006101a0868803121561225957600080fd5b85356122648161276f565b94506020603f8701881361227757600080fd5b61227f61269c565b8082890160608a018b81111561229457600080fd5b60005b60028110156122bd5782356122ab8161276f565b85529385019391850191600101612297565b508298506122cb8c82612109565b975050505050506122df8760c08801612109565b91506122ef87610120880161218d565b90509295509295909350565b6000806000806060858703121561231157600080fd5b843561231c8161276f565b935060208501359250604085013567ffffffffffffffff8082111561234057600080fd5b818701915087601f83011261235457600080fd5b81358181111561236357600080fd5b8860208260051b850101111561237857600080fd5b95989497505060200194505050565b60006020828403121561239957600080fd5b8151801515811461096a57600080fd5b6000602082840312156123bb57600080fd5b5035919050565b6000602082840312156123d457600080fd5b5051919050565b600080604083850312156123ee57600080fd5b8235915060208301356124008161276f565b809150509250929050565b6000806040838503121561241e57600080fd5b50508035926020909101359150565b60008060006060848603121561244257600080fd5b505081359360208301359350604090920135919050565b6000806000806080858703121561246f57600080fd5b5050823594602084013594506040840135936060013592509050565b600080600080600060a086880312156124a357600080fd5b505083359560208501359550604085013594606081013594506080013592509050565b60008060008060008060008060006101208a8c0312156124e557600080fd5b505087359960208901359950604089013598606081013598506080810135975060a0810135965060c0810135955060e08101359450610100013592509050565b81835281816020850137506000828201602090810191909152601f909101601f19169091010190565b8183823760009101908152919050565b6000825160005b8181101561257f5760208186018101518583015201612565565b8181111561258e576000828501525b509190910192915050565b6001600160a01b0385168152602080820185905260606040830181905282018390526000906080600585901b840181019190840186845b8781101561263f57868503607f190183528135368a9003601e190181126125f657600080fd5b8901803567ffffffffffffffff81111561260f57600080fd5b8036038b131561261e57600080fd5b61262b8782888501612525565b9650505091830191908301906001016125d0565b50929998505050505050505050565b6000808335601e1984360301811261266557600080fd5b83018035915067ffffffffffffffff82111561268057600080fd5b60200191503681900382131561269557600080fd5b9250929050565b6040805190810167ffffffffffffffff811182821017156126cd57634e487b7160e01b600052604160045260246000fd5b60405290565b600082198211156126e6576126e6612743565b500190565b60008261270857634e487b7160e01b600052601260045260246000fd5b500490565b600081600019048311821515161561272757612727612743565b500290565b60008282101561273e5761273e612743565b500390565b634e487b7160e01b600052601160045260246000fd5b634e487b7160e01b600052603260045260246000fd5b6001600160a01b038116811461278457600080fd5b5056fea26469706673582212208abdaa82dec3ac41eb2afe5e1426d93e21b83d062cc6e2030d3c0980c690cb1464736f6c63430008070033",
    "linkReferences": {}
  }
}