{
  "abi": [
    {
      "inputs": [
        {
          "internalType": "address",
          "name": "token_",
          "type": "address"
        },
        {
          "internalType": "address",
          "name": "spender_",
          "type": "address"
        },
        {
          "internalType": "uint256",
          "name": "amount_",
          "type": "uint256"
        }
      ],
      "name": "erc20_approve",
      "outputs": [],
      "stateMutability": "nonpayable",
      "type": "function"
    },
    {
      "inputs": [
        {
          "internalType": "address",
          "name": "token_",
          "type": "address"
        },
        {
          "internalType": "address",
          "name": "owner_",
          "type": "address"
        },
        {
          "internalType": "address",
          "name": "spender_",
          "type": "address"
        },
        {
          "internalType": "uint256",
          "name": "amount_",
          "type": "uint256"
        },
        {
          "internalType": "uint256",
          "name": "deadline_",
          "type": "uint256"
        },
        {
          "internalType": "uint8",
          "name": "v_",
          "type": "uint8"
        },
        {
          "internalType": "bytes32",
          "name": "r_",
          "type": "bytes32"
        },
        {
          "internalType": "bytes32",
          "name": "s_",
          "type": "bytes32"
        }
      ],
      "name": "erc20_permit",
      "outputs": [],
      "stateMutability": "nonpayable",
      "type": "function"
    },
    {
      "inputs": [
        {
          "internalType": "address",
          "name": "token_",
          "type": "address"
        },
        {
          "internalType": "address",
          "name": "recipient_",
          "type": "address"
        },
        {
          "internalType": "uint256",
          "name": "amount_",
          "type": "uint256"
        }
      ],
      "name": "erc20_transfer",
      "outputs": [
        {
          "internalType": "bool",
          "name": "success_",
          "type": "bool"
        }
      ],
      "stateMutability": "nonpayable",
      "type": "function"
    },
    {
      "inputs": [
        {
          "internalType": "address",
          "name": "token_",
          "type": "address"
        },
        {
          "internalType": "address",
          "name": "owner_",
          "type": "address"
        },
        {
          "internalType": "address",
          "name": "recipient_",
          "type": "address"
        },
        {
          "internalType": "uint256",
          "name": "amount_",
          "type": "uint256"
        }
      ],
      "name": "erc20_transferFrom",
      "outputs": [
        {
          "internalType": "bool",
          "name": "success_",
          "type": "bool"
        }
      ],
      "stateMutability": "nonpayable",
      "type": "function"
    },
    {
      "inputs": [
        {
          "internalType": "address",
          "name": "loan_",
          "type": "address"
        },
        {
          "internalType": "uint256",
          "name": "amount_",
          "type": "uint256"
        }
      ],
      "name": "loan_closeLoan",
      "outputs": [
        {
          "internalType": "uint256",
          "name": "principal_",
          "type": "uint256"
        },
        {
          "internalType": "uint256",
          "name": "interest_",
          "type": "uint256"
        },
        {
          "internalType": "uint256",
          "name": "delegateFee_",
          "type": "uint256"
        },
        {
          "internalType": "uint256",
          "name": "treasuryFee_",
          "type": "uint256"
        }
      ],
      "stateMutability": "nonpayable",
      "type": "function"
    },
    {
      "inputs": [
        {
          "internalType": "address",
          "name": "loan_",
          "type": "address"
        },
        {
          "internalType": "address",
          "name": "lender_",
          "type": "address"
        },
        {
          "internalType": "uint256",
          "name": "amount_",
          "type": "uint256"
        }
      ],
      "name": "loan_fundLoan",
      "outputs": [
        {
          "internalType": "uint256",
          "name": "fundsLent_",
          "type": "uint256"
        }
      ],
      "stateMutability": "nonpayable",
      "type": "function"
    },
    {
      "inputs": [
        {
          "internalType": "address",
          "name": "loan_",
          "type": "address"
        },
        {
          "internalType": "uint256",
          "name": "amount_",
          "type": "uint256"
        }
      ],
      "name": "loan_makePayment",
      "outputs": [
        {
          "internalType": "uint256",
          "name": "principal_",
          "type": "uint256"
        },
        {
          "internalType": "uint256",
          "name": "interest_",
          "type": "uint256"
        },
        {
          "internalType": "uint256",
          "name": "delegateFee_",
          "type": "uint256"
        },
        {
          "internalType": "uint256",
          "name": "treasuryFee_",
          "type": "uint256"
        }
      ],
      "stateMutability": "nonpayable",
      "type": "function"
    },
    {
      "inputs": [
        {
          "internalType": "address",
          "name": "loan_",
          "type": "address"
        },
        {
          "internalType": "uint256",
          "name": "amount_",
          "type": "uint256"
        }
      ],
      "name": "loan_postCollateral",
      "outputs": [
        {
          "internalType": "uint256",
          "name": "collateralPosted_",
          "type": "uint256"
        }
      ],
      "stateMutability": "nonpayable",
      "type": "function"
    },
    {
      "inputs": [
        {
          "internalType": "address",
          "name": "loan_",
          "type": "address"
        },
        {
          "internalType": "address",
          "name": "refinancer_",
          "type": "address"
        },
        {
          "internalType": "uint256",
          "name": "deadline_",
          "type": "uint256"
        },
        {
          "internalType": "bytes[]",
          "name": "calls_",
          "type": "bytes[]"
        }
      ],
      "name": "loan_rejectNewTerms",
      "outputs": [],
      "stateMutability": "nonpayable",
      "type": "function"
    },
    {
      "inputs": [
        {
          "internalType": "address",
          "name": "loan_",
          "type": "address"
        },
        {
          "internalType": "uint256",
          "name": "amount_",
          "type": "uint256"
        }
      ],
      "name": "loan_returnFunds",
      "outputs": [
        {
          "internalType": "uint256",
          "name": "fundsReturned_",
          "type": "uint256"
        }
      ],
      "stateMutability": "nonpayable",
      "type": "function"
    },
    {
      "inputs": [
        {
          "internalType": "address",
          "name": "loan_",
          "type": "address"
        },
        {
          "internalType": "address",
          "name": "token_",
          "type": "address"
        },
        {
          "internalType": "address",
          "name": "destination_",
          "type": "address"
        }
      ],
      "name": "loan_skim",
      "outputs": [
        {
          "internalType": "uint256",
          "name": "fundsReturned_",
          "type": "uint256"
        }
      ],
      "stateMutability": "nonpayable",
      "type": "function"
    },
    {
      "inputs": [
        {
          "internalType": "address",
          "name": "loan_",
          "type": "address"
        },
        {
          "internalType": "uint256",
          "name": "amount_",
          "type": "uint256"
        }
      ],
      "name": "try_loan_closeLoan",
      "outputs": [
        {
          "internalType": "bool",
          "name": "ok_",
          "type": "bool"
        }
      ],
      "stateMutability": "nonpayable",
      "type": "function"
    },
    {
      "inputs": [
        {
          "internalType": "address",
          "name": "loan_",
          "type": "address"
        },
        {
          "internalType": "address",
          "name": "lender_",
          "type": "address"
        },
        {
          "internalType": "uint256",
          "name": "amount_",
          "type": "uint256"
        }
      ],
      "name": "try_loan_fundLoan",
      "outputs": [
        {
          "internalType": "bool",
          "name": "ok_",
          "type": "bool"
        }
      ],
      "stateMutability": "nonpayable",
      "type": "function"
    },
    {
      "inputs": [
        {
          "internalType": "address",
          "name": "loan_",
          "type": "address"
        },
        {
          "internalType": "uint256",
          "name": "amount_",
          "type": "uint256"
        }
      ],
      "name": "try_loan_makePayment",
      "outputs": [
        {
          "internalType": "bool",
          "name": "ok_",
          "type": "bool"
        }
      ],
      "stateMutability": "nonpayable",
      "type": "function"
    },
    {
      "inputs": [
        {
          "internalType": "address",
          "name": "loan_",
          "type": "address"
        },
        {
          "internalType": "uint256",
          "name": "amount_",
          "type": "uint256"
        }
      ],
      "name": "try_loan_postCollateral",
      "outputs": [
        {
          "internalType": "bool",
          "name": "ok_",
          "type": "bool"
        }
      ],
      "stateMutability": "nonpayable",
      "type": "function"
    },
    {
      "inputs": [
        {
          "internalType": "address",
          "name": "loan_",
          "type": "address"
        },
        {
          "internalType": "uint256",
          "name": "amount_",
          "type": "uint256"
        }
      ],
      "name": "try_loan_returnFunds",
      "outputs": [
        {
          "internalType": "bool",
          "name": "ok_",
          "type": "bool"
        }
      ],
      "stateMutability": "nonpayable",
      "type": "function"
    },
    {
      "inputs": [
        {
          "internalType": "address",
          "name": "loan_",
          "type": "address"
        },
        {
          "internalType": "address",
          "name": "token_",
          "type": "address"
        },
        {
          "internalType": "address",
          "name": "destination_",
          "type": "address"
        }
      ],
      "name": "try_loan_skim",
      "outputs": [
        {
          "internalType": "bool",
          "name": "ok_",
          "type": "bool"
        }
      ],
      "stateMutability": "nonpayable",
      "type": "function"
    }
  ],
  "bytecode": {
    "object": "0x608060405234801561001057600080fd5b50610d85806100206000396000f3fe608060405234801561001057600080fd5b506004361061010b5760003560e01c8063687468d1116100a25780638b196cd5116100715780638b196cd514610239578063afb7a0f61461024c578063b6a0f3311461025f578063d75edca414610272578063fc179d671461028557600080fd5b8063687468d1146101ed5780637327de97146102005780637c2e27d4146102135780637fe255811461022657600080fd5b80633d73ea8f116100de5780633d73ea8f146101a1578063429bf6c8146101b457806351cf23b1146101c7578063574c7844146101da57600080fd5b8063035e30b31461011057806305eee8e7146101385780631649e2ef1461014d5780632893a76e14610180575b600080fd5b61012361011e366004610ac1565b610298565b60405190151581526020015b60405180910390f35b61014b610146366004610a3e565b610351565b005b61016061015b366004610b9b565b6103e3565b60408051948552602085019390935291830152606082015260800161012f565b61019361018e366004610b9b565b610479565b60405190815260200161012f565b6101936101af366004610b9b565b6104fe565b6101606101c2366004610b9b565b61052e565b61014b6101d5366004610ac1565b610562565b61014b6101e8366004610afd565b6105ea565b6101236101fb366004610b9b565b610655565b61012361020e3660046109b0565b610706565b610123610221366004610b9b565b610739565b610123610234366004610ac1565b610760565b610193610247366004610ac1565b6107ee565b61019361025a3660046109b0565b610875565b61012361026d366004610b9b565b6108af565b610123610280366004610b9b565b6108d6565b6101236102933660046109f3565b6108fd565b6040516001600160a01b038381166024830152604482018390526000919085169063e920b1e160e01b906064015b60408051601f198184030181529181526020820180516001600160e01b03166001600160e01b03199094169390931790925290516103049190610c5f565b6000604051808303816000865af19150503d8060008114610341576040519150601f19603f3d011682016040523d82523d6000602084013e610346565b606091505b509095945050505050565b60405163d505accf60e01b81526001600160a01b0388811660048301528781166024830152604482018790526064820186905260ff8516608483015260a4820184905260c4820183905289169063d505accf9060e401600060405180830381600087803b1580156103c157600080fd5b505af11580156103d5573d6000803e3d6000fd5b505050505050505050505050565b600080600080856001600160a01b031663d05951a0866040518263ffffffff1660e01b815260040161041791815260200190565b608060405180830381600087803b15801561043157600080fd5b505af1158015610445573d6000803e3d6000fd5b505050506040513d601f19601f820116820180604052508101906104699190610c00565b9299919850965090945092505050565b6040516322baaeeb60e11b8152600481018290526000906001600160a01b038416906345755dd6906024015b602060405180830381600087803b1580156104bf57600080fd5b505af11580156104d3573d6000803e3d6000fd5b505050506040513d601f19601f820116820180604052508101906104f79190610be7565b9392505050565b6040516350f2012f60e01b8152600481018290526000906001600160a01b038416906350f2012f906024016104a5565b600080600080856001600160a01b0316635114cb52866040518263ffffffff1660e01b815260040161041791815260200190565b60405163095ea7b360e01b81526001600160a01b0383811660048301526024820183905284169063095ea7b390604401602060405180830381600087803b1580156105ac57600080fd5b505af11580156105c0573d6000803e3d6000fd5b505050506040513d601f19601f820116820180604052508101906105e49190610bc5565b50505050565b604051632b2d48ad60e21b81526001600160a01b0386169063acb522b49061061c908790879087908790600401610c9a565b600060405180830381600087803b15801561063657600080fd5b505af115801561064a573d6000803e3d6000fd5b505050505050505050565b6000826001600160a01b03166350f2012f60e01b8360405160240161067c91815260200190565b60408051601f198184030181529181526020820180516001600160e01b03166001600160e01b03199094169390931790925290516106ba9190610c5f565b6000604051808303816000865af19150503d80600081146106f7576040519150601f19603f3d011682016040523d82523d6000602084013e6106fc565b606091505b5090949350505050565b6040516001600160a01b03838116602483015282811660448301526000919085169063712b772f60e01b906064016102c6565b6000826001600160a01b03166345755dd660e01b8360405160240161067c91815260200190565b60405163a9059cbb60e01b81526001600160a01b038381166004830152602482018390526000919085169063a9059cbb90604401602060405180830381600087803b1580156107ae57600080fd5b505af11580156107c2573d6000803e3d6000fd5b505050506040513d601f19601f820116820180604052508101906107e69190610bc5565b949350505050565b60405163e920b1e160e01b81526001600160a01b038381166004830152602482018390526000919085169063e920b1e1906044015b602060405180830381600087803b15801561083d57600080fd5b505af1158015610851573d6000803e3d6000fd5b505050506040513d601f19601f820116820180604052508101906107e69190610be7565b60405163712b772f60e01b81526001600160a01b03838116600483015282811660248301526000919085169063712b772f90604401610823565b6000826001600160a01b031663d05951a060e01b8360405160240161067c91815260200190565b6000826001600160a01b0316635114cb5260e01b8360405160240161067c91815260200190565b6040516323b872dd60e01b81526001600160a01b038481166004830152838116602483015260448201839052600091908616906323b872dd90606401602060405180830381600087803b15801561095357600080fd5b505af1158015610967573d6000803e3d6000fd5b505050506040513d601f19601f8201168201806040525081019061098b9190610bc5565b95945050505050565b80356001600160a01b03811681146109ab57600080fd5b919050565b6000806000606084860312156109c557600080fd5b6109ce84610994565b92506109dc60208501610994565b91506109ea60408501610994565b90509250925092565b60008060008060808587031215610a0957600080fd5b610a1285610994565b9350610a2060208601610994565b9250610a2e60408601610994565b9396929550929360600135925050565b600080600080600080600080610100898b031215610a5b57600080fd5b610a6489610994565b9750610a7260208a01610994565b9650610a8060408a01610994565b9550606089013594506080890135935060a089013560ff81168114610aa457600080fd5b979a969950949793969295929450505060c08201359160e0013590565b600080600060608486031215610ad657600080fd5b610adf84610994565b9250610aed60208501610994565b9150604084013590509250925092565b600080600080600060808688031215610b1557600080fd5b610b1e86610994565b9450610b2c60208701610994565b935060408601359250606086013567ffffffffffffffff80821115610b5057600080fd5b818801915088601f830112610b6457600080fd5b813581811115610b7357600080fd5b8960208260051b8501011115610b8857600080fd5b9699959850939650602001949392505050565b60008060408385031215610bae57600080fd5b610bb783610994565b946020939093013593505050565b600060208284031215610bd757600080fd5b815180151581146104f757600080fd5b600060208284031215610bf957600080fd5b5051919050565b60008060008060808587031215610c1657600080fd5b505082516020840151604085015160609095015191969095509092509050565b81835281816020850137506000828201602090810191909152601f909101601f19169091010190565b6000825160005b81811015610c805760208186018101518583015201610c66565b81811115610c8f576000828501525b509190910192915050565b6001600160a01b0385168152602080820185905260606040830181905282018390526000906080600585901b840181019190840186845b87811015610d4057868503607f190183528135368a9003601e19018112610cf757600080fd5b8901803567ffffffffffffffff811115610d1057600080fd5b8036038b1315610d1f57600080fd5b610d2c8782888501610c36565b965050509183019190830190600101610cd1565b5092999850505050505050505056fea26469706673582212208699aa5bf5f70f2bebf686f81c6a92f0953b5b1c5a666dd89d43342941eb679e64736f6c63430008070033",
    "linkReferences": {}
  }
}