{
  "abi": [
    {
      "inputs": [
        {
          "internalType": "address",
          "name": "mapleGlobals_",
          "type": "address"
        }
      ],
      "stateMutability": "nonpayable",
      "type": "constructor"
    },
    {
      "anonymous": false,
      "inputs": [
        {
          "indexed": true,
          "internalType": "uint256",
          "name": "version_",
          "type": "uint256"
        }
      ],
      "name": "DefaultVersionSet",
      "type": "event"
    },
    {
      "anonymous": false,
      "inputs": [
        {
          "indexed": true,
          "internalType": "uint256",
          "name": "version_",
          "type": "uint256"
        },
        {
          "indexed": true,
          "internalType": "address",
          "name": "implementationAddress_",
          "type": "address"
        },
        {
          "indexed": true,
          "internalType": "address",
          "name": "initializer_",
          "type": "address"
        }
      ],
      "name": "ImplementationRegistered",
      "type": "event"
    },
    {
      "anonymous": false,
      "inputs": [
        {
          "indexed": true,
          "internalType": "uint256",
          "name": "version_",
          "type": "uint256"
        },
        {
          "indexed": true,
          "internalType": "address",
          "name": "instance_",
          "type": "address"
        },
        {
          "indexed": false,
          "internalType": "bytes",
          "name": "initializationArguments_",
          "type": "bytes"
        }
      ],
      "name": "InstanceDeployed",
      "type": "event"
    },
    {
      "anonymous": false,
      "inputs": [
        {
          "indexed": true,
          "internalType": "address",
          "name": "instance_",
          "type": "address"
        },
        {
          "indexed": true,
          "internalType": "uint256",
          "name": "fromVersion_",
          "type": "uint256"
        },
        {
          "indexed": true,
          "internalType": "uint256",
          "name": "toVersion_",
          "type": "uint256"
        },
        {
          "indexed": false,
          "internalType": "bytes",
          "name": "migrationArguments_",
          "type": "bytes"
        }
      ],
      "name": "InstanceUpgraded",
      "type": "event"
    },
    {
      "anonymous": false,
      "inputs": [
        {
          "indexed": true,
          "internalType": "address",
          "name": "mapleGlobals_",
          "type": "address"
        }
      ],
      "name": "MapleGlobalsSet",
      "type": "event"
    },
    {
      "anonymous": false,
      "inputs": [
        {
          "indexed": true,
          "internalType": "uint256",
          "name": "fromVersion_",
          "type": "uint256"
        },
        {
          "indexed": true,
          "internalType": "uint256",
          "name": "toVersion_",
          "type": "uint256"
        }
      ],
      "name": "UpgradePathDisabled",
      "type": "event"
    },
    {
      "anonymous": false,
      "inputs": [
        {
          "indexed": true,
          "internalType": "uint256",
          "name": "fromVersion_",
          "type": "uint256"
        },
        {
          "indexed": true,
          "internalType": "uint256",
          "name": "toVersion_",
          "type": "uint256"
        },
        {
          "indexed": true,
          "internalType": "address",
          "name": "migrator_",
          "type": "address"
        }
      ],
      "name": "UpgradePathEnabled",
      "type": "event"
    },
    {
      "inputs": [
        {
          "internalType": "bytes",
          "name": "arguments_",
          "type": "bytes"
        },
        {
          "internalType": "bytes32",
          "name": "salt_",
          "type": "bytes32"
        }
      ],
      "name": "createInstance",
      "outputs": [
        {
          "internalType": "address",
          "name": "instance_",
          "type": "address"
        }
      ],
      "stateMutability": "nonpayable",
      "type": "function"
    },
    {
      "inputs": [],
      "name": "defaultImplementation",
      "outputs": [
        {
          "internalType": "address",
          "name": "defaultImplementation_",
          "type": "address"
        }
      ],
      "stateMutability": "view",
      "type": "function"
    },
    {
      "inputs": [],
      "name": "defaultVersion",
      "outputs": [
        {
          "internalType": "uint256",
          "name": "",
          "type": "uint256"
        }
      ],
      "stateMutability": "view",
      "type": "function"
    },
    {
      "inputs": [
        {
          "internalType": "uint256",
          "name": "fromVersion_",
          "type": "uint256"
        },
        {
          "internalType": "uint256",
          "name": "toVersion_",
          "type": "uint256"
        }
      ],
      "name": "disableUpgradePath",
      "outputs": [],
      "stateMutability": "nonpayable",
      "type": "function"
    },
    {
      "inputs": [
        {
          "internalType": "uint256",
          "name": "fromVersion_",
          "type": "uint256"
        },
        {
          "internalType": "uint256",
          "name": "toVersion_",
          "type": "uint256"
        },
        {
          "internalType": "address",
          "name": "migrator_",
          "type": "address"
        }
      ],
      "name": "enableUpgradePath",
      "outputs": [],
      "stateMutability": "nonpayable",
      "type": "function"
    },
    {
      "inputs": [
        {
          "internalType": "bytes",
          "name": "arguments_",
          "type": "bytes"
        },
        {
          "internalType": "bytes32",
          "name": "salt_",
          "type": "bytes32"
        }
      ],
      "name": "getInstanceAddress",
      "outputs": [
        {
          "internalType": "address",
          "name": "instanceAddress_",
          "type": "address"
        }
      ],
      "stateMutability": "view",
      "type": "function"
    },
    {
      "inputs": [
        {
          "internalType": "uint256",
          "name": "version_",
          "type": "uint256"
        }
      ],
      "name": "implementationOf",
      "outputs": [
        {
          "internalType": "address",
          "name": "implementation_",
          "type": "address"
        }
      ],
      "stateMutability": "view",
      "type": "function"
    },
    {
      "inputs": [
        {
          "internalType": "address",
          "name": "",
          "type": "address"
        }
      ],
      "name": "isLoan",
      "outputs": [
        {
          "internalType": "bool",
          "name": "",
          "type": "bool"
        }
      ],
      "stateMutability": "view",
      "type": "function"
    },
    {
      "inputs": [],
      "name": "mapleGlobals",
      "outputs": [
        {
          "internalType": "address",
          "name": "",
          "type": "address"
        }
      ],
      "stateMutability": "view",
      "type": "function"
    },
    {
      "inputs": [
        {
          "internalType": "uint256",
          "name": "oldVersion_",
          "type": "uint256"
        },
        {
          "internalType": "uint256",
          "name": "newVersion_",
          "type": "uint256"
        }
      ],
      "name": "migratorForPath",
      "outputs": [
        {
          "internalType": "address",
          "name": "migrator_",
          "type": "address"
        }
      ],
      "stateMutability": "view",
      "type": "function"
    },
    {
      "inputs": [
        {
          "internalType": "uint256",
          "name": "version_",
          "type": "uint256"
        },
        {
          "internalType": "address",
          "name": "implementationAddress_",
          "type": "address"
        },
        {
          "internalType": "address",
          "name": "initializer_",
          "type": "address"
        }
      ],
      "name": "registerImplementation",
      "outputs": [],
      "stateMutability": "nonpayable",
      "type": "function"
    },
    {
      "inputs": [
        {
          "internalType": "uint256",
          "name": "version_",
          "type": "uint256"
        }
      ],
      "name": "setDefaultVersion",
      "outputs": [],
      "stateMutability": "nonpayable",
      "type": "function"
    },
    {
      "inputs": [
        {
          "internalType": "address",
          "name": "mapleGlobals_",
          "type": "address"
        }
      ],
      "name": "setGlobals",
      "outputs": [],
      "stateMutability": "nonpayable",
      "type": "function"
    },
    {
      "inputs": [
        {
          "internalType": "uint256",
          "name": "",
          "type": "uint256"
        },
        {
          "internalType": "uint256",
          "name": "",
          "type": "uint256"
        }
      ],
      "name": "upgradeEnabledForPath",
      "outputs": [
        {
          "internalType": "bool",
          "name": "",
          "type": "bool"
        }
      ],
      "stateMutability": "view",
      "type": "function"
    },
    {
      "inputs": [
        {
          "internalType": "uint256",
          "name": "toVersion_",
          "type": "uint256"
        },
        {
          "internalType": "bytes",
          "name": "arguments_",
          "type": "bytes"
        }
      ],
      "name": "upgradeInstance",
      "outputs": [],
      "stateMutability": "nonpayable",
      "type": "function"
    },
    {
      "inputs": [
        {
          "internalType": "address",
          "name": "implementation_",
          "type": "address"
        }
      ],
      "name": "versionOf",
      "outputs": [
        {
          "internalType": "uint256",
          "name": "version_",
          "type": "uint256"
        }
      ],
      "stateMutability": "view",
      "type": "function"
    }
  ],
  "bytecode": {
    "object": "0x60806040523480156200001157600080fd5b5060405162001ccb38038062001ccb83398101604081905262000034916200013e565b8060006001600160a01b031681600360006101000a8154816001600160a01b0302191690836001600160a01b0316021790556001600160a01b0316630c340a246040518163ffffffff1660e01b815260040160206040518083038186803b1580156200009f57600080fd5b505afa158015620000b4573d6000803e3d6000fd5b505050506040513d601f19601f82011682018060405250810190620000da91906200013e565b6001600160a01b03161415620001365760405162461bcd60e51b815260206004820152601560248201527f4d50463a433a494e56414c49445f474c4f42414c530000000000000000000000604482015260640160405180910390fd5b505062000170565b6000602082840312156200015157600080fd5b81516001600160a01b03811681146200016957600080fd5b9392505050565b611b4b80620001806000396000f3fe60806040523480156200001157600080fd5b5060043610620001155760003560e01c80638636f07e11620000a3578063b4e6747f116200006e578063b4e6747f14620002a0578063cc2e0a2614620002b7578063d867e0de14620002ce578063fe69f70814620002ff57600080fd5b80638636f07e1462000225578063881829121462000251578063b28317bf1462000268578063b39c4593146200027f57600080fd5b80632819cbc211620000e45780632819cbc214620001ac5780633a60339a14620001e3578063517b657f14620001f757806385b8a52f146200020e57600080fd5b80630db3ff45146200011a5780630e6e4b25146200015957806312700bae14620001895780631798d48214620001a2575b600080fd5b620001466200012b366004620015f3565b6001600160a01b031660009081526001602052604090205490565b6040519081526020015b60405180910390f35b620001706200016a36600462001633565b62000316565b6040516001600160a01b03909116815260200162000150565b620001a06200019a3660046200169d565b62000359565b005b6200014660045481565b620001d2620001bd366004620015f3565b60066020526000908152604090205460ff1681565b604051901515815260200162000150565b60035462000170906001600160a01b031681565b620001706200020836600462001633565b62000562565b620001706200021f36600462001734565b620005a9565b620001706200023636600462001683565b6000908152602081905260409020546001600160a01b031690565b620001a06200026236600462001734565b620005d3565b620001a06200027936600462001757565b6200077f565b6004546000908152602081905260409020546001600160a01b031662000170565b620001a0620002b136600462001683565b62000939565b620001a0620002c8366004620015f3565b62000a9b565b620001d2620002df36600462001734565b600560209081526000928352604080842090915290825290205460ff1681565b620001a062000310366004620016e4565b62000c74565b60006200034f848484604051602001620003339392919062001788565b6040516020818303038152906040528051906020012062000e37565b90505b9392505050565b600360009054906101000a90046001600160a01b03166001600160a01b0316630c340a246040518163ffffffff1660e01b815260040160206040518083038186803b158015620003a857600080fd5b505afa158015620003bd573d6000803e3d6000fd5b505050506040513d601f19601f82011682018060405250810190620003e3919062001613565b6001600160a01b0316336001600160a01b0316146200041f5760405162461bcd60e51b815260040162000416906200185e565b60405180910390fd5b82620004675760405162461bcd60e51b815260206004820152601660248201527526a8231d29249d24a72b20a624a22fab22a929a4a7a760511b604482015260640162000416565b806001600160a01b0316826001600160a01b0316847fe69962526b7f07862bf85663f861564361295f9601236fbbe056591eb1b63f3b60405160405180910390a4620004b4838362000f12565b620005025760405162461bcd60e51b815260206004820152601e60248201527f4d50463a52493a4641494c5f464f525f494d504c454d454e544154494f4e0000604482015260640162000416565b6200050f83848362000fbe565b6200055d5760405162461bcd60e51b815260206004820152601860248201527f4d50463a52493a4641494c5f464f525f4d49475241544f520000000000000000604482015260640162000416565b505050565b60006001600660006200057787878762001048565b6001600160a01b03811682526020820192909252604001600020805460ff191692151592909217909155949350505050565b60008281526002602090815260408083208484529091529020546001600160a01b03165b92915050565b600360009054906101000a90046001600160a01b03166001600160a01b0316630c340a246040518163ffffffff1660e01b815260040160206040518083038186803b1580156200062257600080fd5b505afa15801562000637573d6000803e3d6000fd5b505050506040513d601f19601f820116820180604052508101906200065d919062001613565b6001600160a01b0316336001600160a01b031614620006905760405162461bcd60e51b815260040162000416906200185e565b80821415620006e25760405162461bcd60e51b815260206004820152601f60248201527f4d50463a4455503a4f56455257524954494e475f494e495449414c495a455200604482015260640162000416565b620006f08282600062000fbe565b6200072f5760405162461bcd60e51b815260206004820152600e60248201526d1354118e9115540e91905253115160921b604482015260640162000416565b604051819083907fa46f1addc2236b7d93ed2a8a507f1c47cc92656d2b6f82bf0876da9e964b9e5e90600090a360009182526005602090815260408084209284529190529020805460ff19169055565b600360009054906101000a90046001600160a01b03166001600160a01b0316630c340a246040518163ffffffff1660e01b815260040160206040518083038186803b158015620007ce57600080fd5b505afa158015620007e3573d6000803e3d6000fd5b505050506040513d601f19601f8201168201806040525081019062000809919062001613565b6001600160a01b0316336001600160a01b0316146200083c5760405162461bcd60e51b815260040162000416906200185e565b818314156200088e5760405162461bcd60e51b815260206004820152601f60248201527f4d50463a4555503a4f56455257524954494e475f494e495449414c495a455200604482015260640162000416565b6200089b83838362000fbe565b620008da5760405162461bcd60e51b815260206004820152600e60248201526d1354118e9155540e91905253115160921b604482015260640162000416565b806001600160a01b031682847f549a41e54b51dcc3f29b51bb02a8adcc4ec5ae26604608e41bde60311dcef10660405160405180910390a45060009182526005602090815260408084209284529190529020805460ff19166001179055565b600360009054906101000a90046001600160a01b03166001600160a01b0316630c340a246040518163ffffffff1660e01b815260040160206040518083038186803b1580156200098857600080fd5b505afa1580156200099d573d6000803e3d6000fd5b505050506040513d601f19601f82011682018060405250810190620009c3919062001613565b6001600160a01b0316336001600160a01b031614620009f65760405162461bcd60e51b815260040162000416906200185e565b80158062000a1a57506000818152602081905260409020546001600160a01b031615155b62000a685760405162461bcd60e51b815260206004820152601760248201527f4d50463a5344563a494e56414c49445f56455253494f4e000000000000000000604482015260640162000416565b600481905560405181907fddb2013cf7f102d15447c4c1e94cf56823455f02eb244d0c3b2ef6516338934690600090a250565b600360009054906101000a90046001600160a01b03166001600160a01b0316630c340a246040518163ffffffff1660e01b815260040160206040518083038186803b15801562000aea57600080fd5b505afa15801562000aff573d6000803e3d6000fd5b505050506040513d601f19601f8201168201806040525081019062000b25919062001613565b6001600160a01b0316336001600160a01b03161462000b585760405162461bcd60e51b815260040162000416906200185e565b60006001600160a01b0316816001600160a01b0316630c340a246040518163ffffffff1660e01b815260040160206040518083038186803b15801562000b9d57600080fd5b505afa15801562000bb2573d6000803e3d6000fd5b505050506040513d601f19601f8201168201806040525081019062000bd8919062001613565b6001600160a01b0316141562000c2a5760405162461bcd60e51b81526020600482015260166024820152754d50463a53473a494e56414c49445f474c4f42414c5360501b604482015260640162000416565b600380546001600160a01b0319166001600160a01b0383169081179091556040517f9074839b84a74138be159cb7813a72c2a44c35fe8c53da66a16da385d348c5f190600090a250565b600060016000336001600160a01b0316635c60da1b6040518163ffffffff1660e01b815260040160206040518083038186803b15801562000cb457600080fd5b505afa15801562000cc9573d6000803e3d6000fd5b505050506040513d601f19601f8201168201806040525081019062000cef919062001613565b6001600160a01b03168152602080820192909252604090810160009081205480825260058452828220888352909352205490915060ff1662000d695760405162461bcd60e51b81526020600482015260126024820152711354118e95524e9393d517d0531313d5d15160721b604482015260640162000416565b8381336001600160a01b03167ffbb4f36b70dba8ecedc8b38361f44f1b0c61e04ec4e0ccf620649dc558573f5f868660405162000da89291906200182f565b60405180910390a462000df3338585858080601f0160208091040260200160405190810160405280939291908181526020018383808284376000920191909152506200114b92505050565b62000e315760405162461bcd60e51b815260206004820152600d60248201526c1354118e95524e919052531151609a1b604482015260640162000416565b50505050565b600060ff60f81b30836040518060200162000e529062001599565b601f1982820381018352601f90910116604081815230602083015260009082015260600160408051601f198184030181529082905262000e969291602001620017b8565b6040516020818303038152906040528051906020012060405160200162000ef494939291906001600160f81b031994909416845260609290921b6bffffffffffffffffffffffff191660018401526015830152603582015260550190565b60408051601f19818403018152919052805160209091012092915050565b600082158062000f3857506000838152602081905260409020546001600160a01b031615155b8062000f5b57506001600160a01b03821660009081526001602052604090205415155b8062000f6f57506001600160a01b0382163b155b1562000f7e57506000620005cd565b5060008281526020818152604080832080546001600160a01b0319166001600160a01b039590951694851790559282526001908190529190209190915590565b600083158062000fcc575082155b1562000fdb5750600062000352565b6001600160a01b0382161580159062000ffc57506001600160a01b0382163b155b156200100b5750600062000352565b506000928352600260209081526040808520938552929052912080546001600160a01b0319166001600160a01b0392909216919091179055600190565b600080620010b885858080601f016020809104026020016040519081016040528093929190818152602001838380828437600092019190915250506040516200109c92508991508890889060200162001788565b6040516020818303038152906040528051906020012062001363565b9250905080620010fb5760405162461bcd60e51b815260206004820152600d60248201526c1354118e90d24e919052531151609a1b604482015260640162000416565b816001600160a01b03166004547f8919387fe006fdc29a3dfcc183071d7974bc03747fedb0019630f1e13f85cc6487876040516200113b9291906200182f565b60405180910390a3509392505050565b60006001600160a01b0384163b620011665750600062000352565b6000838152602081905260409020546001600160a01b0316806200118f57600091505062000352565b60006200119c8662001401565b909350905082620011b35760009250505062000352565b604080516001600160a01b0384811660248084019190915283518084039091018152604490920183526020820180516001600160e01b0316636bc26a1360e11b1790529151918816916200120891906200179a565b6000604051808303816000865af19150503d806000811462001247576040519150601f19603f3d011682016040523d82523d6000602084013e6200124c565b606091505b50508093505082620012645760009250505062000352565b6001600160a01b038082166000908152600160209081526040808320548352600282528083208984529091529020541680620012aa576000855114935050505062000352565b866001600160a01b031663c3fbb6fd60e01b8287604051602401620012d1929190620017eb565b60408051601f198184030181529181526020820180516001600160e01b03166001600160e01b03199094169390931790925290516200131191906200179a565b6000604051808303816000865af19150503d806000811462001350576040519150601f19603f3d011682016040523d82523d6000602084013e62001355565b606091505b509098975050505050505050565b60008082306000604051620013789062001599565b6001600160a01b039283168152911660208201526040018190604051809103906000f5905080158015620013b0573d6000803e3d6000fd5b5090506000620013c08262001401565b6001600160a01b03811660009081526001602052604090205490925090508015801590620013f65750620013f6838288620014b1565b935050509250929050565b60408051600481526024810182526020810180516001600160e01b0316635c60da1b60e01b179052905160009182916060916001600160a01b038616916200144a91906200179a565b600060405180830381855afa9150503d806000811462001487576040519150601f19603f3d011682016040523d82523d6000602084013e6200148c565b606091505b5080519194509150620014a9908201602090810190830162001613565b915050915091565b60008281526002602090815260408083209091528120546001600160a01b031680620014e257505080511562000352565b846001600160a01b031663c3fbb6fd60e01b828560405160240162001509929190620017eb565b60408051601f198184030181529181526020820180516001600160e01b03166001600160e01b03199094169390931790925290516200154991906200179a565b6000604051808303816000865af19150503d806000811462001588576040519150601f19603f3d011682016040523d82523d6000602084013e6200158d565b606091505b50909695505050505050565b61024580620018d183390190565b60008083601f840112620015ba57600080fd5b50813567ffffffffffffffff811115620015d357600080fd5b602083019150836020828501011115620015ec57600080fd5b9250929050565b6000602082840312156200160657600080fd5b81356200035281620018b7565b6000602082840312156200162657600080fd5b81516200035281620018b7565b6000806000604084860312156200164957600080fd5b833567ffffffffffffffff8111156200166157600080fd5b6200166f86828701620015a7565b909790965060209590950135949350505050565b6000602082840312156200169657600080fd5b5035919050565b600080600060608486031215620016b357600080fd5b833592506020840135620016c781620018b7565b91506040840135620016d981620018b7565b809150509250925092565b600080600060408486031215620016fa57600080fd5b83359250602084013567ffffffffffffffff8111156200171957600080fd5b6200172786828701620015a7565b9497909650939450505050565b600080604083850312156200174857600080fd5b50508035926020909101359150565b6000806000606084860312156200176d57600080fd5b83359250602084013591506040840135620016d981620018b7565b82848237909101908152602001919050565b60008251620017ae81846020870162001888565b9190910192915050565b60008351620017cc81846020880162001888565b835190830190620017e281836020880162001888565b01949350505050565b60018060a01b038316815260406020820152600082518060408401526200181a81606085016020870162001888565b601f01601f1916919091016060019392505050565b60208152816020820152818360408301376000818301604090810191909152601f909201601f19160101919050565b60208082526010908201526f26a8231d2727aa2fa3a7ab22a92727a960811b604082015260600190565b60005b83811015620018a55781810151838201526020016200188b565b8381111562000e315750506000910152565b6001600160a01b0381168114620018cd57600080fd5b5056fe608060405234801561001057600080fd5b5060405161024538038061024583398101604081905261002f91610169565b6001600160a01b0382167f7a45a402e4cb6e08ebc196f20f66d5d30e67285a2a8aa80503fa409e727a4af15560006001600160a01b0382161561007257816100e3565b826001600160a01b031663b39c45936040518163ffffffff1660e01b815260040160206040518083038186803b1580156100ab57600080fd5b505afa1580156100bf573d6000803e3d6000fd5b505050506040513d601f19601f820116820180604052508101906100e39190610147565b90506001600160a01b0381166100f857600080fd5b6001600160a01b03167f360894a13ba1a3210667c828492db98dca3e2076cc3735a920a3ca505d382bbc555061019c9050565b80516001600160a01b038116811461014257600080fd5b919050565b60006020828403121561015957600080fd5b6101628261012b565b9392505050565b6000806040838503121561017c57600080fd5b6101858361012b565b91506101936020840161012b565b90509250929050565b609b806101aa6000396000f3fe60806040526000602d7f360894a13ba1a3210667c828492db98dca3e2076cc3735a920a3ca505d382bbc5490565b90506001600160a01b0381163b604257600080fd5b3660008037600080366000845af43d6000803e8080156060573d6000f35b3d6000fdfea264697066735822122013a25b98319c27a40db55f3631c97987f28084748f8435e37093bc0c0c85c4f764736f6c63430008070033a2646970667358221220898162477168b04ff32b360f0394c201ce3fff44a6e6598573b73d75e85b327364736f6c63430008070033",
    "linkReferences": {}
  }
}