{
  "abi": [
    {
      "inputs": [
        {
          "internalType": "string",
          "name": "name_",
          "type": "string"
        },
        {
          "internalType": "string",
          "name": "symbol_",
          "type": "string"
        },
        {
          "internalType": "uint8",
          "name": "decimals_",
          "type": "uint8"
        }
      ],
      "stateMutability": "nonpayable",
      "type": "constructor"
    },
    {
      "anonymous": false,
      "inputs": [
        {
          "indexed": true,
          "internalType": "address",
          "name": "owner_",
          "type": "address"
        },
        {
          "indexed": true,
          "internalType": "address",
          "name": "spender_",
          "type": "address"
        },
        {
          "indexed": false,
          "internalType": "uint256",
          "name": "amount_",
          "type": "uint256"
        }
      ],
      "name": "Approval",
      "type": "event"
    },
    {
      "anonymous": false,
      "inputs": [
        {
          "indexed": true,
          "internalType": "address",
          "name": "owner_",
          "type": "address"
        },
        {
          "indexed": true,
          "internalType": "address",
          "name": "recipient_",
          "type": "address"
        },
        {
          "indexed": false,
          "internalType": "uint256",
          "name": "amount_",
          "type": "uint256"
        }
      ],
      "name": "Transfer",
      "type": "event"
    },
    {
      "inputs": [],
      "name": "DOMAIN_SEPARATOR",
      "outputs": [
        {
          "internalType": "bytes32",
          "name": "domainSeparator_",
          "type": "bytes32"
        }
      ],
      "stateMutability": "view",
      "type": "function"
    },
    {
      "inputs": [],
      "name": "PERMIT_TYPEHASH",
      "outputs": [
        {
          "internalType": "bytes32",
          "name": "",
          "type": "bytes32"
        }
      ],
      "stateMutability": "view",
      "type": "function"
    },
    {
      "inputs": [
        {
          "internalType": "address",
          "name": "",
          "type": "address"
        },
        {
          "internalType": "address",
          "name": "",
          "type": "address"
        }
      ],
      "name": "allowance",
      "outputs": [
        {
          "internalType": "uint256",
          "name": "",
          "type": "uint256"
        }
      ],
      "stateMutability": "view",
      "type": "function"
    },
    {
      "inputs": [
        {
          "internalType": "address",
          "name": "spender_",
          "type": "address"
        },
        {
          "internalType": "uint256",
          "name": "amount_",
          "type": "uint256"
        }
      ],
      "name": "approve",
      "outputs": [
        {
          "internalType": "bool",
          "name": "success_",
          "type": "bool"
        }
      ],
      "stateMutability": "nonpayable",
      "type": "function"
    },
    {
      "inputs": [
        {
          "internalType": "address",
          "name": "",
          "type": "address"
        }
      ],
      "name": "balanceOf",
      "outputs": [
        {
          "internalType": "uint256",
          "name": "",
          "type": "uint256"
        }
      ],
      "stateMutability": "view",
      "type": "function"
    },
    {
      "inputs": [],
      "name": "decimals",
      "outputs": [
        {
          "internalType": "uint8",
          "name": "",
          "type": "uint8"
        }
      ],
      "stateMutability": "view",
      "type": "function"
    },
    {
      "inputs": [
        {
          "internalType": "address",
          "name": "spender_",
          "type": "address"
        },
        {
          "internalType": "uint256",
          "name": "subtractedAmount_",
          "type": "uint256"
        }
      ],
      "name": "decreaseAllowance",
      "outputs": [
        {
          "internalType": "bool",
          "name": "success_",
          "type": "bool"
        }
      ],
      "stateMutability": "nonpayable",
      "type": "function"
    },
    {
      "inputs": [
        {
          "internalType": "address",
          "name": "spender_",
          "type": "address"
        },
        {
          "internalType": "uint256",
          "name": "addedAmount_",
          "type": "uint256"
        }
      ],
      "name": "increaseAllowance",
      "outputs": [
        {
          "internalType": "bool",
          "name": "success_",
          "type": "bool"
        }
      ],
      "stateMutability": "nonpayable",
      "type": "function"
    },
    {
      "inputs": [],
      "name": "name",
      "outputs": [
        {
          "internalType": "string",
          "name": "",
          "type": "string"
        }
      ],
      "stateMutability": "view",
      "type": "function"
    },
    {
      "inputs": [
        {
          "internalType": "address",
          "name": "",
          "type": "address"
        }
      ],
      "name": "nonces",
      "outputs": [
        {
          "internalType": "uint256",
          "name": "",
          "type": "uint256"
        }
      ],
      "stateMutability": "view",
      "type": "function"
    },
    {
      "inputs": [
        {
          "internalType": "address",
          "name": "owner_",
          "type": "address"
        },
        {
          "internalType": "address",
          "name": "spender_",
          "type": "address"
        },
        {
          "internalType": "uint256",
          "name": "amount_",
          "type": "uint256"
        },
        {
          "internalType": "uint256",
          "name": "deadline_",
          "type": "uint256"
        },
        {
          "internalType": "uint8",
          "name": "v_",
          "type": "uint8"
        },
        {
          "internalType": "bytes32",
          "name": "r_",
          "type": "bytes32"
        },
        {
          "internalType": "bytes32",
          "name": "s_",
          "type": "bytes32"
        }
      ],
      "name": "permit",
      "outputs": [],
      "stateMutability": "nonpayable",
      "type": "function"
    },
    {
      "inputs": [],
      "name": "symbol",
      "outputs": [
        {
          "internalType": "string",
          "name": "",
          "type": "string"
        }
      ],
      "stateMutability": "view",
      "type": "function"
    },
    {
      "inputs": [],
      "name": "totalSupply",
      "outputs": [
        {
          "internalType": "uint256",
          "name": "",
          "type": "uint256"
        }
      ],
      "stateMutability": "view",
      "type": "function"
    },
    {
      "inputs": [
        {
          "internalType": "address",
          "name": "recipient_",
          "type": "address"
        },
        {
          "internalType": "uint256",
          "name": "amount_",
          "type": "uint256"
        }
      ],
      "name": "transfer",
      "outputs": [
        {
          "internalType": "bool",
          "name": "success_",
          "type": "bool"
        }
      ],
      "stateMutability": "nonpayable",
      "type": "function"
    },
    {
      "inputs": [
        {
          "internalType": "address",
          "name": "owner_",
          "type": "address"
        },
        {
          "internalType": "address",
          "name": "recipient_",
          "type": "address"
        },
        {
          "internalType": "uint256",
          "name": "amount_",
          "type": "uint256"
        }
      ],
      "name": "transferFrom",
      "outputs": [
        {
          "internalType": "bool",
          "name": "success_",
          "type": "bool"
        }
      ],
      "stateMutability": "nonpayable",
      "type": "function"
    }
  ],
  "bytecode": {
    "object": "0x60a06040523480156200001157600080fd5b5060405162000de638038062000de68339810160408190526200003491620001ee565b82516200004990600090602086019062000091565b5081516200005f90600190602085019062000091565b5060f81b7fff000000000000000000000000000000000000000000000000000000000000001660805250620002c69050565b8280546200009f9062000273565b90600052602060002090601f016020900481019282620000c357600085556200010e565b82601f10620000de57805160ff19168380011785556200010e565b828001600101855582156200010e579182015b828111156200010e578251825591602001919060010190620000f1565b506200011c92915062000120565b5090565b5b808211156200011c576000815560010162000121565b600082601f8301126200014957600080fd5b81516001600160401b0380821115620001665762000166620002b0565b604051601f8301601f19908116603f01168101908282118183101715620001915762000191620002b0565b81604052838152602092508683858801011115620001ae57600080fd5b600091505b83821015620001d25785820183015181830184015290820190620001b3565b83821115620001e45760008385830101525b9695505050505050565b6000806000606084860312156200020457600080fd5b83516001600160401b03808211156200021c57600080fd5b6200022a8783880162000137565b945060208601519150808211156200024157600080fd5b50620002508682870162000137565b925050604084015160ff811681146200026857600080fd5b809150509250925092565b600181811c908216806200028857607f821691505b60208210811415620002aa57634e487b7160e01b600052602260045260246000fd5b50919050565b634e487b7160e01b600052604160045260246000fd5b60805160f81c610b01620002e560003960006101910152610b016000f3fe608060405234801561001057600080fd5b50600436106100f55760003560e01c80633950935111610097578063a457c2d711610066578063a457c2d714610228578063a9059cbb1461023b578063d505accf1461024e578063dd62ed3e1461026357600080fd5b806339509351146101cd57806370a08231146101e05780637ecebe001461020057806395d89b411461022057600080fd5b806323b872dd116100d357806323b872dd1461015257806330adf81f14610165578063313ce5671461018c5780633644e515146101c557600080fd5b806306fdde03146100fa578063095ea7b31461011857806318160ddd1461013b575b600080fd5b61010261028e565b60405161010f91906109f6565b60405180910390f35b61012b610126366004610930565b61031c565b604051901515815260200161010f565b61014460025481565b60405190815260200161010f565b61012b610160366004610881565b610332565b6101447f6e71edae12b1b97f4d1f60370fef10105fa2faae0126114a169c64845d6126c981565b6101b37f000000000000000000000000000000000000000000000000000000000000000081565b60405160ff909116815260200161010f565b610144610354565b61012b6101db366004610930565b610403565b6101446101ee36600461082c565b60036020526000908152604090205481565b61014461020e36600461082c565b60056020526000908152604090205481565b61010261043f565b61012b610236366004610930565b61044c565b61012b610249366004610930565b610459565b61026161025c3660046108bd565b610466565b005b61014461027136600461084e565b600460209081526000928352604080842090915290825290205481565b6000805461029b90610a7a565b80601f01602080910402602001604051908101604052809291908181526020018280546102c790610a7a565b80156103145780601f106102e957610100808354040283529160200191610314565b820191906000526020600020905b8154815290600101906020018083116102f757829003601f168201915b505050505081565b60006103293384846106e7565b50600192915050565b600061033f843384610749565b61034a84848461078d565b5060019392505050565b60007f8b73c3c69bb8fe3d512ecc4cf759cc79239f7b179b0ffacaa9a75d522b39400f6000604051610386919061095a565b60408051918290038220828201825260018352603160f81b6020938401528151928301939093528101919091527fc89efdaa54c0f20c7adf612882df0950f5a951637e0307cdcb4c672f298b8bc660608201524660808201523060a082015260c00160405160208183030381529060405280519060200120905090565b3360008181526004602090815260408083206001600160a01b0387168452909152812054909161032991859061043a908690610a4b565b6106e7565b6001805461029b90610a7a565b6000610329338484610749565b600061032933848461078d565b428410156104ad5760405162461bcd60e51b815260206004820152600f60248201526e115490cc8c0e940e91561412549151608a1b60448201526064015b60405180910390fd5b7f7fffffffffffffffffffffffffffffff5d576e7357a4501ddfe92f46681b20a081118015906104ed57508260ff16601b14806104ed57508260ff16601c145b61052d5760405162461bcd60e51b815260206004820152601160248201527045524332303a503a4d414c4c4541424c4560781b60448201526064016104a4565b6000610537610354565b6001600160a01b0389811660008181526005602090815260409182902080546001810190915582517f6e71edae12b1b97f4d1f60370fef10105fa2faae0126114a169c64845d6126c98184015280840194909452938c166060840152608083018b905260a083019390935260c08083018a90528151808403909101815260e08301909152805192019190912061190160f01b6101008301526101028201929092526101228101919091526101420160408051601f198184030181528282528051602091820120600080855291840180845281905260ff88169284019290925260608301869052608083018590529092509060019060a0016020604051602081039080840390855afa158015610650573d6000803e3d6000fd5b505050602060405103519050886001600160a01b0316816001600160a01b031614801561068557506001600160a01b03891615155b6106d15760405162461bcd60e51b815260206004820152601960248201527f45524332303a503a494e56414c49445f5349474e41545552450000000000000060448201526064016104a4565b50506106de8787876106e7565b50505050505050565b6001600160a01b0383811660008181526004602090815260408083209487168084529482529182902085905590518481527f8c5be1e5ebec7d5bd14f71427d1e84f3dd0314c0f7b2291e5b200ac8c7c3b92591015b60405180910390a3505050565b6001600160a01b03808416600090815260046020908152604080832093861683529290522054600019811461078757610787848461043a8585610a63565b50505050565b6001600160a01b038316600090815260036020526040812080548392906107b5908490610a63565b90915550506001600160a01b03808316600081815260036020526040908190208054850190555190918516907fddf252ad1be2c89b69c2b068fc378daa952ba7f163c4a11628f55a4df523b3ef9061073c9085815260200190565b80356001600160a01b038116811461082757600080fd5b919050565b60006020828403121561083e57600080fd5b61084782610810565b9392505050565b6000806040838503121561086157600080fd5b61086a83610810565b915061087860208401610810565b90509250929050565b60008060006060848603121561089657600080fd5b61089f84610810565b92506108ad60208501610810565b9150604084013590509250925092565b600080600080600080600060e0888a0312156108d857600080fd5b6108e188610810565b96506108ef60208901610810565b95506040880135945060608801359350608088013560ff8116811461091357600080fd5b9699959850939692959460a0840135945060c09093013592915050565b6000806040838503121561094357600080fd5b61094c83610810565b946020939093013593505050565b600080835481600182811c91508083168061097657607f831692505b602080841082141561099657634e487b7160e01b86526022600452602486fd5b8180156109aa57600181146109bb576109e8565b60ff198616895284890196506109e8565b60008a81526020902060005b868110156109e05781548b8201529085019083016109c7565b505084890196505b509498975050505050505050565b600060208083528351808285015260005b81811015610a2357858101830151858201604001528201610a07565b81811115610a35576000604083870101525b50601f01601f1916929092016040019392505050565b60008219821115610a5e57610a5e610ab5565b500190565b600082821015610a7557610a75610ab5565b500390565b600181811c90821680610a8e57607f821691505b60208210811415610aaf57634e487b7160e01b600052602260045260246000fd5b50919050565b634e487b7160e01b600052601160045260246000fdfea26469706673582212206a9b989dc548a75ab683b590532ef8a809d980a969ce1b4ce0ff78db38f7bc3464736f6c63430008070033",
    "linkReferences": {}
  }
}