{
  "abi": [
    {
      "inputs": [
        {
          "internalType": "address",
          "name": "token_",
          "type": "address"
        },
        {
          "internalType": "address",
          "name": "spender_",
          "type": "address"
        },
        {
          "internalType": "uint256",
          "name": "amount_",
          "type": "uint256"
        }
      ],
      "name": "erc20_approve",
      "outputs": [],
      "stateMutability": "nonpayable",
      "type": "function"
    },
    {
      "inputs": [
        {
          "internalType": "address",
          "name": "token_",
          "type": "address"
        },
        {
          "internalType": "address",
          "name": "owner_",
          "type": "address"
        },
        {
          "internalType": "address",
          "name": "spender_",
          "type": "address"
        },
        {
          "internalType": "uint256",
          "name": "amount_",
          "type": "uint256"
        },
        {
          "internalType": "uint256",
          "name": "deadline_",
          "type": "uint256"
        },
        {
          "internalType": "uint8",
          "name": "v_",
          "type": "uint8"
        },
        {
          "internalType": "bytes32",
          "name": "r_",
          "type": "bytes32"
        },
        {
          "internalType": "bytes32",
          "name": "s_",
          "type": "bytes32"
        }
      ],
      "name": "erc20_permit",
      "outputs": [],
      "stateMutability": "nonpayable",
      "type": "function"
    },
    {
      "inputs": [
        {
          "internalType": "address",
          "name": "token_",
          "type": "address"
        },
        {
          "internalType": "address",
          "name": "recipient_",
          "type": "address"
        },
        {
          "internalType": "uint256",
          "name": "amount_",
          "type": "uint256"
        }
      ],
      "name": "erc20_transfer",
      "outputs": [
        {
          "internalType": "bool",
          "name": "success_",
          "type": "bool"
        }
      ],
      "stateMutability": "nonpayable",
      "type": "function"
    },
    {
      "inputs": [
        {
          "internalType": "address",
          "name": "token_",
          "type": "address"
        },
        {
          "internalType": "address",
          "name": "owner_",
          "type": "address"
        },
        {
          "internalType": "address",
          "name": "recipient_",
          "type": "address"
        },
        {
          "internalType": "uint256",
          "name": "amount_",
          "type": "uint256"
        }
      ],
      "name": "erc20_transferFrom",
      "outputs": [
        {
          "internalType": "bool",
          "name": "success_",
          "type": "bool"
        }
      ],
      "stateMutability": "nonpayable",
      "type": "function"
    },
    {
      "inputs": [
        {
          "internalType": "address",
          "name": "loan_",
          "type": "address"
        }
      ],
      "name": "loan_acceptLender",
      "outputs": [],
      "stateMutability": "nonpayable",
      "type": "function"
    },
    {
      "inputs": [
        {
          "internalType": "address",
          "name": "loan_",
          "type": "address"
        },
        {
          "internalType": "address",
          "name": "refinancer_",
          "type": "address"
        },
        {
          "internalType": "uint256",
          "name": "deadline_",
          "type": "uint256"
        },
        {
          "internalType": "bytes[]",
          "name": "calls_",
          "type": "bytes[]"
        },
        {
          "internalType": "uint256",
          "name": "amount_",
          "type": "uint256"
        }
      ],
      "name": "loan_acceptNewTerms",
      "outputs": [],
      "stateMutability": "nonpayable",
      "type": "function"
    },
    {
      "inputs": [
        {
          "internalType": "address",
          "name": "loan_",
          "type": "address"
        },
        {
          "internalType": "uint256",
          "name": "amount_",
          "type": "uint256"
        },
        {
          "internalType": "address",
          "name": "destination_",
          "type": "address"
        }
      ],
      "name": "loan_claimFunds",
      "outputs": [],
      "stateMutability": "nonpayable",
      "type": "function"
    },
    {
      "inputs": [
        {
          "internalType": "address",
          "name": "loan_",
          "type": "address"
        },
        {
          "internalType": "uint256",
          "name": "amount_",
          "type": "uint256"
        }
      ],
      "name": "loan_closeLoan",
      "outputs": [
        {
          "internalType": "uint256",
          "name": "principal_",
          "type": "uint256"
        },
        {
          "internalType": "uint256",
          "name": "interest_",
          "type": "uint256"
        },
        {
          "internalType": "uint256",
          "name": "delegateFee_",
          "type": "uint256"
        },
        {
          "internalType": "uint256",
          "name": "treasuryFee_",
          "type": "uint256"
        }
      ],
      "stateMutability": "nonpayable",
      "type": "function"
    },
    {
      "inputs": [
        {
          "internalType": "address",
          "name": "loan_",
          "type": "address"
        },
        {
          "internalType": "address",
          "name": "lender_",
          "type": "address"
        },
        {
          "internalType": "uint256",
          "name": "amount_",
          "type": "uint256"
        }
      ],
      "name": "loan_fundLoan",
      "outputs": [
        {
          "internalType": "uint256",
          "name": "fundsLent_",
          "type": "uint256"
        }
      ],
      "stateMutability": "nonpayable",
      "type": "function"
    },
    {
      "inputs": [
        {
          "internalType": "address",
          "name": "loan_",
          "type": "address"
        },
        {
          "internalType": "uint256",
          "name": "amount_",
          "type": "uint256"
        }
      ],
      "name": "loan_makePayment",
      "outputs": [
        {
          "internalType": "uint256",
          "name": "principal_",
          "type": "uint256"
        },
        {
          "internalType": "uint256",
          "name": "interest_",
          "type": "uint256"
        },
        {
          "internalType": "uint256",
          "name": "delegateFee_",
          "type": "uint256"
        },
        {
          "internalType": "uint256",
          "name": "treasuryFee_",
          "type": "uint256"
        }
      ],
      "stateMutability": "nonpayable",
      "type": "function"
    },
    {
      "inputs": [
        {
          "internalType": "address",
          "name": "loan_",
          "type": "address"
        },
        {
          "internalType": "uint256",
          "name": "amount_",
          "type": "uint256"
        }
      ],
      "name": "loan_postCollateral",
      "outputs": [
        {
          "internalType": "uint256",
          "name": "collateralPosted_",
          "type": "uint256"
        }
      ],
      "stateMutability": "nonpayable",
      "type": "function"
    },
    {
      "inputs": [
        {
          "internalType": "address",
          "name": "loan_",
          "type": "address"
        },
        {
          "internalType": "address",
          "name": "refinancer_",
          "type": "address"
        },
        {
          "internalType": "uint256",
          "name": "deadline_",
          "type": "uint256"
        },
        {
          "internalType": "bytes[]",
          "name": "calls_",
          "type": "bytes[]"
        }
      ],
      "name": "loan_rejectNewTerms",
      "outputs": [],
      "stateMutability": "nonpayable",
      "type": "function"
    },
    {
      "inputs": [
        {
          "internalType": "address",
          "name": "loan_",
          "type": "address"
        },
        {
          "internalType": "address",
          "name": "destination_",
          "type": "address"
        }
      ],
      "name": "loan_repossess",
      "outputs": [
        {
          "internalType": "uint256",
          "name": "collateralRepossessed_",
          "type": "uint256"
        },
        {
          "internalType": "uint256",
          "name": "fundsRepossessed_",
          "type": "uint256"
        }
      ],
      "stateMutability": "nonpayable",
      "type": "function"
    },
    {
      "inputs": [
        {
          "internalType": "address",
          "name": "loan_",
          "type": "address"
        },
        {
          "internalType": "uint256",
          "name": "amount_",
          "type": "uint256"
        }
      ],
      "name": "loan_returnFunds",
      "outputs": [
        {
          "internalType": "uint256",
          "name": "fundsReturned_",
          "type": "uint256"
        }
      ],
      "stateMutability": "nonpayable",
      "type": "function"
    },
    {
      "inputs": [
        {
          "internalType": "address",
          "name": "loan_",
          "type": "address"
        },
        {
          "internalType": "address",
          "name": "lender_",
          "type": "address"
        }
      ],
      "name": "loan_setPendingLender",
      "outputs": [],
      "stateMutability": "nonpayable",
      "type": "function"
    },
    {
      "inputs": [
        {
          "internalType": "address",
          "name": "loan_",
          "type": "address"
        },
        {
          "internalType": "address",
          "name": "token_",
          "type": "address"
        },
        {
          "internalType": "address",
          "name": "destination_",
          "type": "address"
        }
      ],
      "name": "loan_skim",
      "outputs": [
        {
          "internalType": "uint256",
          "name": "fundsReturned_",
          "type": "uint256"
        }
      ],
      "stateMutability": "nonpayable",
      "type": "function"
    },
    {
      "inputs": [
        {
          "internalType": "address",
          "name": "loan_",
          "type": "address"
        }
      ],
      "name": "try_loan_acceptLender",
      "outputs": [
        {
          "internalType": "bool",
          "name": "ok_",
          "type": "bool"
        }
      ],
      "stateMutability": "nonpayable",
      "type": "function"
    },
    {
      "inputs": [
        {
          "internalType": "address",
          "name": "loan_",
          "type": "address"
        },
        {
          "internalType": "address",
          "name": "refinancer_",
          "type": "address"
        },
        {
          "internalType": "uint256",
          "name": "deadline_",
          "type": "uint256"
        },
        {
          "internalType": "bytes[]",
          "name": "calls_",
          "type": "bytes[]"
        },
        {
          "internalType": "uint256",
          "name": "amount_",
          "type": "uint256"
        }
      ],
      "name": "try_loan_acceptNewTerms",
      "outputs": [
        {
          "internalType": "bool",
          "name": "ok_",
          "type": "bool"
        }
      ],
      "stateMutability": "nonpayable",
      "type": "function"
    },
    {
      "inputs": [
        {
          "internalType": "address",
          "name": "loan_",
          "type": "address"
        },
        {
          "internalType": "uint256",
          "name": "amount_",
          "type": "uint256"
        },
        {
          "internalType": "address",
          "name": "destination_",
          "type": "address"
        }
      ],
      "name": "try_loan_claimFunds",
      "outputs": [
        {
          "internalType": "bool",
          "name": "ok_",
          "type": "bool"
        }
      ],
      "stateMutability": "nonpayable",
      "type": "function"
    },
    {
      "inputs": [
        {
          "internalType": "address",
          "name": "loan_",
          "type": "address"
        },
        {
          "internalType": "uint256",
          "name": "amount_",
          "type": "uint256"
        }
      ],
      "name": "try_loan_closeLoan",
      "outputs": [
        {
          "internalType": "bool",
          "name": "ok_",
          "type": "bool"
        }
      ],
      "stateMutability": "nonpayable",
      "type": "function"
    },
    {
      "inputs": [
        {
          "internalType": "address",
          "name": "loan_",
          "type": "address"
        },
        {
          "internalType": "address",
          "name": "lender_",
          "type": "address"
        },
        {
          "internalType": "uint256",
          "name": "amount_",
          "type": "uint256"
        }
      ],
      "name": "try_loan_fundLoan",
      "outputs": [
        {
          "internalType": "bool",
          "name": "ok_",
          "type": "bool"
        }
      ],
      "stateMutability": "nonpayable",
      "type": "function"
    },
    {
      "inputs": [
        {
          "internalType": "address",
          "name": "loan_",
          "type": "address"
        },
        {
          "internalType": "uint256",
          "name": "amount_",
          "type": "uint256"
        }
      ],
      "name": "try_loan_makePayment",
      "outputs": [
        {
          "internalType": "bool",
          "name": "ok_",
          "type": "bool"
        }
      ],
      "stateMutability": "nonpayable",
      "type": "function"
    },
    {
      "inputs": [
        {
          "internalType": "address",
          "name": "loan_",
          "type": "address"
        },
        {
          "internalType": "uint256",
          "name": "amount_",
          "type": "uint256"
        }
      ],
      "name": "try_loan_postCollateral",
      "outputs": [
        {
          "internalType": "bool",
          "name": "ok_",
          "type": "bool"
        }
      ],
      "stateMutability": "nonpayable",
      "type": "function"
    },
    {
      "inputs": [
        {
          "internalType": "address",
          "name": "loan_",
          "type": "address"
        },
        {
          "internalType": "address",
          "name": "destination_",
          "type": "address"
        }
      ],
      "name": "try_loan_repossess",
      "outputs": [
        {
          "internalType": "bool",
          "name": "ok_",
          "type": "bool"
        }
      ],
      "stateMutability": "nonpayable",
      "type": "function"
    },
    {
      "inputs": [
        {
          "internalType": "address",
          "name": "loan_",
          "type": "address"
        },
        {
          "internalType": "uint256",
          "name": "amount_",
          "type": "uint256"
        }
      ],
      "name": "try_loan_returnFunds",
      "outputs": [
        {
          "internalType": "bool",
          "name": "ok_",
          "type": "bool"
        }
      ],
      "stateMutability": "nonpayable",
      "type": "function"
    },
    {
      "inputs": [
        {
          "internalType": "address",
          "name": "loan_",
          "type": "address"
        },
        {
          "internalType": "address",
          "name": "lender_",
          "type": "address"
        }
      ],
      "name": "try_loan_setPendingLender",
      "outputs": [
        {
          "internalType": "bool",
          "name": "ok_",
          "type": "bool"
        }
      ],
      "stateMutability": "nonpayable",
      "type": "function"
    },
    {
      "inputs": [
        {
          "internalType": "address",
          "name": "loan_",
          "type": "address"
        },
        {
          "internalType": "address",
          "name": "token_",
          "type": "address"
        },
        {
          "internalType": "address",
          "name": "destination_",
          "type": "address"
        }
      ],
      "name": "try_loan_skim",
      "outputs": [
        {
          "internalType": "bool",
          "name": "ok_",
          "type": "bool"
        }
      ],
      "stateMutability": "nonpayable",
      "type": "function"
    }
  ],
  "bytecode": {
    "object": "0x608060405234801561001057600080fd5b50611455806100206000396000f3fe608060405234801561001057600080fd5b50600436106101a95760003560e01c80637327de97116100f9578063afb7a0f611610097578063c2b63f4f11610071578063c2b63f4f146103bd578063d75edca4146103d0578063ec16a8d8146103e3578063fc179d67146103f657600080fd5b8063afb7a0f614610384578063b6a0f33114610397578063c1a3c9d7146103aa57600080fd5b80638b196cd5116100d35780638b196cd51461033857806398e5c2341461034b578063a18814da1461035e578063ac8a05011461037157600080fd5b80637327de97146102ff5780637c2e27d4146103125780637fe255811461032557600080fd5b80633d73ea8f1161016657806351cf23b11161014057806351cf23b1146102b3578063574c7844146102c6578063687468d1146102d95780636c202fcb146102ec57600080fd5b80633d73ea8f14610265578063429bf6c8146102785780635100d1211461028b57600080fd5b8063035e30b3146101ae57806305eee8e7146101d65780631515a116146101eb5780631649e2ef146101fe578063188b80b8146102315780632893a76e14610244575b600080fd5b6101c16101bc3660046110aa565b610409565b60405190151581526020015b60405180910390f35b6101e96101e4366004611027565b6104c2565b005b6101e96101f9366004610f4b565b610554565b61021161020c3660046111cc565b6105aa565b6040805194855260208501939093529183015260608201526080016101cd565b6101e961023f366004611155565b610640565b6102576102523660046111cc565b6106ae565b6040519081526020016101cd565b6102576102733660046111cc565b610733565b6102116102863660046111cc565b610763565b61029e610299366004610f66565b610797565b604080519283526020830191909152016101cd565b6101e96102c13660046110aa565b610822565b6101e96102d43660046110e6565b6108aa565b6101c16102e73660046111cc565b610915565b6101c16102fa366004611155565b6109c6565b6101c161030d366004610f99565b610a81565b6101c16103203660046111cc565b610ab4565b6101c16103333660046110aa565b610adb565b6102576103463660046110aa565b610b69565b6101c1610359366004610f66565b610bf0565b6101c161036c3660046111f6565b610c1b565b6101e961037f366004610f66565b610c4d565b610257610392366004610f99565b610cac565b6101c16103a53660046111cc565b610ce6565b6101c16103b8366004610f66565b610d0d565b6101e96103cb3660046111f6565b610d38565b6101c16103de3660046111cc565b610d9f565b6101c16103f1366004610f4b565b610dc6565b6101c1610404366004610fdc565b610e53565b6040516001600160a01b038381166024830152604482018390526000919085169063e920b1e160e01b906064015b60408051601f198184030181529181526020820180516001600160e01b03166001600160e01b03199094169390931790925290516104759190611378565b6000604051808303816000865af19150503d80600081146104b2576040519150601f19603f3d011682016040523d82523d6000602084013e6104b7565b606091505b509095945050505050565b60405163d505accf60e01b81526001600160a01b0388811660048301528781166024830152604482018790526064820186905260ff8516608483015260a4820184905260c4820183905289169063d505accf9060e401600060405180830381600087803b15801561053257600080fd5b505af1158015610546573d6000803e3d6000fd5b505050505050505050505050565b806001600160a01b0316630fe3d9b76040518163ffffffff1660e01b8152600401600060405180830381600087803b15801561058f57600080fd5b505af11580156105a3573d6000803e3d6000fd5b5050505050565b600080600080856001600160a01b031663d05951a0866040518263ffffffff1660e01b81526004016105de91815260200190565b608060405180830381600087803b1580156105f857600080fd5b505af115801561060c573d6000803e3d6000fd5b505050506040513d601f19601f820116820180604052508101906106309190611288565b9299919850965090945092505050565b6040516328565a7760e11b81526001600160a01b038716906350acb4ee9061067490889088908890889088906004016113e5565b600060405180830381600087803b15801561068e57600080fd5b505af11580156106a2573d6000803e3d6000fd5b50505050505050505050565b6040516322baaeeb60e11b8152600481018290526000906001600160a01b038416906345755dd6906024015b602060405180830381600087803b1580156106f457600080fd5b505af1158015610708573d6000803e3d6000fd5b505050506040513d601f19601f8201168201806040525081019061072c919061124b565b9392505050565b6040516350f2012f60e01b8152600481018290526000906001600160a01b038416906350f2012f906024016106da565b600080600080856001600160a01b0316635114cb52866040518263ffffffff1660e01b81526004016105de91815260200190565b6040516347350e9f60e01b81526001600160a01b03828116600483015260009182918516906347350e9f906024016040805180830381600087803b1580156107de57600080fd5b505af11580156107f2573d6000803e3d6000fd5b505050506040513d601f19601f820116820180604052508101906108169190611264565b915091505b9250929050565b60405163095ea7b360e01b81526001600160a01b0383811660048301526024820183905284169063095ea7b390604401602060405180830381600087803b15801561086c57600080fd5b505af1158015610880573d6000803e3d6000fd5b505050506040513d601f19601f820116820180604052508101906108a49190611229565b50505050565b604051632b2d48ad60e21b81526001600160a01b0386169063acb522b4906108dc9087908790879087906004016113b3565b600060405180830381600087803b1580156108f657600080fd5b505af115801561090a573d6000803e3d6000fd5b505050505050505050565b6000826001600160a01b03166350f2012f60e01b8360405160240161093c91815260200190565b60408051601f198184030181529181526020820180516001600160e01b03166001600160e01b031990941693909317909252905161097a9190611378565b6000604051808303816000865af19150503d80600081146109b7576040519150601f19603f3d011682016040523d82523d6000602084013e6109bc565b606091505b5090949350505050565b6000866001600160a01b03166350acb4ee60e01b87878787876040516024016109f39594939291906113e5565b60408051601f198184030181529181526020820180516001600160e01b03166001600160e01b0319909416939093179092529051610a319190611378565b6000604051808303816000865af19150503d8060008114610a6e576040519150601f19603f3d011682016040523d82523d6000602084013e610a73565b606091505b509098975050505050505050565b6040516001600160a01b03838116602483015282811660448301526000919085169063712b772f60e01b90606401610437565b6000826001600160a01b03166345755dd660e01b8360405160240161093c91815260200190565b60405163a9059cbb60e01b81526001600160a01b038381166004830152602482018390526000919085169063a9059cbb90604401602060405180830381600087803b158015610b2957600080fd5b505af1158015610b3d573d6000803e3d6000fd5b505050506040513d601f19601f82011682018060405250810190610b619190611229565b949350505050565b60405163e920b1e160e01b81526001600160a01b038381166004830152602482018390526000919085169063e920b1e1906044015b602060405180830381600087803b158015610bb857600080fd5b505af1158015610bcc573d6000803e3d6000fd5b505050506040513d601f19601f82011682018060405250810190610b61919061124b565b6040516001600160a01b038281166024830152600091908416906347350e9f60e01b9060440161093c565b604051602481018390526001600160a01b0382811660448301526000919085169063390d685560e01b90606401610437565b60405163267f4ac360e01b81526001600160a01b03828116600483015283169063267f4ac390602401600060405180830381600087803b158015610c9057600080fd5b505af1158015610ca4573d6000803e3d6000fd5b505050505050565b60405163712b772f60e01b81526001600160a01b03838116600483015282811660248301526000919085169063712b772f90604401610b9e565b6000826001600160a01b031663d05951a060e01b8360405160240161093c91815260200190565b6040516001600160a01b0382811660248301526000919084169063267f4ac360e01b9060440161093c565b60405163390d685560e01b8152600481018390526001600160a01b03828116602483015284169063390d685590604401600060405180830381600087803b158015610d8257600080fd5b505af1158015610d96573d6000803e3d6000fd5b50505050505050565b6000826001600160a01b0316635114cb5260e01b8360405160240161093c91815260200190565b60408051600481526024810182526020810180516001600160e01b0316630fe3d9b760e01b17905290516000916001600160a01b03841691610e089190611378565b6000604051808303816000865af19150503d8060008114610e45576040519150601f19603f3d011682016040523d82523d6000602084013e610e4a565b606091505b50909392505050565b6040516323b872dd60e01b81526001600160a01b038481166004830152838116602483015260448201839052600091908616906323b872dd90606401602060405180830381600087803b158015610ea957600080fd5b505af1158015610ebd573d6000803e3d6000fd5b505050506040513d601f19601f82011682018060405250810190610ee19190611229565b95945050505050565b80356001600160a01b0381168114610f0157600080fd5b919050565b60008083601f840112610f1857600080fd5b50813567ffffffffffffffff811115610f3057600080fd5b6020830191508360208260051b850101111561081b57600080fd5b600060208284031215610f5d57600080fd5b61072c82610eea565b60008060408385031215610f7957600080fd5b610f8283610eea565b9150610f9060208401610eea565b90509250929050565b600080600060608486031215610fae57600080fd5b610fb784610eea565b9250610fc560208501610eea565b9150610fd360408501610eea565b90509250925092565b60008060008060808587031215610ff257600080fd5b610ffb85610eea565b935061100960208601610eea565b925061101760408601610eea565b9396929550929360600135925050565b600080600080600080600080610100898b03121561104457600080fd5b61104d89610eea565b975061105b60208a01610eea565b965061106960408a01610eea565b9550606089013594506080890135935060a089013560ff8116811461108d57600080fd5b979a969950949793969295929450505060c08201359160e0013590565b6000806000606084860312156110bf57600080fd5b6110c884610eea565b92506110d660208501610eea565b9150604084013590509250925092565b6000806000806000608086880312156110fe57600080fd5b61110786610eea565b945061111560208701610eea565b935060408601359250606086013567ffffffffffffffff81111561113857600080fd5b61114488828901610f06565b969995985093965092949392505050565b60008060008060008060a0878903121561116e57600080fd5b61117787610eea565b955061118560208801610eea565b945060408701359350606087013567ffffffffffffffff8111156111a857600080fd5b6111b489828a01610f06565b979a9699509497949695608090950135949350505050565b600080604083850312156111df57600080fd5b6111e883610eea565b946020939093013593505050565b60008060006060848603121561120b57600080fd5b61121484610eea565b925060208401359150610fd360408501610eea565b60006020828403121561123b57600080fd5b8151801515811461072c57600080fd5b60006020828403121561125d57600080fd5b5051919050565b6000806040838503121561127757600080fd5b505080516020909101519092909150565b6000806000806080858703121561129e57600080fd5b505082516020840151604085015160609095015191969095509092509050565b81835260006020808501808196508560051b810191508460005b878110156113425782840389528135601e198836030181126112f957600080fd5b8701803567ffffffffffffffff81111561131257600080fd5b80360389131561132157600080fd5b61132e868289850161134f565b9a87019a95505050908401906001016112d8565b5091979650505050505050565b81835281816020850137506000828201602090810191909152601f909101601f19169091010190565b6000825160005b81811015611399576020818601810151858301520161137f565b818111156113a8576000828501525b509190910192915050565b60018060a01b03851681528360208201526060604082015260006113db6060830184866112be565b9695505050505050565b60018060a01b038616815284602082015260806040820152600061140d6080830185876112be565b9050826060830152969550505050505056fea2646970667358221220fa6d5b1c4a2936abbd12db04d7894e362c7388bde4221f17d53c2702d16a0b4e64736f6c63430008070033",
    "linkReferences": {}
  }
}