{
  "abi": [
    {
      "anonymous": false,
      "inputs": [
        {
          "indexed": false,
          "internalType": "uint256",
          "name": "collateralRequired_",
          "type": "uint256"
        }
      ],
      "name": "CollateralRequiredSet",
      "type": "event"
    },
    {
      "anonymous": false,
      "inputs": [
        {
          "indexed": false,
          "internalType": "uint256",
          "name": "earlyFeeRate_",
          "type": "uint256"
        }
      ],
      "name": "EarlyFeeRateSet",
      "type": "event"
    },
    {
      "anonymous": false,
      "inputs": [
        {
          "indexed": false,
          "internalType": "uint256",
          "name": "endingPrincipal_",
          "type": "uint256"
        }
      ],
      "name": "EndingPrincipalSet",
      "type": "event"
    },
    {
      "anonymous": false,
      "inputs": [
        {
          "indexed": false,
          "internalType": "uint256",
          "name": "gracePeriod_",
          "type": "uint256"
        }
      ],
      "name": "GracePeriodSet",
      "type": "event"
    },
    {
      "anonymous": false,
      "inputs": [
        {
          "indexed": false,
          "internalType": "uint256",
          "name": "interestRate_",
          "type": "uint256"
        }
      ],
      "name": "InterestRateSet",
      "type": "event"
    },
    {
      "anonymous": false,
      "inputs": [
        {
          "indexed": false,
          "internalType": "uint256",
          "name": "lateFeeRate_",
          "type": "uint256"
        }
      ],
      "name": "LateFeeRateSet",
      "type": "event"
    },
    {
      "anonymous": false,
      "inputs": [
        {
          "indexed": false,
          "internalType": "uint256",
          "name": "lateInterestPremium_",
          "type": "uint256"
        }
      ],
      "name": "LateInterestPremiumSet",
      "type": "event"
    },
    {
      "anonymous": false,
      "inputs": [
        {
          "indexed": false,
          "internalType": "uint256",
          "name": "paymentInterval_",
          "type": "uint256"
        }
      ],
      "name": "PaymentIntervalSet",
      "type": "event"
    },
    {
      "anonymous": false,
      "inputs": [
        {
          "indexed": false,
          "internalType": "uint256",
          "name": "paymentsRemaining_",
          "type": "uint256"
        }
      ],
      "name": "PaymentsRemainingSet",
      "type": "event"
    },
    {
      "anonymous": false,
      "inputs": [
        {
          "indexed": false,
          "internalType": "uint256",
          "name": "increasedBy_",
          "type": "uint256"
        }
      ],
      "name": "PrincipalIncreased",
      "type": "event"
    },
    {
      "inputs": [
        {
          "internalType": "uint256",
          "name": "amount_",
          "type": "uint256"
        }
      ],
      "name": "increasePrincipal",
      "outputs": [],
      "stateMutability": "nonpayable",
      "type": "function"
    },
    {
      "inputs": [
        {
          "internalType": "uint256",
          "name": "collateralRequired_",
          "type": "uint256"
        }
      ],
      "name": "setCollateralRequired",
      "outputs": [],
      "stateMutability": "nonpayable",
      "type": "function"
    },
    {
      "inputs": [
        {
          "internalType": "uint256",
          "name": "earlyFeeRate_",
          "type": "uint256"
        }
      ],
      "name": "setEarlyFeeRate",
      "outputs": [],
      "stateMutability": "nonpayable",
      "type": "function"
    },
    {
      "inputs": [
        {
          "internalType": "uint256",
          "name": "endingPrincipal_",
          "type": "uint256"
        }
      ],
      "name": "setEndingPrincipal",
      "outputs": [],
      "stateMutability": "nonpayable",
      "type": "function"
    },
    {
      "inputs": [
        {
          "internalType": "uint256",
          "name": "gracePeriod_",
          "type": "uint256"
        }
      ],
      "name": "setGracePeriod",
      "outputs": [],
      "stateMutability": "nonpayable",
      "type": "function"
    },
    {
      "inputs": [
        {
          "internalType": "uint256",
          "name": "interestRate_",
          "type": "uint256"
        }
      ],
      "name": "setInterestRate",
      "outputs": [],
      "stateMutability": "nonpayable",
      "type": "function"
    },
    {
      "inputs": [
        {
          "internalType": "uint256",
          "name": "lateFeeRate_",
          "type": "uint256"
        }
      ],
      "name": "setLateFeeRate",
      "outputs": [],
      "stateMutability": "nonpayable",
      "type": "function"
    },
    {
      "inputs": [
        {
          "internalType": "uint256",
          "name": "lateInterestPremium_",
          "type": "uint256"
        }
      ],
      "name": "setLateInterestPremium",
      "outputs": [],
      "stateMutability": "nonpayable",
      "type": "function"
    },
    {
      "inputs": [
        {
          "internalType": "uint256",
          "name": "paymentInterval_",
          "type": "uint256"
        }
      ],
      "name": "setPaymentInterval",
      "outputs": [],
      "stateMutability": "nonpayable",
      "type": "function"
    },
    {
      "inputs": [
        {
          "internalType": "uint256",
          "name": "paymentsRemaining_",
          "type": "uint256"
        }
      ],
      "name": "setPaymentsRemaining",
      "outputs": [],
      "stateMutability": "nonpayable",
      "type": "function"
    }
  ],
  "bytecode": {
    "object": "0x608060405234801561001057600080fd5b5061068b806100206000396000f3fe608060405234801561001057600080fd5b506004361061009e5760003560e01c8063b163ff9711610066578063b163ff9714610104578063d157f64514610117578063e94134d91461012a578063f2f659601461013d578063fe12afe91461015057600080fd5b80634764757e146100a35780635de1858c146100b85780635f84f302146100cb5780637febd92b146100de5780639c3c2ab1146100f1575b600080fd5b6100b66100b13660046105de565b610163565b005b6100b66100c63660046105de565b6101e5565b6100b66100d93660046105de565b61021a565b6100b66100ec3660046105de565b61024f565b6100b66100ff3660046105de565b610284565b6100b66101123660046105de565b6102b9565b6100b66101253660046105de565b610397565b6100b66101383660046105de565b61040d565b6100b661014b3660046105de565b610494565b6100b661015e3660046105de565b6104c9565b806101a95760405162461bcd60e51b8152602060048201526011602482015270148e94d4148e96915493d7d05353d55395607a1b60448201526064015b60405180910390fd5b60138190556040518181527f35ea55dd4eee968798b5f61efffeb9d5f88b42c05aee6151a1bb4836c082ad21906020015b60405180910390a150565b600c8190556040518181527fd08f964ebebbb23438d7327a9e0b4d3a6977b689a76fbbc5e3ff6cf2bd57c296906020016101da565b60088190556040518181527f532f252238b3b0d2b8c8a257b087fb3fdbdc775e3e0acca8e680a2f36aafa34b906020016101da565b600a8190556040518181527f901c1ec58c5f0467430dc60e75d29fc21f09505b87ae0f9add2ca0aa75f172b5906020016101da565b600b8190556040518181527fa1367e43892cb30dbdf580f60f215aae22c2575ecd8bfef69d87c3671ad79a3b906020016101da565b60055481906102d0906001600160a01b03166104fe565b101561031e5760405162461bcd60e51b815260206004820152601860248201527f523a49503a494e53554646494349454e545f414d4f554e54000000000000000060448201526064016101a0565b80601460008282546103309190610610565b9250508190555080600d60008282546103499190610610565b9250508190555080600f60008282546103629190610610565b90915550506040518181527fc8fcde6244e516452771097a17ecb4c9e6331f498c228f1a951518aedefcb5ee906020016101da565b806103d85760405162461bcd60e51b8152602060048201526011602482015270148e94d4124e96915493d7d05353d55395607a1b60448201526064016101a0565b60078190556040518181527f262b925b6c3983fb29f10dd4493cd3accbbf1fceec18a61b59b2e663b795a37a906020016101da565b60145481111561045f5760405162461bcd60e51b815260206004820152601d60248201527f523a5345503a41424f56455f43555252454e545f5052494e434950414c00000060448201526064016101a0565b600e8190556040518181527fbef1806a01fbfd8f94363f8c74073ad697b31d9278da8c01247366e6c8aa1678906020016101da565b60068190556040518181527f376aafccbf0af4f25bc38eb52182d4604f044d0d87e4cb26e1667b50e3a1de05906020016101da565b60098190556040518181527f6c16b95dcb84ecf131270f4ff8500490839e14db1d5fb8d8a8c89da8551806f8906020016101da565b6005546000906001600160a01b0383811691161461051d57600061052d565b600f5460105461052d9190610610565b6004546001600160a01b0384811691161461054957600061054d565b6011545b6040516370a0823160e01b81523060048201526001600160a01b038516906370a082319060240160206040518083038186803b15801561058c57600080fd5b505afa1580156105a0573d6000803e3d6000fd5b505050506040513d601f19601f820116820180604052508101906105c491906105f7565b6105ce9190610628565b6105d89190610628565b92915050565b6000602082840312156105f057600080fd5b5035919050565b60006020828403121561060957600080fd5b5051919050565b600082198211156106235761062361063f565b500190565b60008282101561063a5761063a61063f565b500390565b634e487b7160e01b600052601160045260246000fdfea26469706673582212207ec41d97fd74277290ee65f2b3a186dff3b38b0278f194726215bf68f29423f364736f6c63430008070033",
    "linkReferences": {}
  }
}