{
  "abi": [
    {
      "anonymous": false,
      "inputs": [
        {
          "indexed": true,
          "internalType": "address",
          "name": "borrower_",
          "type": "address"
        }
      ],
      "name": "BorrowerAccepted",
      "type": "event"
    },
    {
      "anonymous": false,
      "inputs": [
        {
          "indexed": false,
          "internalType": "uint256",
          "name": "amount_",
          "type": "uint256"
        }
      ],
      "name": "CollateralPosted",
      "type": "event"
    },
    {
      "anonymous": false,
      "inputs": [
        {
          "indexed": false,
          "internalType": "uint256",
          "name": "amount_",
          "type": "uint256"
        },
        {
          "indexed": true,
          "internalType": "address",
          "name": "destination_",
          "type": "address"
        }
      ],
      "name": "CollateralRemoved",
      "type": "event"
    },
    {
      "anonymous": false,
      "inputs": [
        {
          "indexed": false,
          "internalType": "uint256",
          "name": "delegateFee_",
          "type": "uint256"
        },
        {
          "indexed": false,
          "internalType": "uint256",
          "name": "treasuryFee_",
          "type": "uint256"
        }
      ],
      "name": "EstablishmentFeesSet",
      "type": "event"
    },
    {
      "anonymous": false,
      "inputs": [
        {
          "indexed": true,
          "internalType": "address",
          "name": "lender_",
          "type": "address"
        },
        {
          "indexed": false,
          "internalType": "uint256",
          "name": "amount_",
          "type": "uint256"
        },
        {
          "indexed": false,
          "internalType": "uint256",
          "name": "nextPaymentDueDate_",
          "type": "uint256"
        }
      ],
      "name": "Funded",
      "type": "event"
    },
    {
      "anonymous": false,
      "inputs": [
        {
          "indexed": false,
          "internalType": "uint256",
          "name": "amount_",
          "type": "uint256"
        },
        {
          "indexed": true,
          "internalType": "address",
          "name": "destination_",
          "type": "address"
        }
      ],
      "name": "FundsClaimed",
      "type": "event"
    },
    {
      "anonymous": false,
      "inputs": [
        {
          "indexed": false,
          "internalType": "uint256",
          "name": "amount_",
          "type": "uint256"
        },
        {
          "indexed": true,
          "internalType": "address",
          "name": "destination_",
          "type": "address"
        }
      ],
      "name": "FundsDrawnDown",
      "type": "event"
    },
    {
      "anonymous": false,
      "inputs": [
        {
          "indexed": false,
          "internalType": "uint256",
          "name": "amount_",
          "type": "uint256"
        },
        {
          "indexed": true,
          "internalType": "address",
          "name": "destination_",
          "type": "address"
        }
      ],
      "name": "FundsRedirected",
      "type": "event"
    },
    {
      "anonymous": false,
      "inputs": [
        {
          "indexed": false,
          "internalType": "uint256",
          "name": "amount_",
          "type": "uint256"
        }
      ],
      "name": "FundsReturned",
      "type": "event"
    },
    {
      "anonymous": false,
      "inputs": [
        {
          "indexed": true,
          "internalType": "address",
          "name": "borrower_",
          "type": "address"
        },
        {
          "indexed": false,
          "internalType": "address[2]",
          "name": "assets_",
          "type": "address[2]"
        },
        {
          "indexed": false,
          "internalType": "uint256[3]",
          "name": "termDetails_",
          "type": "uint256[3]"
        },
        {
          "indexed": false,
          "internalType": "uint256[3]",
          "name": "amounts_",
          "type": "uint256[3]"
        },
        {
          "indexed": false,
          "internalType": "uint256[4]",
          "name": "rates_",
          "type": "uint256[4]"
        }
      ],
      "name": "Initialized",
      "type": "event"
    },
    {
      "anonymous": false,
      "inputs": [
        {
          "indexed": true,
          "internalType": "address",
          "name": "lender_",
          "type": "address"
        }
      ],
      "name": "LenderAccepted",
      "type": "event"
    },
    {
      "anonymous": false,
      "inputs": [
        {
          "indexed": false,
          "internalType": "uint256",
          "name": "principalPaid_",
          "type": "uint256"
        },
        {
          "indexed": false,
          "internalType": "uint256",
          "name": "interestPaid_",
          "type": "uint256"
        },
        {
          "indexed": false,
          "internalType": "uint256",
          "name": "delegateFeePaid_",
          "type": "uint256"
        },
        {
          "indexed": false,
          "internalType": "uint256",
          "name": "treasuryFeePaid_",
          "type": "uint256"
        }
      ],
      "name": "LoanClosed",
      "type": "event"
    },
    {
      "anonymous": false,
      "inputs": [
        {
          "indexed": false,
          "internalType": "bytes32",
          "name": "refinanceCommitment_",
          "type": "bytes32"
        },
        {
          "indexed": false,
          "internalType": "address",
          "name": "refinancer_",
          "type": "address"
        },
        {
          "indexed": false,
          "internalType": "uint256",
          "name": "deadline_",
          "type": "uint256"
        },
        {
          "indexed": false,
          "internalType": "bytes[]",
          "name": "calls_",
          "type": "bytes[]"
        }
      ],
      "name": "NewTermsAccepted",
      "type": "event"
    },
    {
      "anonymous": false,
      "inputs": [
        {
          "indexed": false,
          "internalType": "bytes32",
          "name": "refinanceCommitment_",
          "type": "bytes32"
        },
        {
          "indexed": false,
          "internalType": "address",
          "name": "refinancer_",
          "type": "address"
        },
        {
          "indexed": false,
          "internalType": "uint256",
          "name": "deadline_",
          "type": "uint256"
        },
        {
          "indexed": false,
          "internalType": "bytes[]",
          "name": "calls_",
          "type": "bytes[]"
        }
      ],
      "name": "NewTermsProposed",
      "type": "event"
    },
    {
      "anonymous": false,
      "inputs": [
        {
          "indexed": false,
          "internalType": "bytes32",
          "name": "refinanceCommitment_",
          "type": "bytes32"
        },
        {
          "indexed": false,
          "internalType": "address",
          "name": "refinancer_",
          "type": "address"
        },
        {
          "indexed": false,
          "internalType": "uint256",
          "name": "deadline_",
          "type": "uint256"
        },
        {
          "indexed": false,
          "internalType": "bytes[]",
          "name": "calls_",
          "type": "bytes[]"
        }
      ],
      "name": "NewTermsRejected",
      "type": "event"
    },
    {
      "anonymous": false,
      "inputs": [
        {
          "indexed": false,
          "internalType": "uint256",
          "name": "principalPaid_",
          "type": "uint256"
        },
        {
          "indexed": false,
          "internalType": "uint256",
          "name": "interestPaid_",
          "type": "uint256"
        },
        {
          "indexed": false,
          "internalType": "uint256",
          "name": "delegateFeePaid_",
          "type": "uint256"
        },
        {
          "indexed": false,
          "internalType": "uint256",
          "name": "treasuryFeePaid_",
          "type": "uint256"
        }
      ],
      "name": "PaymentMade",
      "type": "event"
    },
    {
      "anonymous": false,
      "inputs": [
        {
          "indexed": false,
          "internalType": "address",
          "name": "pendingBorrower_",
          "type": "address"
        }
      ],
      "name": "PendingBorrowerSet",
      "type": "event"
    },
    {
      "anonymous": false,
      "inputs": [
        {
          "indexed": false,
          "internalType": "address",
          "name": "pendingLender_",
          "type": "address"
        }
      ],
      "name": "PendingLenderSet",
      "type": "event"
    },
    {
      "anonymous": false,
      "inputs": [
        {
          "indexed": false,
          "internalType": "uint256",
          "name": "collateralRepossessed_",
          "type": "uint256"
        },
        {
          "indexed": false,
          "internalType": "uint256",
          "name": "fundsRepossessed_",
          "type": "uint256"
        },
        {
          "indexed": true,
          "internalType": "address",
          "name": "destination_",
          "type": "address"
        }
      ],
      "name": "Repossessed",
      "type": "event"
    },
    {
      "anonymous": false,
      "inputs": [
        {
          "indexed": true,
          "internalType": "address",
          "name": "token_",
          "type": "address"
        },
        {
          "indexed": false,
          "internalType": "uint256",
          "name": "amount_",
          "type": "uint256"
        },
        {
          "indexed": true,
          "internalType": "address",
          "name": "destination_",
          "type": "address"
        }
      ],
      "name": "Skimmed",
      "type": "event"
    },
    {
      "stateMutability": "nonpayable",
      "type": "fallback"
    },
    {
      "inputs": [
        {
          "internalType": "bytes",
          "name": "encodedArguments_",
          "type": "bytes"
        }
      ],
      "name": "decodeArguments",
      "outputs": [
        {
          "internalType": "address",
          "name": "borrower_",
          "type": "address"
        },
        {
          "internalType": "address[2]",
          "name": "assets_",
          "type": "address[2]"
        },
        {
          "internalType": "uint256[3]",
          "name": "termDetails_",
          "type": "uint256[3]"
        },
        {
          "internalType": "uint256[3]",
          "name": "amounts_",
          "type": "uint256[3]"
        },
        {
          "internalType": "uint256[4]",
          "name": "rates_",
          "type": "uint256[4]"
        }
      ],
      "stateMutability": "pure",
      "type": "function"
    },
    {
      "inputs": [
        {
          "internalType": "address",
          "name": "borrower_",
          "type": "address"
        },
        {
          "internalType": "address[2]",
          "name": "assets_",
          "type": "address[2]"
        },
        {
          "internalType": "uint256[3]",
          "name": "termDetails_",
          "type": "uint256[3]"
        },
        {
          "internalType": "uint256[3]",
          "name": "amounts_",
          "type": "uint256[3]"
        },
        {
          "internalType": "uint256[4]",
          "name": "rates_",
          "type": "uint256[4]"
        }
      ],
      "name": "encodeArguments",
      "outputs": [
        {
          "internalType": "bytes",
          "name": "encodedArguments_",
          "type": "bytes"
        }
      ],
      "stateMutability": "pure",
      "type": "function"
    }
  ],
  "bytecode": {
    "object": "0x608060405234801561001057600080fd5b50610a6e806100206000396000f3fe608060405234801561001057600080fd5b50600436106100365760003560e01c8063169acd1e146100f45780631725fa1d1461011d575b6000806000806000610049600036610141565b945094509450945094506100608585858585610182565b846001600160a01b03167f51d92f21bca73d047d43c1f073eca3ab1cd5d5c7d6902a75130562b7ace294398585858560405161009f9493929190610925565b60405180910390a27ffe9a32948c4b8ec5c8a8eddeacd3f3621458e8bde95b725b625e5c8f4f2cb54d6017546018546040516100e5929190918252602082015260400190565b60405180910390a15050505050005b610107610102366004610765565b610323565b604051610114919061095c565b60405180910390f35b61013061012b3660046107d2565b610141565b6040516101149594939291906108d5565b600061014b610565565b610153610583565b61015b610583565b6101636105a1565b61016f86880188610765565b939b929a50909850965090945092505050565b60208201516101d85760405162461bcd60e51b815260206004820152601760248201527f4d4c493a493a494e56414c49445f5052494e434950414c00000000000000000060448201526064015b60405180910390fd5b6020820151604083015111156102305760405162461bcd60e51b815260206004820152601e60248201527f4d4c493a493a494e56414c49445f454e44494e475f5052494e434950414c000060448201526064016101cf565b600080546001600160a01b0319166001600160a01b0387169081179091556102935760405162461bcd60e51b815260206004820152601660248201527526a6249d249d24a72b20a624a22fa127a92927aba2a960511b60448201526064016101cf565b8351600480546001600160a01b03199081166001600160a01b039384161790915560208087015160058054909316931692909217905583516006558381015160078190556040808601516013558451600c5584830151600d81905585820151600e55845160085592840151600955830151600a556060830151600b5561031c9190600080610359565b5050505050565b6060858585858560405160200161033e9594939291906108d5565b60405160208183030381529060405290505b95945050505050565b60006103636104b7565b90508264496cebb80085836001600160a01b03166316a12d7a6040518163ffffffff1660e01b815260040160206040518083038186803b1580156103a657600080fd5b505afa1580156103ba573d6000803e3d6000fd5b505050506040513d601f19601f820116820180604052508101906103de9190610844565b6103e890896109eb565b6103f291906109eb565b6103fc91906109c9565b61040691906109b1565b6017819055508164496cebb80085836001600160a01b031663cc32d1766040518163ffffffff1660e01b815260040160206040518083038186803b15801561044d57600080fd5b505afa158015610461573d6000803e3d6000fd5b505050506040513d601f19601f820116820180604052508101906104859190610844565b61048f90896109eb565b61049991906109eb565b6104a391906109c9565b6104ad91906109b1565b6018555050505050565b60006104c1610536565b6001600160a01b0316633a60339a6040518163ffffffff1660e01b815260040160206040518083038186803b1580156104f957600080fd5b505afa15801561050d573d6000803e3d6000fd5b505050506040513d601f19601f820116820180604052508101906105319190610741565b905090565b60006105607f7a45a402e4cb6e08ebc196f20f66d5d30e67285a2a8aa80503fa409e727a4af15490565b919050565b60405180604001604052806002906020820280368337509192915050565b60405180606001604052806003906020820280368337509192915050565b60405180608001604052806004906020820280368337509192915050565b600082601f8301126105d057600080fd5b6040516040810181811067ffffffffffffffff8211171561060157634e487b7160e01b600052604160045260246000fd5b806040525080838560408601111561061857600080fd5b60005b600281101561064457813561062f81610a20565b8352602092830192919091019060010161061b565b509195945050505050565b600082601f83011261066057600080fd5b6040516060810181811067ffffffffffffffff8211171561069157634e487b7160e01b600052604160045260246000fd5b6040528083606081018610156106a657600080fd5b60005b60038110156106445781358352602092830192909101906001016106a9565b600082601f8301126106d957600080fd5b6040516080810181811067ffffffffffffffff8211171561070a57634e487b7160e01b600052604160045260246000fd5b60405280836080810186101561071f57600080fd5b60005b6004811015610644578135835260209283019290910190600101610722565b60006020828403121561075357600080fd5b815161075e81610a20565b9392505050565b60008060008060006101a0868803121561077e57600080fd5b853561078981610a20565b945061079887602088016105bf565b93506107a7876060880161064f565b92506107b68760c0880161064f565b91506107c68761012088016106c8565b90509295509295909350565b600080602083850312156107e557600080fd5b823567ffffffffffffffff808211156107fd57600080fd5b818501915085601f83011261081157600080fd5b81358181111561082057600080fd5b86602082850101111561083257600080fd5b60209290920196919550909350505050565b60006020828403121561085657600080fd5b5051919050565b8060005b60028110156108895781516001600160a01b0316845260209384019390910190600101610861565b50505050565b8060005b6003811015610889578151845260209384019390910190600101610893565b8060005b60048110156108895781518452602093840193909101906001016108b6565b6001600160a01b03861681526101a081016108f3602083018761085d565b610900606083018661088f565b61090d60c083018561088f565b61091b6101208301846108b2565b9695505050505050565b6101808101610934828761085d565b610941604083018661088f565b61094e60a083018561088f565b6103506101008301846108b2565b600060208083528351808285015260005b818110156109895785810183015185820160400152820161096d565b8181111561099b576000604083870101525b50601f01601f1916929092016040019392505050565b600082198211156109c4576109c4610a0a565b500190565b6000826109e657634e487b7160e01b600052601260045260246000fd5b500490565b6000816000190483118215151615610a0557610a05610a0a565b500290565b634e487b7160e01b600052601160045260246000fd5b6001600160a01b0381168114610a3557600080fd5b5056fea2646970667358221220072a378273a6acf5dca58c9356c9474573bc2f77a4b5962665e82eaa7bc9964e64736f6c63430008070033",
    "linkReferences": {}
  }
}