{
  "abi": [
    {
      "inputs": [
        {
          "internalType": "address",
          "name": "token_",
          "type": "address"
        },
        {
          "internalType": "address",
          "name": "spender_",
          "type": "address"
        },
        {
          "internalType": "uint256",
          "name": "amount_",
          "type": "uint256"
        }
      ],
      "name": "erc20_approve",
      "outputs": [],
      "stateMutability": "nonpayable",
      "type": "function"
    },
    {
      "inputs": [
        {
          "internalType": "address",
          "name": "token_",
          "type": "address"
        },
        {
          "internalType": "address",
          "name": "owner_",
          "type": "address"
        },
        {
          "internalType": "address",
          "name": "spender_",
          "type": "address"
        },
        {
          "internalType": "uint256",
          "name": "amount_",
          "type": "uint256"
        },
        {
          "internalType": "uint256",
          "name": "deadline_",
          "type": "uint256"
        },
        {
          "internalType": "uint8",
          "name": "v_",
          "type": "uint8"
        },
        {
          "internalType": "bytes32",
          "name": "r_",
          "type": "bytes32"
        },
        {
          "internalType": "bytes32",
          "name": "s_",
          "type": "bytes32"
        }
      ],
      "name": "erc20_permit",
      "outputs": [],
      "stateMutability": "nonpayable",
      "type": "function"
    },
    {
      "inputs": [
        {
          "internalType": "address",
          "name": "token_",
          "type": "address"
        },
        {
          "internalType": "address",
          "name": "recipient_",
          "type": "address"
        },
        {
          "internalType": "uint256",
          "name": "amount_",
          "type": "uint256"
        }
      ],
      "name": "erc20_transfer",
      "outputs": [
        {
          "internalType": "bool",
          "name": "success_",
          "type": "bool"
        }
      ],
      "stateMutability": "nonpayable",
      "type": "function"
    },
    {
      "inputs": [
        {
          "internalType": "address",
          "name": "token_",
          "type": "address"
        },
        {
          "internalType": "address",
          "name": "owner_",
          "type": "address"
        },
        {
          "internalType": "address",
          "name": "recipient_",
          "type": "address"
        },
        {
          "internalType": "uint256",
          "name": "amount_",
          "type": "uint256"
        }
      ],
      "name": "erc20_transferFrom",
      "outputs": [
        {
          "internalType": "bool",
          "name": "success_",
          "type": "bool"
        }
      ],
      "stateMutability": "nonpayable",
      "type": "function"
    },
    {
      "inputs": [
        {
          "internalType": "address",
          "name": "loan_",
          "type": "address"
        }
      ],
      "name": "loan_acceptLender",
      "outputs": [],
      "stateMutability": "nonpayable",
      "type": "function"
    },
    {
      "inputs": [
        {
          "internalType": "address",
          "name": "loan_",
          "type": "address"
        },
        {
          "internalType": "address",
          "name": "refinancer_",
          "type": "address"
        },
        {
          "internalType": "uint256",
          "name": "deadline_",
          "type": "uint256"
        },
        {
          "internalType": "bytes[]",
          "name": "calls_",
          "type": "bytes[]"
        },
        {
          "internalType": "uint256",
          "name": "amount_",
          "type": "uint256"
        }
      ],
      "name": "loan_acceptNewTerms",
      "outputs": [],
      "stateMutability": "nonpayable",
      "type": "function"
    },
    {
      "inputs": [
        {
          "internalType": "address",
          "name": "loan_",
          "type": "address"
        },
        {
          "internalType": "uint256",
          "name": "amount_",
          "type": "uint256"
        },
        {
          "internalType": "address",
          "name": "destination_",
          "type": "address"
        }
      ],
      "name": "loan_claimFunds",
      "outputs": [],
      "stateMutability": "nonpayable",
      "type": "function"
    },
    {
      "inputs": [
        {
          "internalType": "address",
          "name": "loan_",
          "type": "address"
        },
        {
          "internalType": "uint256",
          "name": "amount_",
          "type": "uint256"
        }
      ],
      "name": "loan_closeLoan",
      "outputs": [
        {
          "internalType": "uint256",
          "name": "principal_",
          "type": "uint256"
        },
        {
          "internalType": "uint256",
          "name": "interest_",
          "type": "uint256"
        },
        {
          "internalType": "uint256",
          "name": "delegateFee_",
          "type": "uint256"
        },
        {
          "internalType": "uint256",
          "name": "treasuryFee_",
          "type": "uint256"
        }
      ],
      "stateMutability": "nonpayable",
      "type": "function"
    },
    {
      "inputs": [
        {
          "internalType": "address",
          "name": "loan_",
          "type": "address"
        },
        {
          "internalType": "address",
          "name": "lender_",
          "type": "address"
        },
        {
          "internalType": "uint256",
          "name": "amount_",
          "type": "uint256"
        }
      ],
      "name": "loan_fundLoan",
      "outputs": [
        {
          "internalType": "uint256",
          "name": "fundsLent_",
          "type": "uint256"
        }
      ],
      "stateMutability": "nonpayable",
      "type": "function"
    },
    {
      "inputs": [
        {
          "internalType": "address",
          "name": "loan_",
          "type": "address"
        },
        {
          "internalType": "uint256",
          "name": "amount_",
          "type": "uint256"
        }
      ],
      "name": "loan_makePayment",
      "outputs": [
        {
          "internalType": "uint256",
          "name": "principal_",
          "type": "uint256"
        },
        {
          "internalType": "uint256",
          "name": "interest_",
          "type": "uint256"
        },
        {
          "internalType": "uint256",
          "name": "delegateFee_",
          "type": "uint256"
        },
        {
          "internalType": "uint256",
          "name": "treasuryFee_",
          "type": "uint256"
        }
      ],
      "stateMutability": "nonpayable",
      "type": "function"
    },
    {
      "inputs": [
        {
          "internalType": "address",
          "name": "loan_",
          "type": "address"
        },
        {
          "internalType": "uint256",
          "name": "amount_",
          "type": "uint256"
        }
      ],
      "name": "loan_postCollateral",
      "outputs": [
        {
          "internalType": "uint256",
          "name": "collateralPosted_",
          "type": "uint256"
        }
      ],
      "stateMutability": "nonpayable",
      "type": "function"
    },
    {
      "inputs": [
        {
          "internalType": "address",
          "name": "loan_",
          "type": "address"
        },
        {
          "internalType": "address",
          "name": "refinancer_",
          "type": "address"
        },
        {
          "internalType": "uint256",
          "name": "deadline_",
          "type": "uint256"
        },
        {
          "internalType": "bytes[]",
          "name": "calls_",
          "type": "bytes[]"
        }
      ],
      "name": "loan_rejectNewTerms",
      "outputs": [],
      "stateMutability": "nonpayable",
      "type": "function"
    },
    {
      "inputs": [
        {
          "internalType": "address",
          "name": "loan_",
          "type": "address"
        },
        {
          "internalType": "address",
          "name": "destination_",
          "type": "address"
        }
      ],
      "name": "loan_repossess",
      "outputs": [
        {
          "internalType": "uint256",
          "name": "collateralRepossessed_",
          "type": "uint256"
        },
        {
          "internalType": "uint256",
          "name": "fundsRepossessed_",
          "type": "uint256"
        }
      ],
      "stateMutability": "nonpayable",
      "type": "function"
    },
    {
      "inputs": [
        {
          "internalType": "address",
          "name": "loan_",
          "type": "address"
        },
        {
          "internalType": "uint256",
          "name": "amount_",
          "type": "uint256"
        }
      ],
      "name": "loan_returnFunds",
      "outputs": [
        {
          "internalType": "uint256",
          "name": "fundsReturned_",
          "type": "uint256"
        }
      ],
      "stateMutability": "nonpayable",
      "type": "function"
    },
    {
      "inputs": [
        {
          "internalType": "address",
          "name": "loan_",
          "type": "address"
        },
        {
          "internalType": "address",
          "name": "lender_",
          "type": "address"
        }
      ],
      "name": "loan_setPendingLender",
      "outputs": [],
      "stateMutability": "nonpayable",
      "type": "function"
    },
    {
      "inputs": [
        {
          "internalType": "address",
          "name": "loan_",
          "type": "address"
        },
        {
          "internalType": "address",
          "name": "token_",
          "type": "address"
        },
        {
          "internalType": "address",
          "name": "destination_",
          "type": "address"
        }
      ],
      "name": "loan_skim",
      "outputs": [
        {
          "internalType": "uint256",
          "name": "fundsReturned_",
          "type": "uint256"
        }
      ],
      "stateMutability": "nonpayable",
      "type": "function"
    },
    {
      "inputs": [],
      "name": "poolDelegate",
      "outputs": [
        {
          "internalType": "address",
          "name": "",
          "type": "address"
        }
      ],
      "stateMutability": "view",
      "type": "function"
    },
    {
      "inputs": [
        {
          "internalType": "address",
          "name": "poolDelegate_",
          "type": "address"
        }
      ],
      "name": "setPoolDelegate",
      "outputs": [],
      "stateMutability": "nonpayable",
      "type": "function"
    },
    {
      "inputs": [
        {
          "internalType": "address",
          "name": "loan_",
          "type": "address"
        }
      ],
      "name": "try_loan_acceptLender",
      "outputs": [
        {
          "internalType": "bool",
          "name": "ok_",
          "type": "bool"
        }
      ],
      "stateMutability": "nonpayable",
      "type": "function"
    },
    {
      "inputs": [
        {
          "internalType": "address",
          "name": "loan_",
          "type": "address"
        },
        {
          "internalType": "address",
          "name": "refinancer_",
          "type": "address"
        },
        {
          "internalType": "uint256",
          "name": "deadline_",
          "type": "uint256"
        },
        {
          "internalType": "bytes[]",
          "name": "calls_",
          "type": "bytes[]"
        },
        {
          "internalType": "uint256",
          "name": "amount_",
          "type": "uint256"
        }
      ],
      "name": "try_loan_acceptNewTerms",
      "outputs": [
        {
          "internalType": "bool",
          "name": "ok_",
          "type": "bool"
        }
      ],
      "stateMutability": "nonpayable",
      "type": "function"
    },
    {
      "inputs": [
        {
          "internalType": "address",
          "name": "loan_",
          "type": "address"
        },
        {
          "internalType": "uint256",
          "name": "amount_",
          "type": "uint256"
        },
        {
          "internalType": "address",
          "name": "destination_",
          "type": "address"
        }
      ],
      "name": "try_loan_claimFunds",
      "outputs": [
        {
          "internalType": "bool",
          "name": "ok_",
          "type": "bool"
        }
      ],
      "stateMutability": "nonpayable",
      "type": "function"
    },
    {
      "inputs": [
        {
          "internalType": "address",
          "name": "loan_",
          "type": "address"
        },
        {
          "internalType": "uint256",
          "name": "amount_",
          "type": "uint256"
        }
      ],
      "name": "try_loan_closeLoan",
      "outputs": [
        {
          "internalType": "bool",
          "name": "ok_",
          "type": "bool"
        }
      ],
      "stateMutability": "nonpayable",
      "type": "function"
    },
    {
      "inputs": [
        {
          "internalType": "address",
          "name": "loan_",
          "type": "address"
        },
        {
          "internalType": "address",
          "name": "lender_",
          "type": "address"
        },
        {
          "internalType": "uint256",
          "name": "amount_",
          "type": "uint256"
        }
      ],
      "name": "try_loan_fundLoan",
      "outputs": [
        {
          "internalType": "bool",
          "name": "ok_",
          "type": "bool"
        }
      ],
      "stateMutability": "nonpayable",
      "type": "function"
    },
    {
      "inputs": [
        {
          "internalType": "address",
          "name": "loan_",
          "type": "address"
        },
        {
          "internalType": "uint256",
          "name": "amount_",
          "type": "uint256"
        }
      ],
      "name": "try_loan_makePayment",
      "outputs": [
        {
          "internalType": "bool",
          "name": "ok_",
          "type": "bool"
        }
      ],
      "stateMutability": "nonpayable",
      "type": "function"
    },
    {
      "inputs": [
        {
          "internalType": "address",
          "name": "loan_",
          "type": "address"
        },
        {
          "internalType": "uint256",
          "name": "amount_",
          "type": "uint256"
        }
      ],
      "name": "try_loan_postCollateral",
      "outputs": [
        {
          "internalType": "bool",
          "name": "ok_",
          "type": "bool"
        }
      ],
      "stateMutability": "nonpayable",
      "type": "function"
    },
    {
      "inputs": [
        {
          "internalType": "address",
          "name": "loan_",
          "type": "address"
        },
        {
          "internalType": "address",
          "name": "destination_",
          "type": "address"
        }
      ],
      "name": "try_loan_repossess",
      "outputs": [
        {
          "internalType": "bool",
          "name": "ok_",
          "type": "bool"
        }
      ],
      "stateMutability": "nonpayable",
      "type": "function"
    },
    {
      "inputs": [
        {
          "internalType": "address",
          "name": "loan_",
          "type": "address"
        },
        {
          "internalType": "uint256",
          "name": "amount_",
          "type": "uint256"
        }
      ],
      "name": "try_loan_returnFunds",
      "outputs": [
        {
          "internalType": "bool",
          "name": "ok_",
          "type": "bool"
        }
      ],
      "stateMutability": "nonpayable",
      "type": "function"
    },
    {
      "inputs": [
        {
          "internalType": "address",
          "name": "loan_",
          "type": "address"
        },
        {
          "internalType": "address",
          "name": "lender_",
          "type": "address"
        }
      ],
      "name": "try_loan_setPendingLender",
      "outputs": [
        {
          "internalType": "bool",
          "name": "ok_",
          "type": "bool"
        }
      ],
      "stateMutability": "nonpayable",
      "type": "function"
    },
    {
      "inputs": [
        {
          "internalType": "address",
          "name": "loan_",
          "type": "address"
        },
        {
          "internalType": "address",
          "name": "token_",
          "type": "address"
        },
        {
          "internalType": "address",
          "name": "destination_",
          "type": "address"
        }
      ],
      "name": "try_loan_skim",
      "outputs": [
        {
          "internalType": "bool",
          "name": "ok_",
          "type": "bool"
        }
      ],
      "stateMutability": "nonpayable",
      "type": "function"
    }
  ],
  "bytecode": {
    "object": "0x6080604052600080546001600160a01b031916600817905534801561002357600080fd5b506114d6806100336000396000f3fe608060405234801561001057600080fd5b50600436106101cf5760003560e01c80636fc7d91111610104578063ac8a0501116100a2578063c2b63f4f11610071578063c2b63f4f1461043e578063d75edca414610451578063ec16a8d814610464578063fc179d671461047757600080fd5b8063ac8a0501146103f2578063afb7a0f614610405578063b6a0f33114610418578063c1a3c9d71461042b57600080fd5b80637fe25581116100de5780637fe25581146103a65780638b196cd5146103b957806398e5c234146103cc578063a18814da146103df57600080fd5b80636fc7d911146103505780637327de97146103805780637c2e27d41461039357600080fd5b80634046af2b1161017157806351cf23b11161014b57806351cf23b114610304578063574c784414610317578063687468d11461032a5780636c202fcb1461033d57600080fd5b80634046af2b1461029e578063429bf6c8146102c95780635100d121146102dc57600080fd5b80631649e2ef116101ad5780631649e2ef14610224578063188b80b8146102575780632893a76e1461026a5780633d73ea8f1461028b57600080fd5b8063035e30b3146101d457806305eee8e7146101fc5780631515a11614610211575b600080fd5b6101e76101e236600461112b565b61048a565b60405190151581526020015b60405180910390f35b61020f61020a3660046110a8565b610543565b005b61020f61021f366004610fcc565b6105d5565b61023761023236600461124d565b61062b565b6040805194855260208501939093529183015260608201526080016101f3565b61020f6102653660046111d6565b6106c1565b61027d61027836600461124d565b61072f565b6040519081526020016101f3565b61027d61029936600461124d565b6107b4565b6000546102b1906001600160a01b031681565b6040516001600160a01b0390911681526020016101f3565b6102376102d736600461124d565b6107e4565b6102ef6102ea366004610fe7565b610818565b604080519283526020830191909152016101f3565b61020f61031236600461112b565b6108a3565b61020f610325366004611167565b61092b565b6101e761033836600461124d565b610996565b6101e761034b3660046111d6565b610a47565b61020f61035e366004610fcc565b600080546001600160a01b0319166001600160a01b0392909216919091179055565b6101e761038e36600461101a565b610b02565b6101e76103a136600461124d565b610b35565b6101e76103b436600461112b565b610b5c565b61027d6103c736600461112b565b610bea565b6101e76103da366004610fe7565b610c71565b6101e76103ed366004611277565b610c9c565b61020f610400366004610fe7565b610cce565b61027d61041336600461101a565b610d2d565b6101e761042636600461124d565b610d67565b6101e7610439366004610fe7565b610d8e565b61020f61044c366004611277565b610db9565b6101e761045f36600461124d565b610e20565b6101e7610472366004610fcc565b610e47565b6101e761048536600461105d565b610ed4565b6040516001600160a01b038381166024830152604482018390526000919085169063e920b1e160e01b906064015b60408051601f198184030181529181526020820180516001600160e01b03166001600160e01b03199094169390931790925290516104f691906113f9565b6000604051808303816000865af19150503d8060008114610533576040519150601f19603f3d011682016040523d82523d6000602084013e610538565b606091505b509095945050505050565b60405163d505accf60e01b81526001600160a01b0388811660048301528781166024830152604482018790526064820186905260ff8516608483015260a4820184905260c4820183905289169063d505accf9060e401600060405180830381600087803b1580156105b357600080fd5b505af11580156105c7573d6000803e3d6000fd5b505050505050505050505050565b806001600160a01b0316630fe3d9b76040518163ffffffff1660e01b8152600401600060405180830381600087803b15801561061057600080fd5b505af1158015610624573d6000803e3d6000fd5b5050505050565b600080600080856001600160a01b031663d05951a0866040518263ffffffff1660e01b815260040161065f91815260200190565b608060405180830381600087803b15801561067957600080fd5b505af115801561068d573d6000803e3d6000fd5b505050506040513d601f19601f820116820180604052508101906106b19190611309565b9299919850965090945092505050565b6040516328565a7760e11b81526001600160a01b038716906350acb4ee906106f59088908890889088908890600401611466565b600060405180830381600087803b15801561070f57600080fd5b505af1158015610723573d6000803e3d6000fd5b50505050505050505050565b6040516322baaeeb60e11b8152600481018290526000906001600160a01b038416906345755dd6906024015b602060405180830381600087803b15801561077557600080fd5b505af1158015610789573d6000803e3d6000fd5b505050506040513d601f19601f820116820180604052508101906107ad91906112cc565b9392505050565b6040516350f2012f60e01b8152600481018290526000906001600160a01b038416906350f2012f9060240161075b565b600080600080856001600160a01b0316635114cb52866040518263ffffffff1660e01b815260040161065f91815260200190565b6040516347350e9f60e01b81526001600160a01b03828116600483015260009182918516906347350e9f906024016040805180830381600087803b15801561085f57600080fd5b505af1158015610873573d6000803e3d6000fd5b505050506040513d601f19601f8201168201806040525081019061089791906112e5565b915091505b9250929050565b60405163095ea7b360e01b81526001600160a01b0383811660048301526024820183905284169063095ea7b390604401602060405180830381600087803b1580156108ed57600080fd5b505af1158015610901573d6000803e3d6000fd5b505050506040513d601f19601f8201168201806040525081019061092591906112aa565b50505050565b604051632b2d48ad60e21b81526001600160a01b0386169063acb522b49061095d908790879087908790600401611434565b600060405180830381600087803b15801561097757600080fd5b505af115801561098b573d6000803e3d6000fd5b505050505050505050565b6000826001600160a01b03166350f2012f60e01b836040516024016109bd91815260200190565b60408051601f198184030181529181526020820180516001600160e01b03166001600160e01b03199094169390931790925290516109fb91906113f9565b6000604051808303816000865af19150503d8060008114610a38576040519150601f19603f3d011682016040523d82523d6000602084013e610a3d565b606091505b5090949350505050565b6000866001600160a01b03166350acb4ee60e01b8787878787604051602401610a74959493929190611466565b60408051601f198184030181529181526020820180516001600160e01b03166001600160e01b0319909416939093179092529051610ab291906113f9565b6000604051808303816000865af19150503d8060008114610aef576040519150601f19603f3d011682016040523d82523d6000602084013e610af4565b606091505b509098975050505050505050565b6040516001600160a01b03838116602483015282811660448301526000919085169063712b772f60e01b906064016104b8565b6000826001600160a01b03166345755dd660e01b836040516024016109bd91815260200190565b60405163a9059cbb60e01b81526001600160a01b038381166004830152602482018390526000919085169063a9059cbb90604401602060405180830381600087803b158015610baa57600080fd5b505af1158015610bbe573d6000803e3d6000fd5b505050506040513d601f19601f82011682018060405250810190610be291906112aa565b949350505050565b60405163e920b1e160e01b81526001600160a01b038381166004830152602482018390526000919085169063e920b1e1906044015b602060405180830381600087803b158015610c3957600080fd5b505af1158015610c4d573d6000803e3d6000fd5b505050506040513d601f19601f82011682018060405250810190610be291906112cc565b6040516001600160a01b038281166024830152600091908416906347350e9f60e01b906044016109bd565b604051602481018390526001600160a01b0382811660448301526000919085169063390d685560e01b906064016104b8565b60405163267f4ac360e01b81526001600160a01b03828116600483015283169063267f4ac390602401600060405180830381600087803b158015610d1157600080fd5b505af1158015610d25573d6000803e3d6000fd5b505050505050565b60405163712b772f60e01b81526001600160a01b03838116600483015282811660248301526000919085169063712b772f90604401610c1f565b6000826001600160a01b031663d05951a060e01b836040516024016109bd91815260200190565b6040516001600160a01b0382811660248301526000919084169063267f4ac360e01b906044016109bd565b60405163390d685560e01b8152600481018390526001600160a01b03828116602483015284169063390d685590604401600060405180830381600087803b158015610e0357600080fd5b505af1158015610e17573d6000803e3d6000fd5b50505050505050565b6000826001600160a01b0316635114cb5260e01b836040516024016109bd91815260200190565b60408051600481526024810182526020810180516001600160e01b0316630fe3d9b760e01b17905290516000916001600160a01b03841691610e8991906113f9565b6000604051808303816000865af19150503d8060008114610ec6576040519150601f19603f3d011682016040523d82523d6000602084013e610ecb565b606091505b50909392505050565b6040516323b872dd60e01b81526001600160a01b038481166004830152838116602483015260448201839052600091908616906323b872dd90606401602060405180830381600087803b158015610f2a57600080fd5b505af1158015610f3e573d6000803e3d6000fd5b505050506040513d601f19601f82011682018060405250810190610f6291906112aa565b95945050505050565b80356001600160a01b0381168114610f8257600080fd5b919050565b60008083601f840112610f9957600080fd5b50813567ffffffffffffffff811115610fb157600080fd5b6020830191508360208260051b850101111561089c57600080fd5b600060208284031215610fde57600080fd5b6107ad82610f6b565b60008060408385031215610ffa57600080fd5b61100383610f6b565b915061101160208401610f6b565b90509250929050565b60008060006060848603121561102f57600080fd5b61103884610f6b565b925061104660208501610f6b565b915061105460408501610f6b565b90509250925092565b6000806000806080858703121561107357600080fd5b61107c85610f6b565b935061108a60208601610f6b565b925061109860408601610f6b565b9396929550929360600135925050565b600080600080600080600080610100898b0312156110c557600080fd5b6110ce89610f6b565b97506110dc60208a01610f6b565b96506110ea60408a01610f6b565b9550606089013594506080890135935060a089013560ff8116811461110e57600080fd5b979a969950949793969295929450505060c08201359160e0013590565b60008060006060848603121561114057600080fd5b61114984610f6b565b925061115760208501610f6b565b9150604084013590509250925092565b60008060008060006080868803121561117f57600080fd5b61118886610f6b565b945061119660208701610f6b565b935060408601359250606086013567ffffffffffffffff8111156111b957600080fd5b6111c588828901610f87565b969995985093965092949392505050565b60008060008060008060a087890312156111ef57600080fd5b6111f887610f6b565b955061120660208801610f6b565b945060408701359350606087013567ffffffffffffffff81111561122957600080fd5b61123589828a01610f87565b979a9699509497949695608090950135949350505050565b6000806040838503121561126057600080fd5b61126983610f6b565b946020939093013593505050565b60008060006060848603121561128c57600080fd5b61129584610f6b565b92506020840135915061105460408501610f6b565b6000602082840312156112bc57600080fd5b815180151581146107ad57600080fd5b6000602082840312156112de57600080fd5b5051919050565b600080604083850312156112f857600080fd5b505080516020909101519092909150565b6000806000806080858703121561131f57600080fd5b505082516020840151604085015160609095015191969095509092509050565b81835260006020808501808196508560051b810191508460005b878110156113c35782840389528135601e1988360301811261137a57600080fd5b8701803567ffffffffffffffff81111561139357600080fd5b8036038913156113a257600080fd5b6113af86828985016113d0565b9a87019a9550505090840190600101611359565b5091979650505050505050565b81835281816020850137506000828201602090810191909152601f909101601f19169091010190565b6000825160005b8181101561141a5760208186018101518583015201611400565b81811115611429576000828501525b509190910192915050565b60018060a01b038516815283602082015260606040820152600061145c60608301848661133f565b9695505050505050565b60018060a01b038616815284602082015260806040820152600061148e60808301858761133f565b9050826060830152969550505050505056fea2646970667358221220301d0fee16738fb00c4d4c34da46b6b890b0014431a7574e9b2ea66fcb50d08564736f6c63430008070033",
    "linkReferences": {}
  }
}