{
  "abi": [
    {
      "anonymous": false,
      "inputs": [
        {
          "indexed": true,
          "internalType": "address",
          "name": "borrower_",
          "type": "address"
        }
      ],
      "name": "BorrowerAccepted",
      "type": "event"
    },
    {
      "anonymous": false,
      "inputs": [
        {
          "indexed": false,
          "internalType": "uint256",
          "name": "amount_",
          "type": "uint256"
        }
      ],
      "name": "CollateralPosted",
      "type": "event"
    },
    {
      "anonymous": false,
      "inputs": [
        {
          "indexed": false,
          "internalType": "uint256",
          "name": "amount_",
          "type": "uint256"
        },
        {
          "indexed": true,
          "internalType": "address",
          "name": "destination_",
          "type": "address"
        }
      ],
      "name": "CollateralRemoved",
      "type": "event"
    },
    {
      "anonymous": false,
      "inputs": [
        {
          "indexed": false,
          "internalType": "uint256",
          "name": "delegateFee_",
          "type": "uint256"
        },
        {
          "indexed": false,
          "internalType": "uint256",
          "name": "treasuryFee_",
          "type": "uint256"
        }
      ],
      "name": "EstablishmentFeesSet",
      "type": "event"
    },
    {
      "anonymous": false,
      "inputs": [
        {
          "indexed": true,
          "internalType": "address",
          "name": "lender_",
          "type": "address"
        },
        {
          "indexed": false,
          "internalType": "uint256",
          "name": "amount_",
          "type": "uint256"
        },
        {
          "indexed": false,
          "internalType": "uint256",
          "name": "nextPaymentDueDate_",
          "type": "uint256"
        }
      ],
      "name": "Funded",
      "type": "event"
    },
    {
      "anonymous": false,
      "inputs": [
        {
          "indexed": false,
          "internalType": "uint256",
          "name": "amount_",
          "type": "uint256"
        },
        {
          "indexed": true,
          "internalType": "address",
          "name": "destination_",
          "type": "address"
        }
      ],
      "name": "FundsClaimed",
      "type": "event"
    },
    {
      "anonymous": false,
      "inputs": [
        {
          "indexed": false,
          "internalType": "uint256",
          "name": "amount_",
          "type": "uint256"
        },
        {
          "indexed": true,
          "internalType": "address",
          "name": "destination_",
          "type": "address"
        }
      ],
      "name": "FundsDrawnDown",
      "type": "event"
    },
    {
      "anonymous": false,
      "inputs": [
        {
          "indexed": false,
          "internalType": "uint256",
          "name": "amount_",
          "type": "uint256"
        },
        {
          "indexed": true,
          "internalType": "address",
          "name": "destination_",
          "type": "address"
        }
      ],
      "name": "FundsRedirected",
      "type": "event"
    },
    {
      "anonymous": false,
      "inputs": [
        {
          "indexed": false,
          "internalType": "uint256",
          "name": "amount_",
          "type": "uint256"
        }
      ],
      "name": "FundsReturned",
      "type": "event"
    },
    {
      "anonymous": false,
      "inputs": [
        {
          "indexed": true,
          "internalType": "address",
          "name": "borrower_",
          "type": "address"
        },
        {
          "indexed": false,
          "internalType": "address[2]",
          "name": "assets_",
          "type": "address[2]"
        },
        {
          "indexed": false,
          "internalType": "uint256[3]",
          "name": "termDetails_",
          "type": "uint256[3]"
        },
        {
          "indexed": false,
          "internalType": "uint256[3]",
          "name": "amounts_",
          "type": "uint256[3]"
        },
        {
          "indexed": false,
          "internalType": "uint256[4]",
          "name": "rates_",
          "type": "uint256[4]"
        }
      ],
      "name": "Initialized",
      "type": "event"
    },
    {
      "anonymous": false,
      "inputs": [
        {
          "indexed": true,
          "internalType": "address",
          "name": "lender_",
          "type": "address"
        }
      ],
      "name": "LenderAccepted",
      "type": "event"
    },
    {
      "anonymous": false,
      "inputs": [
        {
          "indexed": false,
          "internalType": "uint256",
          "name": "principalPaid_",
          "type": "uint256"
        },
        {
          "indexed": false,
          "internalType": "uint256",
          "name": "interestPaid_",
          "type": "uint256"
        },
        {
          "indexed": false,
          "internalType": "uint256",
          "name": "delegateFeePaid_",
          "type": "uint256"
        },
        {
          "indexed": false,
          "internalType": "uint256",
          "name": "treasuryFeePaid_",
          "type": "uint256"
        }
      ],
      "name": "LoanClosed",
      "type": "event"
    },
    {
      "anonymous": false,
      "inputs": [
        {
          "indexed": false,
          "internalType": "bytes32",
          "name": "refinanceCommitment_",
          "type": "bytes32"
        },
        {
          "indexed": false,
          "internalType": "address",
          "name": "refinancer_",
          "type": "address"
        },
        {
          "indexed": false,
          "internalType": "uint256",
          "name": "deadline_",
          "type": "uint256"
        },
        {
          "indexed": false,
          "internalType": "bytes[]",
          "name": "calls_",
          "type": "bytes[]"
        }
      ],
      "name": "NewTermsAccepted",
      "type": "event"
    },
    {
      "anonymous": false,
      "inputs": [
        {
          "indexed": false,
          "internalType": "bytes32",
          "name": "refinanceCommitment_",
          "type": "bytes32"
        },
        {
          "indexed": false,
          "internalType": "address",
          "name": "refinancer_",
          "type": "address"
        },
        {
          "indexed": false,
          "internalType": "uint256",
          "name": "deadline_",
          "type": "uint256"
        },
        {
          "indexed": false,
          "internalType": "bytes[]",
          "name": "calls_",
          "type": "bytes[]"
        }
      ],
      "name": "NewTermsProposed",
      "type": "event"
    },
    {
      "anonymous": false,
      "inputs": [
        {
          "indexed": false,
          "internalType": "bytes32",
          "name": "refinanceCommitment_",
          "type": "bytes32"
        },
        {
          "indexed": false,
          "internalType": "address",
          "name": "refinancer_",
          "type": "address"
        },
        {
          "indexed": false,
          "internalType": "uint256",
          "name": "deadline_",
          "type": "uint256"
        },
        {
          "indexed": false,
          "internalType": "bytes[]",
          "name": "calls_",
          "type": "bytes[]"
        }
      ],
      "name": "NewTermsRejected",
      "type": "event"
    },
    {
      "anonymous": false,
      "inputs": [
        {
          "indexed": false,
          "internalType": "uint256",
          "name": "principalPaid_",
          "type": "uint256"
        },
        {
          "indexed": false,
          "internalType": "uint256",
          "name": "interestPaid_",
          "type": "uint256"
        },
        {
          "indexed": false,
          "internalType": "uint256",
          "name": "delegateFeePaid_",
          "type": "uint256"
        },
        {
          "indexed": false,
          "internalType": "uint256",
          "name": "treasuryFeePaid_",
          "type": "uint256"
        }
      ],
      "name": "PaymentMade",
      "type": "event"
    },
    {
      "anonymous": false,
      "inputs": [
        {
          "indexed": false,
          "internalType": "address",
          "name": "pendingBorrower_",
          "type": "address"
        }
      ],
      "name": "PendingBorrowerSet",
      "type": "event"
    },
    {
      "anonymous": false,
      "inputs": [
        {
          "indexed": false,
          "internalType": "address",
          "name": "pendingLender_",
          "type": "address"
        }
      ],
      "name": "PendingLenderSet",
      "type": "event"
    },
    {
      "anonymous": false,
      "inputs": [
        {
          "indexed": false,
          "internalType": "uint256",
          "name": "collateralRepossessed_",
          "type": "uint256"
        },
        {
          "indexed": false,
          "internalType": "uint256",
          "name": "fundsRepossessed_",
          "type": "uint256"
        },
        {
          "indexed": true,
          "internalType": "address",
          "name": "destination_",
          "type": "address"
        }
      ],
      "name": "Repossessed",
      "type": "event"
    },
    {
      "anonymous": false,
      "inputs": [
        {
          "indexed": true,
          "internalType": "address",
          "name": "token_",
          "type": "address"
        },
        {
          "indexed": false,
          "internalType": "uint256",
          "name": "amount_",
          "type": "uint256"
        },
        {
          "indexed": true,
          "internalType": "address",
          "name": "destination_",
          "type": "address"
        }
      ],
      "name": "Skimmed",
      "type": "event"
    },
    {
      "anonymous": false,
      "inputs": [
        {
          "indexed": false,
          "internalType": "uint256",
          "name": "toVersion_",
          "type": "uint256"
        },
        {
          "indexed": false,
          "internalType": "bytes",
          "name": "arguments_",
          "type": "bytes"
        }
      ],
      "name": "Upgraded",
      "type": "event"
    },
    {
      "inputs": [
        {
          "internalType": "address",
          "name": "borrower_",
          "type": "address"
        }
      ],
      "name": "__setBorrower",
      "outputs": [],
      "stateMutability": "nonpayable",
      "type": "function"
    },
    {
      "inputs": [
        {
          "internalType": "uint256",
          "name": "claimableFunds_",
          "type": "uint256"
        }
      ],
      "name": "__setClaimableFunds",
      "outputs": [],
      "stateMutability": "nonpayable",
      "type": "function"
    },
    {
      "inputs": [
        {
          "internalType": "uint256",
          "name": "collateral_",
          "type": "uint256"
        }
      ],
      "name": "__setCollateral",
      "outputs": [],
      "stateMutability": "nonpayable",
      "type": "function"
    },
    {
      "inputs": [
        {
          "internalType": "address",
          "name": "collateralAsset_",
          "type": "address"
        }
      ],
      "name": "__setCollateralAsset",
      "outputs": [],
      "stateMutability": "nonpayable",
      "type": "function"
    },
    {
      "inputs": [
        {
          "internalType": "uint256",
          "name": "collateralRequired_",
          "type": "uint256"
        }
      ],
      "name": "__setCollateralRequired",
      "outputs": [],
      "stateMutability": "nonpayable",
      "type": "function"
    },
    {
      "inputs": [
        {
          "internalType": "uint256",
          "name": "drawableFunds_",
          "type": "uint256"
        }
      ],
      "name": "__setDrawableFunds",
      "outputs": [],
      "stateMutability": "nonpayable",
      "type": "function"
    },
    {
      "inputs": [
        {
          "internalType": "uint256",
          "name": "endingPrincipal_",
          "type": "uint256"
        }
      ],
      "name": "__setEndingPrincipal",
      "outputs": [],
      "stateMutability": "nonpayable",
      "type": "function"
    },
    {
      "inputs": [
        {
          "internalType": "address",
          "name": "factory_",
          "type": "address"
        }
      ],
      "name": "__setFactory",
      "outputs": [],
      "stateMutability": "nonpayable",
      "type": "function"
    },
    {
      "inputs": [
        {
          "internalType": "address",
          "name": "fundsAsset_",
          "type": "address"
        }
      ],
      "name": "__setFundsAsset",
      "outputs": [],
      "stateMutability": "nonpayable",
      "type": "function"
    },
    {
      "inputs": [
        {
          "internalType": "address",
          "name": "lender_",
          "type": "address"
        }
      ],
      "name": "__setLender",
      "outputs": [],
      "stateMutability": "nonpayable",
      "type": "function"
    },
    {
      "inputs": [
        {
          "internalType": "uint256",
          "name": "nextPaymentDueDate_",
          "type": "uint256"
        }
      ],
      "name": "__setNextPaymentDueDate",
      "outputs": [],
      "stateMutability": "nonpayable",
      "type": "function"
    },
    {
      "inputs": [
        {
          "internalType": "uint256",
          "name": "paymentInterval_",
          "type": "uint256"
        }
      ],
      "name": "__setPaymentInterval",
      "outputs": [],
      "stateMutability": "nonpayable",
      "type": "function"
    },
    {
      "inputs": [
        {
          "internalType": "uint256",
          "name": "paymentsRemaining_",
          "type": "uint256"
        }
      ],
      "name": "__setPaymentsRemaining",
      "outputs": [],
      "stateMutability": "nonpayable",
      "type": "function"
    },
    {
      "inputs": [
        {
          "internalType": "address",
          "name": "pendingBorrower_",
          "type": "address"
        }
      ],
      "name": "__setPendingBorrower",
      "outputs": [],
      "stateMutability": "nonpayable",
      "type": "function"
    },
    {
      "inputs": [
        {
          "internalType": "address",
          "name": "pendingLender_",
          "type": "address"
        }
      ],
      "name": "__setPendingLender",
      "outputs": [],
      "stateMutability": "nonpayable",
      "type": "function"
    },
    {
      "inputs": [
        {
          "internalType": "uint256",
          "name": "principal_",
          "type": "uint256"
        }
      ],
      "name": "__setPrincipal",
      "outputs": [],
      "stateMutability": "nonpayable",
      "type": "function"
    },
    {
      "inputs": [
        {
          "internalType": "uint256",
          "name": "principalRequested_",
          "type": "uint256"
        }
      ],
      "name": "__setPrincipalRequested",
      "outputs": [],
      "stateMutability": "nonpayable",
      "type": "function"
    },
    {
      "inputs": [
        {
          "internalType": "bytes32",
          "name": "refinanceCommitment_",
          "type": "bytes32"
        }
      ],
      "name": "__setRefinanceCommitmentHash",
      "outputs": [],
      "stateMutability": "nonpayable",
      "type": "function"
    },
    {
      "inputs": [],
      "name": "acceptBorrower",
      "outputs": [],
      "stateMutability": "nonpayable",
      "type": "function"
    },
    {
      "inputs": [],
      "name": "acceptLender",
      "outputs": [],
      "stateMutability": "nonpayable",
      "type": "function"
    },
    {
      "inputs": [
        {
          "internalType": "address",
          "name": "refinancer_",
          "type": "address"
        },
        {
          "internalType": "uint256",
          "name": "deadline_",
          "type": "uint256"
        },
        {
          "internalType": "bytes[]",
          "name": "calls_",
          "type": "bytes[]"
        },
        {
          "internalType": "uint256",
          "name": "amount_",
          "type": "uint256"
        }
      ],
      "name": "acceptNewTerms",
      "outputs": [],
      "stateMutability": "nonpayable",
      "type": "function"
    },
    {
      "inputs": [],
      "name": "borrower",
      "outputs": [
        {
          "internalType": "address",
          "name": "borrower_",
          "type": "address"
        }
      ],
      "stateMutability": "view",
      "type": "function"
    },
    {
      "inputs": [
        {
          "internalType": "uint256",
          "name": "amount_",
          "type": "uint256"
        },
        {
          "internalType": "address",
          "name": "destination_",
          "type": "address"
        }
      ],
      "name": "claimFunds",
      "outputs": [],
      "stateMutability": "nonpayable",
      "type": "function"
    },
    {
      "inputs": [],
      "name": "claimableFunds",
      "outputs": [
        {
          "internalType": "uint256",
          "name": "claimableFunds_",
          "type": "uint256"
        }
      ],
      "stateMutability": "view",
      "type": "function"
    },
    {
      "inputs": [
        {
          "internalType": "uint256",
          "name": "amount_",
          "type": "uint256"
        }
      ],
      "name": "closeLoan",
      "outputs": [
        {
          "internalType": "uint256",
          "name": "principal_",
          "type": "uint256"
        },
        {
          "internalType": "uint256",
          "name": "interest_",
          "type": "uint256"
        },
        {
          "internalType": "uint256",
          "name": "delegateFee_",
          "type": "uint256"
        },
        {
          "internalType": "uint256",
          "name": "treasuryFee_",
          "type": "uint256"
        }
      ],
      "stateMutability": "nonpayable",
      "type": "function"
    },
    {
      "inputs": [],
      "name": "collateral",
      "outputs": [
        {
          "internalType": "uint256",
          "name": "collateral_",
          "type": "uint256"
        }
      ],
      "stateMutability": "view",
      "type": "function"
    },
    {
      "inputs": [],
      "name": "collateralAsset",
      "outputs": [
        {
          "internalType": "address",
          "name": "collateralAsset_",
          "type": "address"
        }
      ],
      "stateMutability": "view",
      "type": "function"
    },
    {
      "inputs": [],
      "name": "collateralRequired",
      "outputs": [
        {
          "internalType": "uint256",
          "name": "collateralRequired_",
          "type": "uint256"
        }
      ],
      "stateMutability": "view",
      "type": "function"
    },
    {
      "inputs": [],
      "name": "delegateFee",
      "outputs": [
        {
          "internalType": "uint256",
          "name": "delegateFee_",
          "type": "uint256"
        }
      ],
      "stateMutability": "view",
      "type": "function"
    },
    {
      "inputs": [],
      "name": "drawableFunds",
      "outputs": [
        {
          "internalType": "uint256",
          "name": "drawableFunds_",
          "type": "uint256"
        }
      ],
      "stateMutability": "view",
      "type": "function"
    },
    {
      "inputs": [
        {
          "internalType": "uint256",
          "name": "amount_",
          "type": "uint256"
        },
        {
          "internalType": "address",
          "name": "destination_",
          "type": "address"
        }
      ],
      "name": "drawdownFunds",
      "outputs": [
        {
          "internalType": "uint256",
          "name": "collateralPosted_",
          "type": "uint256"
        }
      ],
      "stateMutability": "nonpayable",
      "type": "function"
    },
    {
      "inputs": [],
      "name": "earlyFeeRate",
      "outputs": [
        {
          "internalType": "uint256",
          "name": "earlyFeeRate_",
          "type": "uint256"
        }
      ],
      "stateMutability": "view",
      "type": "function"
    },
    {
      "inputs": [],
      "name": "endingPrincipal",
      "outputs": [
        {
          "internalType": "uint256",
          "name": "endingPrincipal_",
          "type": "uint256"
        }
      ],
      "stateMutability": "view",
      "type": "function"
    },
    {
      "inputs": [],
      "name": "excessCollateral",
      "outputs": [
        {
          "internalType": "uint256",
          "name": "excessCollateral_",
          "type": "uint256"
        }
      ],
      "stateMutability": "view",
      "type": "function"
    },
    {
      "inputs": [],
      "name": "factory",
      "outputs": [
        {
          "internalType": "address",
          "name": "factory_",
          "type": "address"
        }
      ],
      "stateMutability": "view",
      "type": "function"
    },
    {
      "inputs": [
        {
          "internalType": "address",
          "name": "lender_",
          "type": "address"
        },
        {
          "internalType": "uint256",
          "name": "amount_",
          "type": "uint256"
        }
      ],
      "name": "fundLoan",
      "outputs": [
        {
          "internalType": "uint256",
          "name": "fundsLent_",
          "type": "uint256"
        }
      ],
      "stateMutability": "nonpayable",
      "type": "function"
    },
    {
      "inputs": [],
      "name": "fundsAsset",
      "outputs": [
        {
          "internalType": "address",
          "name": "fundsAsset_",
          "type": "address"
        }
      ],
      "stateMutability": "view",
      "type": "function"
    },
    {
      "inputs": [
        {
          "internalType": "uint256",
          "name": "drawdown_",
          "type": "uint256"
        }
      ],
      "name": "getAdditionalCollateralRequiredFor",
      "outputs": [
        {
          "internalType": "uint256",
          "name": "collateral_",
          "type": "uint256"
        }
      ],
      "stateMutability": "view",
      "type": "function"
    },
    {
      "inputs": [],
      "name": "getEarlyPaymentBreakdown",
      "outputs": [
        {
          "internalType": "uint256",
          "name": "principal_",
          "type": "uint256"
        },
        {
          "internalType": "uint256",
          "name": "interest_",
          "type": "uint256"
        },
        {
          "internalType": "uint256",
          "name": "delegateFee_",
          "type": "uint256"
        },
        {
          "internalType": "uint256",
          "name": "treasuryFee_",
          "type": "uint256"
        }
      ],
      "stateMutability": "view",
      "type": "function"
    },
    {
      "inputs": [],
      "name": "getNextPaymentBreakdown",
      "outputs": [
        {
          "internalType": "uint256",
          "name": "principal_",
          "type": "uint256"
        },
        {
          "internalType": "uint256",
          "name": "interest_",
          "type": "uint256"
        },
        {
          "internalType": "uint256",
          "name": "delegateFee_",
          "type": "uint256"
        },
        {
          "internalType": "uint256",
          "name": "treasuryFee_",
          "type": "uint256"
        }
      ],
      "stateMutability": "view",
      "type": "function"
    },
    {
      "inputs": [
        {
          "internalType": "uint256",
          "name": "timestamp_",
          "type": "uint256"
        }
      ],
      "name": "getRefinanceInterest",
      "outputs": [
        {
          "internalType": "uint256",
          "name": "proRataInterest_",
          "type": "uint256"
        }
      ],
      "stateMutability": "view",
      "type": "function"
    },
    {
      "inputs": [],
      "name": "gracePeriod",
      "outputs": [
        {
          "internalType": "uint256",
          "name": "gracePeriod_",
          "type": "uint256"
        }
      ],
      "stateMutability": "view",
      "type": "function"
    },
    {
      "inputs": [],
      "name": "implementation",
      "outputs": [
        {
          "internalType": "address",
          "name": "implementation_",
          "type": "address"
        }
      ],
      "stateMutability": "view",
      "type": "function"
    },
    {
      "inputs": [],
      "name": "interestRate",
      "outputs": [
        {
          "internalType": "uint256",
          "name": "interestRate_",
          "type": "uint256"
        }
      ],
      "stateMutability": "view",
      "type": "function"
    },
    {
      "inputs": [],
      "name": "isProtocolPaused",
      "outputs": [
        {
          "internalType": "bool",
          "name": "paused_",
          "type": "bool"
        }
      ],
      "stateMutability": "view",
      "type": "function"
    },
    {
      "inputs": [],
      "name": "lateFeeRate",
      "outputs": [
        {
          "internalType": "uint256",
          "name": "lateFeeRate_",
          "type": "uint256"
        }
      ],
      "stateMutability": "view",
      "type": "function"
    },
    {
      "inputs": [],
      "name": "lateInterestPremium",
      "outputs": [
        {
          "internalType": "uint256",
          "name": "lateInterestPremium_",
          "type": "uint256"
        }
      ],
      "stateMutability": "view",
      "type": "function"
    },
    {
      "inputs": [],
      "name": "lender",
      "outputs": [
        {
          "internalType": "address",
          "name": "lender_",
          "type": "address"
        }
      ],
      "stateMutability": "view",
      "type": "function"
    },
    {
      "inputs": [
        {
          "internalType": "uint256",
          "name": "amount_",
          "type": "uint256"
        }
      ],
      "name": "makePayment",
      "outputs": [
        {
          "internalType": "uint256",
          "name": "principal_",
          "type": "uint256"
        },
        {
          "internalType": "uint256",
          "name": "interest_",
          "type": "uint256"
        },
        {
          "internalType": "uint256",
          "name": "delegateFee_",
          "type": "uint256"
        },
        {
          "internalType": "uint256",
          "name": "treasuryFee_",
          "type": "uint256"
        }
      ],
      "stateMutability": "nonpayable",
      "type": "function"
    },
    {
      "inputs": [
        {
          "internalType": "address",
          "name": "migrator_",
          "type": "address"
        },
        {
          "internalType": "bytes",
          "name": "arguments_",
          "type": "bytes"
        }
      ],
      "name": "migrate",
      "outputs": [],
      "stateMutability": "nonpayable",
      "type": "function"
    },
    {
      "inputs": [],
      "name": "nextPaymentDueDate",
      "outputs": [
        {
          "internalType": "uint256",
          "name": "nextPaymentDueDate_",
          "type": "uint256"
        }
      ],
      "stateMutability": "view",
      "type": "function"
    },
    {
      "inputs": [],
      "name": "paymentInterval",
      "outputs": [
        {
          "internalType": "uint256",
          "name": "paymentInterval_",
          "type": "uint256"
        }
      ],
      "stateMutability": "view",
      "type": "function"
    },
    {
      "inputs": [],
      "name": "paymentsRemaining",
      "outputs": [
        {
          "internalType": "uint256",
          "name": "paymentsRemaining_",
          "type": "uint256"
        }
      ],
      "stateMutability": "view",
      "type": "function"
    },
    {
      "inputs": [],
      "name": "pendingBorrower",
      "outputs": [
        {
          "internalType": "address",
          "name": "pendingBorrower_",
          "type": "address"
        }
      ],
      "stateMutability": "view",
      "type": "function"
    },
    {
      "inputs": [],
      "name": "pendingLender",
      "outputs": [
        {
          "internalType": "address",
          "name": "pendingLender_",
          "type": "address"
        }
      ],
      "stateMutability": "view",
      "type": "function"
    },
    {
      "inputs": [
        {
          "internalType": "uint256",
          "name": "amount_",
          "type": "uint256"
        }
      ],
      "name": "postCollateral",
      "outputs": [
        {
          "internalType": "uint256",
          "name": "collateralPosted_",
          "type": "uint256"
        }
      ],
      "stateMutability": "nonpayable",
      "type": "function"
    },
    {
      "inputs": [],
      "name": "principal",
      "outputs": [
        {
          "internalType": "uint256",
          "name": "principal_",
          "type": "uint256"
        }
      ],
      "stateMutability": "view",
      "type": "function"
    },
    {
      "inputs": [],
      "name": "principalRequested",
      "outputs": [
        {
          "internalType": "uint256",
          "name": "principalRequested_",
          "type": "uint256"
        }
      ],
      "stateMutability": "view",
      "type": "function"
    },
    {
      "inputs": [
        {
          "internalType": "address",
          "name": "refinancer_",
          "type": "address"
        },
        {
          "internalType": "uint256",
          "name": "deadline_",
          "type": "uint256"
        },
        {
          "internalType": "bytes[]",
          "name": "calls_",
          "type": "bytes[]"
        }
      ],
      "name": "proposeNewTerms",
      "outputs": [],
      "stateMutability": "nonpayable",
      "type": "function"
    },
    {
      "inputs": [],
      "name": "refinanceCommitment",
      "outputs": [
        {
          "internalType": "bytes32",
          "name": "refinanceCommitment_",
          "type": "bytes32"
        }
      ],
      "stateMutability": "view",
      "type": "function"
    },
    {
      "inputs": [],
      "name": "refinanceInterest",
      "outputs": [
        {
          "internalType": "uint256",
          "name": "refinanceInterest_",
          "type": "uint256"
        }
      ],
      "stateMutability": "view",
      "type": "function"
    },
    {
      "inputs": [
        {
          "internalType": "address",
          "name": "refinancer_",
          "type": "address"
        },
        {
          "internalType": "uint256",
          "name": "deadline_",
          "type": "uint256"
        },
        {
          "internalType": "bytes[]",
          "name": "calls_",
          "type": "bytes[]"
        }
      ],
      "name": "rejectNewTerms",
      "outputs": [],
      "stateMutability": "nonpayable",
      "type": "function"
    },
    {
      "inputs": [
        {
          "internalType": "uint256",
          "name": "amount_",
          "type": "uint256"
        },
        {
          "internalType": "address",
          "name": "destination_",
          "type": "address"
        }
      ],
      "name": "removeCollateral",
      "outputs": [],
      "stateMutability": "nonpayable",
      "type": "function"
    },
    {
      "inputs": [
        {
          "internalType": "address",
          "name": "destination_",
          "type": "address"
        }
      ],
      "name": "repossess",
      "outputs": [
        {
          "internalType": "uint256",
          "name": "collateralRepossessed_",
          "type": "uint256"
        },
        {
          "internalType": "uint256",
          "name": "fundsRepossessed_",
          "type": "uint256"
        }
      ],
      "stateMutability": "nonpayable",
      "type": "function"
    },
    {
      "inputs": [
        {
          "internalType": "uint256",
          "name": "amount_",
          "type": "uint256"
        }
      ],
      "name": "returnFunds",
      "outputs": [
        {
          "internalType": "uint256",
          "name": "fundsReturned_",
          "type": "uint256"
        }
      ],
      "stateMutability": "nonpayable",
      "type": "function"
    },
    {
      "inputs": [
        {
          "internalType": "address",
          "name": "newImplementation_",
          "type": "address"
        }
      ],
      "name": "setImplementation",
      "outputs": [],
      "stateMutability": "nonpayable",
      "type": "function"
    },
    {
      "inputs": [
        {
          "internalType": "address",
          "name": "pendingBorrower_",
          "type": "address"
        }
      ],
      "name": "setPendingBorrower",
      "outputs": [],
      "stateMutability": "nonpayable",
      "type": "function"
    },
    {
      "inputs": [
        {
          "internalType": "address",
          "name": "pendingLender_",
          "type": "address"
        }
      ],
      "name": "setPendingLender",
      "outputs": [],
      "stateMutability": "nonpayable",
      "type": "function"
    },
    {
      "inputs": [
        {
          "internalType": "address",
          "name": "token_",
          "type": "address"
        },
        {
          "internalType": "address",
          "name": "destination_",
          "type": "address"
        }
      ],
      "name": "skim",
      "outputs": [
        {
          "internalType": "uint256",
          "name": "skimmed_",
          "type": "uint256"
        }
      ],
      "stateMutability": "nonpayable",
      "type": "function"
    },
    {
      "inputs": [],
      "name": "superFactory",
      "outputs": [
        {
          "internalType": "address",
          "name": "superFactory_",
          "type": "address"
        }
      ],
      "stateMutability": "view",
      "type": "function"
    },
    {
      "inputs": [],
      "name": "treasuryFee",
      "outputs": [
        {
          "internalType": "uint256",
          "name": "treasuryFee_",
          "type": "uint256"
        }
      ],
      "stateMutability": "view",
      "type": "function"
    },
    {
      "inputs": [
        {
          "internalType": "uint256",
          "name": "toVersion_",
          "type": "uint256"
        },
        {
          "internalType": "bytes",
          "name": "arguments_",
          "type": "bytes"
        }
      ],
      "name": "upgrade",
      "outputs": [],
      "stateMutability": "nonpayable",
      "type": "function"
    }
  ],
  "bytecode": {
    "object": "0x608060405234801561001057600080fd5b50613a32806100206000396000f3fe608060405234801561001057600080fd5b50600436106104285760003560e01c80637c3a00fd1161022b578063b9b1f4e311610130578063d41ddc96116100b8578063e44b387511610087578063e44b387514610910578063e920b1e114610918578063eda0807f1461092b578063f0b1c8d91461093e578063fe85235f1461096e57600080fd5b8063d41ddc96146108ca578063d784d426146108dd578063d8dfeb45146108f0578063dac88561146108f857600080fd5b8063c3fbb6fd116100ff578063c3fbb6fd14610889578063c45a015514610491578063cc32d1761461089c578063ccc04484146108a4578063d05951a0146108b757600080fd5b8063b9b1f4e314610860578063ba5d307814610868578063ba83276b14610870578063bcead63e1461087857600080fd5b8063a7cecb96116101b3578063acb522b411610182578063acb522b414610822578063b69410de14610835578063b86a513e1461083d578063b90d56c214610845578063b96b5c991461085857600080fd5b8063a7cecb96146107e3578063a93c8f8f146107f6578063a97d116114610809578063aabaecd61461081157600080fd5b806387accaf1116101fa57806387accaf11461077d5780638ffc9215146107905780639e10320b14610798578063a06db7dc146107ab578063a3782afa146107b357600080fd5b80637c3a00fd146107215780637df1f1b9146107295780637f7951d91461073a5780638252c1a61461076a57600080fd5b80634003f34d1161033157806362e8a976116102b9578063700f500611610288578063700f5006146106e5578063712b772f146106f657806375a206761461070957806377b3c55c146107115780637a0e6fa11461071957600080fd5b806362e8a9761461067c57806362f6fffa146106b757806369458ba7146106ca5780636b3e5646146106d257600080fd5b806350acb4ee1161030057806350acb4ee1461060a57806350f2012f1461061d5780635114cb52146106305780635c60da1b146106635780635eeb53b41461066b57600080fd5b80634003f34d146105b457806345755dd6146105bc57806347350e9f146105cf5780634eac4235146105f757600080fd5b80631f3f19ab116103b45780633653454e116103835780633653454e1461053a57806337e8b48e1461056a578063390d68551461057d57806339ba9f86146105905780633b99bcee146105a157600080fd5b80631f3f19ab14610504578063267f4ac3146105175780632ead10981461052a57806330fea1ce1461053257600080fd5b80630d49b38c116103fb5780630d49b38c146104915780630fe3d9b7146104b157806311e0f951146104b9578063149de2a0146104e95780631cc1cf46146104fc57600080fd5b806301daa38f1461042d5780630895326f1461043757806308bd94f51461044e5780630c90436614610461575b600080fd5b610435610981565b005b6013545b6040519081526020015b60405180910390f35b61043561045c3660046136d9565b600d55565b61043561046f366004613503565b600280546001600160a01b0319166001600160a01b0392909216919091179055565b610499610a27565b6040516001600160a01b039091168152602001610445565b610435610a36565b6104356104c7366004613503565b600380546001600160a01b0319166001600160a01b0392909216919091179055565b6104356104f73660046136d9565b601355565b60075461043b565b610435610512366004613503565b610ad9565b610435610525366004613503565b610b7e565b600b5461043b565b60095461043b565b610435610548366004613503565b600080546001600160a01b0319166001600160a01b0392909216919091179055565b6104356105783660046136d9565b601555565b61043561058b36600461370b565b610c1a565b6005546001600160a01b0316610499565b6104356105af366004613730565b610cdd565b60125461043b565b61043b6105ca3660046136d9565b610dd4565b6105e26105dd366004613503565b610ea9565b60408051928352602083019190915201610445565b61043b6106053660046136d9565b610f75565b610435610618366004613653565b610fbd565b61043b61062b3660046136d9565b6111dd565b61064361063e3660046136d9565b611299565b604080519485526020850193909352918301526060820152608001610445565b6104996113de565b6003546001600160a01b0316610499565b61043561068a366004613503565b6001600160a01b03167f7a45a402e4cb6e08ebc196f20f66d5d30e67285a2a8aa80503fa409e727a4af155565b6104356106c53660046136d9565b600e55565b6106436113eb565b6104356106e03660046136d9565b601055565b6002546001600160a01b0316610499565b61043b61070436600461353d565b611407565b600c5461043b565b600a5461043b565b61043b6115fe565b60085461043b565b6000546001600160a01b0316610499565b610435610748366004613503565b600180546001600160a01b0319166001600160a01b0392909216919091179055565b6104356107783660046136d9565b601155565b61043561078b3660046135f7565b61163a565b600d5461043b565b61043b6107a63660046136d9565b61174f565b60065461043b565b6104356107c1366004613503565b600580546001600160a01b0319166001600160a01b0392909216919091179055565b6104356107f13660046136d9565b600755565b6104356108043660046136d9565b600f55565b60165461043b565b6004546001600160a01b0316610499565b6104356108303660046135f7565b611779565b60175461043b565b600e5461043b565b6104356108533660046136d9565b601455565b61064361182a565b600f5461043b565b60145461043b565b60155461043b565b6001546001600160a01b0316610499565b610435610897366004613576565b611838565b60185461043b565b61043b6108b236600461370b565b6118dd565b6106436108c53660046136d9565b6119ec565b6104356108d836600461370b565b611b25565b6104356108eb366004613503565b611be6565b60115461043b565b610900611c6f565b6040519015158152602001610445565b60105461043b565b61043b6109263660046135cb565b611d59565b6104356109393660046136d9565b601255565b61043561094c366004613503565b600480546001600160a01b0319166001600160a01b0392909216919091179055565b61043561097c3660046136d9565b600c55565b6002546001600160a01b031633146109e05760405162461bcd60e51b815260206004820152601a60248201527f4d4c3a41423a4e4f545f50454e44494e475f424f52524f57455200000000000060448201526064015b60405180910390fd5b600280546001600160a01b031990811690915560008054339216821781556040517f29bac0ac2b15405bfcc160bb74b6ae7a559b7674ce33db80785ada73e38204d29190a2565b6000610a31611f01565b905090565b6003546001600160a01b03163314610a905760405162461bcd60e51b815260206004820152601860248201527f4d4c3a414c3a4e4f545f50454e44494e475f4c454e444552000000000000000060448201526064016109d7565b600380546001600160a01b031990811690915560018054339216821790556040517fd6165838d2e3db87aa1002b548048673fc6427eefbd1b914e100f3a0deae23e390600090a2565b6000546001600160a01b03163314610b295760405162461bcd60e51b815260206004820152601360248201527226a61d29a8211d2727aa2fa127a92927aba2a960691b60448201526064016109d7565b600280546001600160a01b0319166001600160a01b0383169081179091556040519081527f10f06072822ef73860fedb88933f968d20bb4aadce8a8d360d1124cb6ce1e0b2906020015b60405180910390a150565b6001546001600160a01b03163314610bcc5760405162461bcd60e51b815260206004820152601160248201527026a61d29a8261d2727aa2fa622a72222a960791b60448201526064016109d7565b600380546001600160a01b0319166001600160a01b0383169081179091556040519081527fa3ab02442c80a4102475683f16513c9139a89142be9db9804edfcfbb379fc49290602001610b73565b610c22611c6f565b15610c3f5760405162461bcd60e51b81526004016109d7906138be565b6001546001600160a01b03163314610c8c5760405162461bcd60e51b815260206004820152601060248201526f26a61d21a31d2727aa2fa622a72222a960811b60448201526064016109d7565b806001600160a01b03167f6bd56533ce1c8ea03f7b858ac441b5a86d140a793a7c9e3faecbbe517c2c879183604051610cc791815260200190565b60405180910390a2610cd98282611f30565b5050565b6000546001600160a01b03163314610d2b5760405162461bcd60e51b815260206004820152601160248201527026a61d2a9d2727aa2fa127a92927aba2a960791b60448201526064016109d7565b7faaaa7ee6b0c2f4ee1fa7312c7d5b3623a434da5a1a9ce3cb6e629caa23454ab6838383604051610d5e939291906138ea565b60405180910390a1610d6e611f01565b6001600160a01b031663fe69f7088484846040518463ffffffff1660e01b8152600401610d9d939291906138ea565b600060405180830381600087803b158015610db757600080fd5b505af1158015610dcb573d6000803e3d6000fd5b50505050505050565b6000610dde611c6f565b15610dfb5760405162461bcd60e51b81526004016109d7906138be565b811580610e1b5750600554610e1b906001600160a01b0316333085611fa3565b610e675760405162461bcd60e51b815260206004820152601a60248201527f4d4c3a52463a5452414e534645525f46524f4d5f4641494c454400000000000060448201526064016109d7565b7f278e51d3323fbf18b9fb8df3f8b97e31b145bc1146c52e764cf4aa1bfc4ba17d610e9061201a565b60405181815290925060200160405180910390a1919050565b600080610eb4611c6f565b15610ed15760405162461bcd60e51b81526004016109d7906138be565b6001546001600160a01b03163314610f1d5760405162461bcd60e51b815260206004820152600f60248201526e26a61d291d2727aa2fa622a72222a960891b60448201526064016109d7565b610f2683612050565b60408051838152602081018390529294509092506001600160a01b038516917f027e623aab0b174da270ff529cad1c54f09182651e07437d2ac557929b9e5b49910160405180910390a2915091565b600080610f9760145484600f54610f8c91906139a4565b600d54600c546121c5565b601154909150808211610fab576000610fb5565b610fb581836139a4565b949350505050565b610fc5611c6f565b15610fe25760405162461bcd60e51b81526004016109d7906138be565b6001546001600160a01b03163381146110315760405162461bcd60e51b815260206004820152601160248201527026a61d20a72a1d2727aa2fa622a72222a960791b60448201526064016109d7565b6005546001600160a01b0316821580611051575061105181333086611fa3565b61109d5760405162461bcd60e51b815260206004820152601b60248201527f4d4c3a414e543a5452414e534645525f46524f4d5f4641494c4544000000000060448201526064016109d7565b7f7150c332bd889236b6ab42cc34f0853631ceb58827f58a8697b682f13e390a8c6110ca888888886121fe565b888888886040516110df959493929190613890565b60405180910390a17ffe9a32948c4b8ec5c8a8eddeacd3f3621458e8bde95b725b625e5c8f4f2cb54d601754601854604051611125929190918252602082015260400190565b60405180910390a16000611138826124fd565b905080156111d357826001600160a01b03167ff505854d1244de20a434e0eca67ec8de6d69504f7f85594c61102ab4d9a278f38260405161117b91815260200190565b60405180910390a261118e8284836125d7565b6111d35760405162461bcd60e51b815260206004820152601660248201527513530e9053950e9514905394d1915497d1905253115160521b60448201526064016109d7565b5050505050505050565b60006111e7611c6f565b156112045760405162461bcd60e51b81526004016109d7906138be565b8115806112245750600454611224906001600160a01b0316333085611fa3565b6112705760405162461bcd60e51b815260206004820152601a60248201527f4d4c3a50433a5452414e534645525f46524f4d5f4641494c454400000000000060448201526064016109d7565b7f437d44b2c697fb69e2b2f25f57fd844e376c25ed28ed5a9c4be88aa1e5c87d12610e90612614565b6000806000806000600f54905060008614806112c857506005546112c8906001600160a01b0316333089611fa3565b6113145760405162461bcd60e51b815260206004820152601a60248201527f4d4c3a4d503a5452414e534645525f46524f4d5f4641494c454400000000000060448201526064016109d7565b61131c612640565b600054939850919650945092506001600160a01b0316331480611341575080600f5410155b61138d5760405162461bcd60e51b815260206004820152601960248201527f4d4c3a4d503a43414e4e4f545f5553455f4452415741424c450000000000000060448201526064016109d7565b6040805186815260208101869052908101849052606081018390527f95c4acf903eb698cf367efaaf79a8a58fb4554fcd8503b62af9f9c1b68b59e1e906080015b60405180910390a1509193509193565b6000610a31612737565b50565b6000806000806113f9612761565b929791965094509092509050565b6000611411611c6f565b1561142e5760405162461bcd60e51b81526004016109d7906138be565b6000546001600160a01b031633148061145157506001546001600160a01b031633145b61148b5760405162461bcd60e51b815260206004820152600b60248201526a09874a6749c9ebe82aaa8960ab1b60448201526064016109d7565b6005546001600160a01b038481169116148015906114b757506004546001600160a01b03848116911614155b6114f75760405162461bcd60e51b8152602060048201526011602482015270261d299d24a72b20a624a22faa27a5a2a760791b60448201526064016109d7565b6040516370a0823160e01b81523060048201526001600160a01b0380841691908516907ff1f6a55e7ad487ac8dd8e1d4517348d3b410a7a0bc405ef87b09078dc51b23b69082906370a082319060240160206040518083038186803b15801561155f57600080fd5b505afa158015611573573d6000803e3d6000fd5b505050506040513d601f19601f8201168201806040525081019061159791906136f2565b60405181815290945060200160405180910390a36115b68383836125d7565b6115f85760405162461bcd60e51b8152602060048201526013602482015272130e94ce9514905394d1915497d19052531151606a1b60448201526064016109d7565b92915050565b600080611615601454600f54600d54600c546121c5565b601154909150818111611629576000611633565b61163382826139a4565b9250505090565b611642611c6f565b1561165f5760405162461bcd60e51b81526004016109d7906138be565b6000546001600160a01b031633146116af5760405162461bcd60e51b815260206004820152601360248201527226a61d28272a1d2727aa2fa127a92927aba2a960691b60448201526064016109d7565b428310156116ff5760405162461bcd60e51b815260206004820152601760248201527f4d4c3a504e543a494e56414c49445f444541444c494e4500000000000000000060448201526064016109d7565b7ff94d2f0322894aaf1bce14561461a8b8b6c9b11a77bbe80f20b804da8a95e4b761172c858585856127c8565b85858585604051611741959493929190613890565b60405180910390a150505050565b600061177282600754601454600e54600854601354601254600a54600b546127f0565b5092915050565b611781611c6f565b1561179e5760405162461bcd60e51b81526004016109d7906138be565b6000546001600160a01b03163314806117c157506001546001600160a01b031633145b6117fd5760405162461bcd60e51b815260206004820152600d60248201526c09874a49ca8749c9ebe82aaa89609b1b60448201526064016109d7565b7f47244a449377da5fd10e98d86d118dee442e842fc34f05179c973cfcff6acba761172c8585858561285f565b6000806000806113f96128cd565b611840611f01565b6001600160a01b0316336001600160a01b0316146118935760405162461bcd60e51b815260206004820152601060248201526f4d4c3a4d3a4e4f545f464143544f525960801b60448201526064016109d7565b61189e838383612918565b6118d85760405162461bcd60e51b815260206004820152600b60248201526a13530e934e91905253115160aa1b60448201526064016109d7565b505050565b60006118e7611c6f565b156119045760405162461bcd60e51b81526004016109d7906138be565b6000546001600160a01b031633146119535760405162461bcd60e51b815260206004820152601260248201527126a61d22231d2727aa2fa127a92927aba2a960711b60448201526064016109d7565b816001600160a01b03167f7578fe8c4d9f6fc38fdad20d219b0ce47d38bbf8a72bdb26867809f24119363d8460405161198e91815260200190565b60405180910390a260006119a184610f75565b905080156119e2576004546000906119c1906001600160a01b03166124fd565b90506119de8183116119d45760006111dd565b61062b82846139a4565b9250505b6117728484612991565b6000806000806000600f5490506000861480611a1b5750600554611a1b906001600160a01b0316333089611fa3565b611a675760405162461bcd60e51b815260206004820152601a60248201527f4d4c3a434c3a5452414e534645525f46524f4d5f4641494c454400000000000060448201526064016109d7565b611a6f612a58565b600054939850919650945092506001600160a01b0316331480611a94575080600f5410155b611ae05760405162461bcd60e51b815260206004820152601960248201527f4d4c3a434c3a43414e4e4f545f5553455f4452415741424c450000000000000060448201526064016109d7565b6040805186815260208101869052908101849052606081018390527f6d5b31efac20a15ed5b9e27e38cf9ebcc3ffb6d64feb827a35ef84a607e8dfaf906080016113ce565b611b2d611c6f565b15611b4a5760405162461bcd60e51b81526004016109d7906138be565b6000546001600160a01b03163314611b995760405162461bcd60e51b815260206004820152601260248201527126a61d29219d2727aa2fa127a92927aba2a960711b60448201526064016109d7565b806001600160a01b03167f97b446ee2df422b7273fe6d658674835f9de3319d131c229f9a2f8ed62a7619383604051611bd491815260200190565b60405180910390a2610cd98282612b46565b611bee611f01565b6001600160a01b0316336001600160a01b031614611c425760405162461bcd60e51b81526020600482015260116024820152704d4c3a53493a4e4f545f464143544f525960781b60448201526064016109d7565b6001600160a01b03167f360894a13ba1a3210667c828492db98dca3e2076cc3735a920a3ca505d382bbc55565b6000611c79611f01565b6001600160a01b0316633a60339a6040518163ffffffff1660e01b815260040160206040518083038186803b158015611cb157600080fd5b505afa158015611cc5573d6000803e3d6000fd5b505050506040513d601f19601f82011682018060405250810190611ce99190613520565b6001600160a01b031663425fad586040518163ffffffff1660e01b815260040160206040518083038186803b158015611d2157600080fd5b505afa158015611d35573d6000803e3d6000fd5b505050506040513d601f19601f82011682018060405250810190610a3191906136b7565b6000611d63611c6f565b15611d805760405162461bcd60e51b81526004016109d7906138be565b6005546001600160a01b0316821580611da05750611da081333086611fa3565b611dec5760405162461bcd60e51b815260206004820152601a60248201527f4d4c3a464c3a5452414e534645525f46524f4d5f4641494c454400000000000060448201526064016109d7565b601254611e4657836001600160a01b03167fcd909ec339185c4598a4096e174308fbdf136d117f230960f873a2f2e81f63af611e2786612c0d565b6012546040805183815260208101929092529195500160405180910390a25b6000611e51826124fd565b6001549091506001600160a01b03168115611ef857806001600160a01b03167ff505854d1244de20a434e0eca67ec8de6d69504f7f85594c61102ab4d9a278f383604051611ea191815260200190565b60405180910390a2611eb48382846125d7565b611ef85760405162461bcd60e51b815260206004820152601560248201527413530e91930e9514905394d1915497d19052531151605a1b60448201526064016109d7565b50505092915050565b6000611f2b7f7a45a402e4cb6e08ebc196f20f66d5d30e67285a2a8aa80503fa409e727a4af15490565b919050565b8160106000828254611f4291906139a4565b9091555050600554611f5e906001600160a01b031682846125d7565b610cd95760405162461bcd60e51b81526020600482015260166024820152751353124e90d18e9514905394d1915497d1905253115160521b60448201526064016109d7565b6040516001600160a01b03808516602483015283166044820152606481018290526000906120119086906323b872dd60e01b906084015b60408051601f198184030181529190526020810180516001600160e01b03166001600160e01b031990931692909217909152612d57565b95945050505050565b600554600090612032906001600160a01b03166124fd565b905080600f6000828254612046919061394b565b9250508190555090565b60125460009081908015801590612072575060065461206f908261394b565b42115b6120b55760405162461bcd60e51b81526020600482015260146024820152731353124e948e9393d517d25397d111519055531560621b60448201526064016109d7565b6120bd612df7565b600060118190556010819055600f8190556004546001600160a01b0316906120e4826124fd565b94508414806120f957506120f98186866125d7565b6121455760405162461bcd60e51b815260206004820152601760248201527f4d4c493a523a435f5452414e534645525f4641494c454400000000000000000060448201526064016109d7565b6005546001600160a01b0316600061215c826124fd565b945084148061217157506121718187866125d7565b6121bd5760405162461bcd60e51b815260206004820152601760248201527f4d4c493a523a465f5452414e534645525f4641494c454400000000000000000060448201526064016109d7565b505050915091565b6000838511156121f357826121da85876139a4565b6121e49084613985565b6121ee9190613963565b612011565b506000949350505050565b600061220c85858585612e35565b9050806015541461225f5760405162461bcd60e51b815260206004820152601b60248201527f4d4c493a414e543a434f4d4d49544d454e545f4d49534d41544348000000000060448201526064016109d7565b6001600160a01b0385163b6122b65760405162461bcd60e51b815260206004820152601a60248201527f4d4c493a414e543a494e56414c49445f524546494e414e43455200000000000060448201526064016109d7565b834211156123065760405162461bcd60e51b815260206004820152601a60248201527f4d4c493a414e543a455850495245445f434f4d4d49544d454e5400000000000060448201526064016109d7565b6000600754905060008061232f4284601454600e54600854601354601254600a54600b546127f0565b915091508160166000828254612345919061394b565b90915550506000601581905585905b818110156124255760008a6001600160a01b031689898481811061237a5761237a6139d1565b905060200281019061238c9190613904565b60405161239a92919061381d565b600060405180830381855af49150503d80600081146123d5576040519150601f19603f3d011682016040523d82523d6000602084013e6123da565b606091505b505090508061241c5760405162461bcd60e51b815260206004820152600e60248201526d1353124e9053950e91905253115160921b60448201526064016109d7565b50600101612354565b506000601354856124369190613985565b836017546124449190613985565b61244e9190613963565b90506000601354866124609190613985565b8460185461246e9190613985565b6124789190613963565b600754909150612488814261394b565b60125560145461249a90828585612e6e565b6124a2612fcc565b6124ee5760405162461bcd60e51b815260206004820152601f60248201527f4d4c493a414e543a494e53554646494349454e545f434f4c4c41544552414c0060448201526064016109d7565b50505050505050949350505050565b6005546000906001600160a01b0383811691161461251c57600061252c565b600f5460105461252c919061394b565b6004546001600160a01b0384811691161461254857600061254c565b6011545b6040516370a0823160e01b81523060048201526001600160a01b038516906370a082319060240160206040518083038186803b15801561258b57600080fd5b505afa15801561259f573d6000803e3d6000fd5b505050506040513d601f19601f820116820180604052508101906125c391906136f2565b6125cd91906139a4565b6115f891906139a4565b6040516001600160a01b03831660248201526044810182905260009061260a90859063a9059cbb60e01b90606401611fda565b90505b9392505050565b60045460009061262c906001600160a01b03166124fd565b90508060116000828254612046919061394b565b60008060008061264e6128cd565b6000601681905593975091955093509150612669848661394b565b905081612676848361394b565b612680919061394b565b600554612695906001600160a01b03166124fd565b600f546126a2919061394b565b6126ac91906139a4565b600f8190555080601060008282546126c4919061394b565b909155506126d490508383612fec565b60135460018114156126ed576126e8612df7565b61272f565b60075460126000828254612701919061394b565b92505081905550856014600082825461271a91906139a4565b9091555061272b90506001826139a4565b6013555b505090919293565b6000611f2b7f360894a13ba1a3210667c828492db98dca3e2076cc3735a920a3ca505d382bbc5490565b600080600080601654670de0b6b3a76400006009546014549650866127869190613985565b6127909190613963565b61279a919061394b565b601354601754919450906127af908290613985565b9250806018546127bf9190613985565b91505090919293565b6000816127d65760006127e2565b6127e285858585612e35565b601581905595945050505050565b600080846127fe8b8d61394b565b101561280f57506000905080612851565b6128198a866139a4565b612823908c6139a4565b9050612832898989848a61305e565b925061284490508b8a89888888613151565b61284e908361394b565b91505b995099975050505050505050565b600061286d85858585612e35565b905080601554146128c05760405162461bcd60e51b815260206004820152601b60248201527f4d4c493a524e543a434f4d4d49544d454e545f4d49534d41544348000000000060448201526064016109d7565b6000601555949350505050565b6000806000806128f442601254600754601454600e54601354600854600a54600b546131f7565b6016549195509350612906908461394b565b92506017549150601854905090919293565b6000833b8061292b57600091505061260d565b846001600160a01b0316848460405161294592919061381d565b600060405180830381855af49150503d8060008114612980576040519150601f19603f3d011682016040523d82523d6000602084013e612985565b606091505b50909695505050505050565b81600f60008282546129a391906139a4565b90915550506005546129bf906001600160a01b031682846125d7565b612a045760405162461bcd60e51b81526020600482015260166024820152751353124e91118e9514905394d1915497d1905253115160521b60448201526064016109d7565b612a0c612fcc565b610cd95760405162461bcd60e51b815260206004820152601e60248201527f4d4c493a44463a494e53554646494349454e545f434f4c4c41544552414c000060448201526064016109d7565b600080600080601254421115612aa95760405162461bcd60e51b81526020600482015260166024820152754d4c493a434c3a5041594d454e545f49535f4c41544560501b60448201526064016109d7565b612ab1612761565b6000601681905593975091955093509150612acc848661394b565b905081612ad9848361394b565b612ae3919061394b565b600554612af8906001600160a01b03166124fd565b600f54612b05919061394b565b612b0f91906139a4565b600f819055508060106000828254612b27919061394b565b90915550612b3790508383612fec565b612b3f612df7565b5090919293565b8160116000828254612b5891906139a4565b9091555050600454612b74906001600160a01b031682846125d7565b612bb95760405162461bcd60e51b81526020600482015260166024820152751353124e9490ce9514905394d1915497d1905253115160521b60448201526064016109d7565b612bc1612fcc565b610cd95760405162461bcd60e51b815260206004820152601e60248201527f4d4c493a52433a494e53554646494349454e545f434f4c4c41544552414c000060448201526064016109d7565b60006001600160a01b038216612c5d5760405162461bcd60e51b815260206004820152601560248201527426a6249d23261d24a72b20a624a22fa622a72222a960591b60448201526064016109d7565b601354601254158015612c6f57508015155b612cb05760405162461bcd60e51b81526020600482015260126024820152714d4c493a464c3a4c4f414e5f41435449564560701b60448201526064016109d7565b600754600180546001600160a01b0319166001600160a01b038616179055612cd8814261394b565b601255600d5460148190556005549093506001600160a01b031683612cfc826124fd565b1015612d4a5760405162461bcd60e51b815260206004820152601860248201527f4d4c493a464c3a57524f4e475f46554e445f414d4f554e54000000000000000060448201526064016109d7565b505050600f819055919050565b60006001600160a01b0383163b612d70575060006115f8565b6060836001600160a01b031683604051612d8a919061382d565b6000604051808303816000865af19150503d8060008114612dc7576040519150601f19603f3d011682016040523d82523d6000602084013e612dcc565b606091505b509092509050818015610fb5575080511580610fb5575080806020019051810190610fb591906136b7565b60006006819055600781905560088190556009819055600a819055600b819055600e8190556012819055601381905560148190556017819055601855565b600084848484604051602001612e4e9493929190613868565b604051602081830303815290604052805190602001209050949350505050565b6000612e78613246565b90508264496cebb80085836001600160a01b03166316a12d7a6040518163ffffffff1660e01b815260040160206040518083038186803b158015612ebb57600080fd5b505afa158015612ecf573d6000803e3d6000fd5b505050506040513d601f19601f82011682018060405250810190612ef391906136f2565b612efd9089613985565b612f079190613985565b612f119190613963565b612f1b919061394b565b6017819055508164496cebb80085836001600160a01b031663cc32d1766040518163ffffffff1660e01b815260040160206040518083038186803b158015612f6257600080fd5b505afa158015612f76573d6000803e3d6000fd5b505050506040513d601f19601f82011682018060405250810190612f9a91906136f2565b612fa49089613985565b612fae9190613985565b612fb89190613963565b612fc2919061394b565b6018555050505050565b6000612fe2601454600f54600d54600c546121c5565b6011541015905090565b60015461300a906001600160a01b0316634046af2b60e01b846132c0565b613026578160106000828254613020919061394b565b90915550505b61303f613031613246565b63a5a2760560e01b836132c0565b610cd9578060106000828254613055919061394b565b90915550505050565b600080600061306d86866133cf565b9050600061309561308683670de0b6b3a764000061394b565b86670de0b6b3a76400006133ea565b9050670de0b6b3a764000081116130c857846130b1898b6139a4565b6130bb9190613963565b6000935093505050613147565b60006130dc670de0b6b3a7640000836139a4565b838a670de0b6b3a76400006130f1868f613985565b6130fb9190613963565b61310591906139a4565b61310f9190613985565b6131199190613963565b90506131268a898961344c565b935083811015613137576000613141565b61314184826139a4565b94505050505b9550959350505050565b6000838711613162575060006131ed565b6000620151806001613174878b6139a4565b61317e91906139a4565b6131889190613963565b61319390600161394b565b6131a09062015180613985565b90506131b6876131b0858961394b565b8361344c565b6131c0908361394b565b9150670de0b6b3a76400006131d58886613985565b6131df9190613963565b6131e9908361394b565b9150505b9695505050505050565b6000806132078888878c8a61305e565b90925090506001861461321a578161321c565b875b915061322c8b89878d8888613151565b613236908261394b565b9050995099975050505050505050565b6000613250611f01565b6001600160a01b0316633a60339a6040518163ffffffff1660e01b815260040160206040518083038186803b15801561328857600080fd5b505afa15801561329c573d6000803e3d6000fd5b505050506040513d601f19601f82011682018060405250810190610a319190613520565b6000816132cf5750600161260d565b60408051600481526024810182526020810180516001600160e01b03166001600160e01b03198716179052905160009182916001600160a01b038816916133159161382d565b6000604051808303816000865af19150503d8060008114613352576040519150601f19603f3d011682016040523d82523d6000602084013e613357565b606091505b509150915081158061336b57506020815114155b1561337b5760009250505061260d565b6000818060200190518101906133919190613520565b90506001600160a01b0381166133ad576000935050505061260d565b6005546133c4906001600160a01b031682876125d7565b979650505050505050565b60006301e133806133e08385613985565b61260d9190613963565b6000600183166133fa57816133fc565b835b90505b60019290921c91821561260d57816134178580613985565b6134219190613963565b935060018316613430576133ff565b8161343b8583613985565b6134459190613963565b90506133ff565b6000670de0b6b3a764000061346184846133cf565b61346b9086613985565b61260a9190613963565b60008083601f84011261348757600080fd5b50813567ffffffffffffffff81111561349f57600080fd5b6020830191508360208260051b85010111156134ba57600080fd5b9250929050565b60008083601f8401126134d357600080fd5b50813567ffffffffffffffff8111156134eb57600080fd5b6020830191508360208285010111156134ba57600080fd5b60006020828403121561351557600080fd5b813561260d816139e7565b60006020828403121561353257600080fd5b815161260d816139e7565b6000806040838503121561355057600080fd5b823561355b816139e7565b9150602083013561356b816139e7565b809150509250929050565b60008060006040848603121561358b57600080fd5b8335613596816139e7565b9250602084013567ffffffffffffffff8111156135b257600080fd5b6135be868287016134c1565b9497909650939450505050565b600080604083850312156135de57600080fd5b82356135e9816139e7565b946020939093013593505050565b6000806000806060858703121561360d57600080fd5b8435613618816139e7565b935060208501359250604085013567ffffffffffffffff81111561363b57600080fd5b61364787828801613475565b95989497509550505050565b60008060008060006080868803121561366b57600080fd5b8535613676816139e7565b945060208601359350604086013567ffffffffffffffff81111561369957600080fd5b6136a588828901613475565b96999598509660600135949350505050565b6000602082840312156136c957600080fd5b8151801515811461260d57600080fd5b6000602082840312156136eb57600080fd5b5035919050565b60006020828403121561370457600080fd5b5051919050565b6000806040838503121561371e57600080fd5b82359150602083013561356b816139e7565b60008060006040848603121561374557600080fd5b83359250602084013567ffffffffffffffff8111156135b257600080fd5b81835260006020808501808196508560051b810191508460005b878110156137e75782840389528135601e1988360301811261379e57600080fd5b8701803567ffffffffffffffff8111156137b757600080fd5b8036038913156137c657600080fd5b6137d386828985016137f4565b9a87019a955050509084019060010161377d565b5091979650505050505050565b81835281816020850137506000828201602090810191909152601f909101601f19169091010190565b8183823760009101908152919050565b6000825160005b8181101561384e5760208186018101518583015201613834565b8181111561385d576000828501525b509190910192915050565b60018060a01b03851681528360208201526060604082015260006131ed606083018486613763565b85815260018060a01b03851660208201528360408201526080606082015260006133c4608083018486613763565b60208082526012908201527113530e941493d513d0d3d317d4105554d15160721b604082015260600190565b8381526040602082015260006120116040830184866137f4565b6000808335601e1984360301811261391b57600080fd5b83018035915067ffffffffffffffff82111561393657600080fd5b6020019150368190038213156134ba57600080fd5b6000821982111561395e5761395e6139bb565b500190565b60008261398057634e487b7160e01b600052601260045260246000fd5b500490565b600081600019048311821515161561399f5761399f6139bb565b500290565b6000828210156139b6576139b66139bb565b500390565b634e487b7160e01b600052601160045260246000fd5b634e487b7160e01b600052603260045260246000fd5b6001600160a01b03811681146113e857600080fdfea2646970667358221220cf3ad50a00c9ef705713d6ef5ef8ce0ee706924267153610fc2180e741b82d4f64736f6c63430008070033",
    "linkReferences": {}
  }
}