{
  "abi": [
    {
      "inputs": [
        {
          "internalType": "address",
          "name": "",
          "type": "address"
        }
      ],
      "name": "balanceOf",
      "outputs": [
        {
          "internalType": "uint256",
          "name": "",
          "type": "uint256"
        }
      ],
      "stateMutability": "view",
      "type": "function"
    },
    {
      "inputs": [
        {
          "internalType": "address",
          "name": "to_",
          "type": "address"
        },
        {
          "internalType": "uint256",
          "name": "value_",
          "type": "uint256"
        }
      ],
      "name": "mint",
      "outputs": [],
      "stateMutability": "nonpayable",
      "type": "function"
    },
    {
      "inputs": [
        {
          "internalType": "address",
          "name": "",
          "type": "address"
        },
        {
          "internalType": "uint256",
          "name": "",
          "type": "uint256"
        }
      ],
      "name": "transfer",
      "outputs": [
        {
          "internalType": "bool",
          "name": "",
          "type": "bool"
        }
      ],
      "stateMutability": "pure",
      "type": "function"
    }
  ],
  "bytecode": {
    "object": "0x608060405234801561001057600080fd5b506101ad806100206000396000f3fe608060405234801561001057600080fd5b50600436106100415760003560e01c806340c10f191461004657806370a082311461005b578063a9059cbb1461008e575b600080fd5b610059610054366004610127565b6100b1565b005b61007b610069366004610105565b60006020819052908152604090205481565b6040519081526020015b60405180910390f35b6100a161009c366004610127565b6100e2565b6040519015158152602001610085565b6001600160a01b038216600090815260208190526040812080548392906100d9908490610151565b90915550505050565b6000806000fd5b80356001600160a01b038116811461010057600080fd5b919050565b60006020828403121561011757600080fd5b610120826100e9565b9392505050565b6000806040838503121561013a57600080fd5b610143836100e9565b946020939093013593505050565b6000821982111561017257634e487b7160e01b600052601160045260246000fd5b50019056fea264697066735822122083ba103ef137e0c6baf7972b53dc4ee19a965169016a528c7d0b53dd2cd4a10e64736f6c63430008070033",
    "linkReferences": {}
  }
}